:020000040C00EE
:100000000008001001020008B1020008B102000857
:10001000B1020008B1020008B102000800000000AF
:10002000000000000000000000000000B102000815
:10003000B102000800000000B1020008B10200088F
:10004000B1020008B1020008B1020008B1020008C4
:10005000B1020008B1020008B1020008B1020008B4
:10006000B1020008000000000000000000000000D5
:10007000B102000800000000B1020008B10200084F
:10008000B1020008B1020008B1020008B102000884
:10009000B1020008B1020008B1020008B102000874
:1000A000B1020008B1020008B1020008B102000864
:1000B000B1020008B1020008B1020008B102000854
:1000C000B1020008B1020008B1020008B102000844
:1000D000B1020008B1020008B1020008B102000834
:1000E000B1020008B1020008B1020008B102000824
:1000F000B1020008B1020008B1020008B102000814
:10010000B1020008B1020008B1020008B102000803
:10011000B1020008B1020008B1020008B1020008F3
:10012000B10200083D260008B1020008B102000833
:10013000B1020008B1020008B1020008B1020008D3
:10014000B1020008B1020008B1020008B1020008C3
:10015000B1020008B1020008B1020008B1020008B3
:10016000000000000000000000000000000000008F
:10017000B1020008B1020008B1020008B102000893
:10018000B1020008B1020008B1020008B102000883
:10019000B1020008B1020008B1020008B102000873
:1001A000B1020008B1020008D51C0008C51C0008F7
:1001B000B1020008B1020008B1020008B102000853
:1001C000B1020008B1020008B1020008B102000843
:1001D000B1020008B1020008B102000800000000EE
:1001E000B1020008B1020008B1020008B102000823
:1001F000B102000800000000B10200080000000089
:10020000DFF88CD023488047234C244DAC4209DAD8
:1002100021686268A368043BA2BFC858D050FAE7BF
:100220000C34F3E71E4B1F4CA34208DA19685A68D6
:100230000020043AA4BF8850FBE70833F4E71A48CB
:1002400080471A4880470000C85C000C000000206E
:10025000C0000000885D000C0000003000000000BD
:10026000C85C000C0008001000000000C85C000C16
:100270000008001000000000C0000020A8000000DE
:100280000000003000000000000800100000000026
:1002900000080010B50200084802000878020008B3
:1002A0007802000890020008E55700086D31000848
:1002B000FEE7000098B500AF054A4FF00053144622
:1002C0000FCB84E80F0002F03FF802F0A7F898BDCA
:1002D000C4FF002080B584B000AF2F4BDB6803F46F
:1002E0008033002B3ED02D4BDB6803F00103002B45
:1002F00002D02B4BFB6002E002F086F8F860274B3F
:100300001B6803F00403002B20D0244B9B6803F0F0
:1003100070631B0E0133BB60204B9B6803F4FE43EC
:100320001B0A01337B601D4B9B6803F4FE031B0C0F
:1003300001333B60BB683A6802FB03F3FA68B2FB27
:10034000F3F37A6802FB03F3FB600DE0134B9B6849
:1003500003F07F0301333B60FA683B68B2FBF3F3C1
:10036000FB6001E00E4BFB600B4BDB68DBB2013343
:10037000FA68B2FBF3F3FB60074B1B6903F0010360
:100380000133FA68B2FBF3F3FB60064AFB681360C3
:100390001037BD4680BD00BF0046005010470050DA
:1003A00000366E01C0FF002080B485B000AFF86059
:1003B0000B467A60FB72FB7A9B08DBB21846FB7A2D
:1003C0009B08DBB21A46FB68043253F82220FB7A02
:1003D00003F00303DB001946F8238B40DB4302EAFA
:1003E0000301FB68021D43F82210FB685A6FFB7A79
:1003F0005B00194603238B40DB431A40FB685A67B6
:10040000FB68374A934203D0FB68364A93420AD1CD
:10041000FB681A6EFB7A012101FA03F3DB431A40F1
:10042000FB681A663CE07B685A68FB7A9A40FB6876
:100430005A60FB7ADB08DBB21846FB7ADB08DBB2DA
:100440001A46FB68103253F82220FB7A03F00703A8
:100450009B00194607238B40DB4302EA0301FB683C
:1004600000F1100243F82210FB7ADB08DBB21846D9
:10047000FB7ADB08DBB21A46FB68103253F8222005
:100480007B681B7A1946FB7A03F007039B0001FA8D
:1004900003F342EA0301FB6800F1100243F8221063
:1004A000FB7A9B08DBB21846FB7A9B08DBB21A4644
:1004B000FB68043253F822207B681B781946FB7ACC
:1004C00003F00303DB0001FA03F342EA0301FB68D4
:1004D000021D43F822101437BD465DF8047B7047B7
:1004E000008E0248008F024880B400AF034B1B68A7
:1004F0001846BD465DF8047B704700BFC0FF002072
:1005000080B400AF034BD3F8C4301846BD465DF845
:10051000047B70470040005080B584B000AF786025
:10052000FFF7D8FE0B4B1B680B4AA2FB03239A0C68
:100530007B6802FB03F37B600023FB6003E000BFEA
:10054000FB680133FB60FA687B689A42F7D3103787
:10055000BD4680BDC0FF002083DE1B43B0B584B024
:1005600002AF7860002000F09BF800F02DFA7B6865
:10057000DB79002B0AD000F065FA00BF00F050FADA
:10058000034683F00103DBB2002BF7D17B685B7A73
:10059000184600F0FFF800BFFFF7B2FF0346002B3C
:1005A000FAD17B681B7A184600F0E8F97B681B7C5F
:1005B000184600F00DF97B685B7C184600F030F9B6
:1005C0007B689B7C184600F017F97B68DB7C18463B
:1005D00000F03AF97B689B79002B0AD000F066FAAC
:1005E00000BF00F08BFA034683F00103DBB2002B5F
:1005F000F7D17B68DB78002B02D100F0A3FA14E07E
:1006000000F090FA7B6899887B68DA787B685B7881
:100610001D467B681B781C467B689B7800930846C8
:1006200011462A46234600F09DFA7B68DB68B3F545
:10063000803F03D14FF4803000F032F8FFF74AFEDC
:100640000837BD46B0BD00BF80B485B000AF78604C
:100650007B681B0FFB607B6823F07043BB60FA680C
:1006600013465B0013449B001A46044B1344BA68BC
:100670001A601437BD465DF8047B7047144400507F
:1006800080B500AFFFF730FF0246044B5B6903F013
:10069000010322FA03F3184680BD00BF0046005054
:1006A00080B483B000AF78600649064BDB6823F462
:1006B00080327B681343CB600C37BD465DF8047B0A
:1006C000704700BF0046005080B483B000AF786030
:1006D0000649064B9B6923F480327B6813438B6188
:1006E0000C37BD465DF8047B704700BF00460050E4
:1006F00080B483B000AF78600649064B5B6A23F490
:1007000040327B6813434B620C37BD465DF8047B77
:10071000704700BF0046005080B483B000AF03466E
:10072000FB80FB88002B08D10A4A0A4BDB6823F4C4
:10073000807323F00103D36007E0064A054BDB68B2
:1007400043F4807343F00103D3600C37BD465DF87A
:10075000047B70471047005080B483B000AF03465D
:10076000FB7100BF094BD3F8C43003F00803002B22
:10077000F8D10749064BDB6823F04002FB791343AD
:10078000CB600C37BD465DF8047B704700400050DD
:100790000043005080B483B000AF0346FB7100BF3C
:1007A000094BD3F8C43003F00803002BF8D10749F4
:1007B000064BDB6823F08002FB791343CB600C37D8
:1007C000BD465DF8047B7047004000500043005078
:1007D00080B483B000AF78600649064BDB6823F035
:1007E000FF027B68013B1343CB600C37BD465DF8CD
:1007F000047B70470046005080B483B000AF78603F
:100800000649064B1B6A23F001027B68013B134338
:100810000B620C37BD465DF8047B70470046005004
:1008200080B483B000AF78600649064B1B6923F0A3
:1008300001027B68013B13430B610C37BD465DF839
:10084000047B70470046005080B483B000AF7860EE
:100850000649064B5B6923F001027B68013B1343A9
:100860004B610C37BD465DF8047B70470046005075
:1008700080B483B000AF78600649064B9B6923F0D3
:1008800007027B68013B13438B610C37BD465DF863
:10089000047B70470046005080B483B000AF78609E
:1008A0000649064BDB6923F03F027B68013B13439B
:1008B000CB610C37BD465DF8047B704700460050A5
:1008C00080B483B000AF78600649064B5B6A23F0C2
:1008D000FF027B68013B13434B620C37BD465DF85A
:1008E000047B70470046005080B483B000AF0346DD
:1008F000FB71044AFB7953600C37BD465DF8047BFD
:10090000704700BF0046005080B483B000AF7860ED
:100910003960194A184B5B6943F001035361164A69
:10092000154B5B6943F01003536113493B68013B6E
:100930001A027B68013B1B0613434B610E4A0E4BA8
:100940005B6943F0400353610B4A0B4B5B6923F037
:1009500010035361084A084B5B6943F480235361D9
:1009600000BF054B1B6903F00403002BF9D00C37C3
:10097000BD465DF8047B70471047005080B582B0DB
:1009800000AF0346FB710F4A0E4B5B6843F48013C4
:100990005360FB79012B0ED10A4A0A4B5B6823F4A2
:1009A000801353606420FFF7B7FD064A054B5B6870
:1009B00043F4002353606420FFF7AEFD0837BD46C3
:1009C00080BD00BF1047005080B400AF124B1B68C1
:1009D00003F00103002B09D10F4B01225A6000BF25
:1009E0000D4B1B6803F00103002BF9D00B4B1B6868
:1009F00003F40073002B0AD0084B4FF400729A6086
:100A000000BF064B1B6803F40073002BF9D1BD46F1
:100A10005DF8047B704700BF004200500044005066
:100A200080B400AF064B1B6803F00803002B0CBF1B
:100A300001230023DBB21846BD465DF8047B7047F6
:100A40000043005080B500AF00BF164BD3F8C43050
:100A500003F08003002BF8D1134A134BDB6923F01A
:100A60003003D36100BF0F4BD3F8C43003F0080349
:100A7000002BF8D10C4A0C4BDB6843F00803D36021
:100A800000BF084BD3F8C43003F00403002BF8D1A7
:100A9000054B08229A6000BFFFF732FD0346002B8A
:100AA000FAD180BD0040005000430050B0B500AF07
:100AB0000F4A0F4B5B6823F4803353600D4D0D4B91
:100AC0005B6823F4702424F0300401F09DFC02469E
:100AD000094BA3FB02231B0D013B1B0423436B604B
:100AE000034A034B5B6823F400335360B0BD00BF7F
:100AF00010470050004700506BCA5F6B80B400AFD6
:100B0000074B1B6803F46073B3F5607F0CBF0123D0
:100B10000023DBB21846BD465DF8047B704700BF7A
:100B20001047005080B400AF054A054B5B6823F4C2
:100B3000803323F002035360BD465DF8047B7047A9
:100B40001047005080B400AF054A054B5B6843F482
:100B5000803343F002035360BD465DF8047B704769
:100B60001047005080B586B000AFBA607B60034686
:100B7000FB810B467B73FB891846FFF7CDFD7B7B22
:100B8000012B40F08480FB89002B09D101F03CFC53
:100B900002464B4BA3FB02239B0C9B057B6102E0AF
:100BA0004FF0C0637B617B697A6802FB03F2BB682C
:100BB000B2FBF3F37B617B69424AA2FB03231B096F
:100BC0009B0D3B61404A404B5B6843F0010353601F
:100BD0003D4A3D4B5B6843F0100353603A493A4B42
:100BE0009A683A4B13407A68013A12021A433B69F9
:100BF000013B1B041A43BB68013B1B0613438B607C
:100C0000314A314B5B6843F0400353602E4A2E4B10
:100C10005B6823F0100353602B4A2B4B5B6843F453
:100C20008023536000BF284B1B6803F00403002B94
:100C3000F9D0254A244B5B6823F00103536000BFC1
:100C4000214B1B6803F00103002BF9D17B69204A7B
:100C5000A2FB03235B099B0D3B613A6A3B699A4205
:100C600002D2386900F038F87B695B08194AA2FBA8
:100C700003235B099B0D3B613A6A3B699A4202D2AE
:100C8000386900F029F8386A00F026F815E00E49B6
:100C90000D4B9B6823F07F023B6A013B13438B6043
:100CA000094A094B5B6843F00103536000BF064BE0
:100CB0001B6803F00103002BF9D01837BD4680BD37
:100CC00083DE1B43ABAAAAAA10470050FF8080F026
:100CD00089888888B7600BB680B582B000AF78602D
:100CE0000749074B9B6823F4FE027B68013B1B040A
:100CF00013438B603220FFF70FFC0837BD4680BDE1
:100D00001047005080B483B000AF78607B68DB6828
:100D100043F480727B68DA600C37BD465DF8047B73
:100D2000704700BF80B582B000AF78607B68104A22
:100D3000934203D10420FFF787FC16E07B680D4A3D
:100D4000934203D10820FFF77FFC0EE07B680A4A3C
:100D5000934203D11020FFF777FC06E07B68074A37
:100D6000934202D10648FFF76FFC0837BD4680BDAD
:100D700000C0004000000140004001400040004829
:100D80000100001080B582B000AF78601020FFF73E
:100D9000ABFD7868FFF7C6FF0837BD4680BD00BFD2
:100DA00080B584B000AF78600B46FB707868FFF7C1
:100DB000E9FF7868FFF7A6FF7B681B68FB60FB68AC
:100DC00023F44043FB60FB789B03FA681343FB600A
:100DD0007B68FA681A601037BD4680BD80B483B066
:100DE00000AF786039603B681A687B685A613B687D
:100DF0005B79C3F34013DBB21A057B685A603B682A
:100E00001B79C3F30303DBB21A467B685A623B6863
:100E10005B79C3F30303DBB21A467B681A623B6853
:100E20005B79C3F30013DBB21A467B689A613B68B7
:100E30001B79C3F30313DBB21A467B68DA620C3703
:100E4000BD465DF8047B704780B485B000AF786024
:100E50000B46FB707B689B6AFB60FB6823F4706346
:100E6000FB60FB781B02FA681343FB607B68FA683F
:100E70009A62FA787B685A621437BD465DF8047B43
:100E8000704700BF80B487B000AF78600B46FB703E
:100E90001346BB707B68D3F8A830FB60FB78092B46
:100EA0002CD801A252F823F0D10E0008D10E000870
:100EB000DB0E0008DB0E0008FD0E0008FD0E00082A
:100EC000FD0E0008FD0E0008E50E0008F10E0008FA
:100ED00003233B6100237B6116E00C233B6102236B
:100EE0007B6111E04FF440733B6108237B610BE0B1
:100EF0004FF440633B610A237B6105E04FF44053AC
:100F00003B610C237B6100BF3B69DB43FA68134004
:100F1000FB60BA787B6902FA03F3FA681343FB605B
:100F20007B68FA68C3F8A8201C37BD465DF8047BCF
:100F3000704700BF80B483B000AF78600B46FB7091
:100F40001346BB707B685A6FFB785B00194603231E
:100F50008B40DB431A407B685A677B685A6FBB78CB
:100F6000F97849008B401A437B685A670C37BD46B5
:100F70005DF8047B704700BF80B483B000AF786039
:100F80007B689B6BDBB223F07F03DBB218460C3728
:100F9000BD465DF8047B704780B483B000AF7860D5
:100FA00039607B683A68DA640C37BD465DF8047BCB
:100FB000704700BF80B584B000AF786039601023FF
:100FC000FB60786800F08CF83B68DB79002B02D07E
:100FD0003B68DB79FB603B681B6878681946FA68F8
:100FE00000F0CAF83B689B79013B5A00FB685B083C
:100FF00001331B02134343F4403343F001037A6887
:10100000D3633B681B79013B1B0643F481727B6809
:101010005A633B685B79002B09D07B685A6B3B684D
:101020005B79013B1B041A437B685A6308E07B68C9
:101030005A6B3B681B79013B1B041A437B685A635C
:101040007B684FF4A0629A637B684FF0FF32DA64EA
:101050003B681B891A467B681A641037BD4680BD01
:1010600080B582B000AF78600B467B807B68D3F898
:10107000083103F0E063002B10D100BF7868FFF760
:101080007BFF0346802BF9D078684FF40051FFF7BF
:1010900083FF7A887B68C3F8802003E07A887B68C6
:1010A000C3F880210837BD4680BD00BF80B485B03D
:1010B00000AF78607B68D3F80C3103F0E063002B5D
:1010C00003D17B685B6DFB8103E07B68D3F81C3147
:1010D000FB81FB8918461437BD465DF8047B7047D9
:1010E00080B582B000AF78607B681A4A934203D023
:1010F0007B68194A934203D1184800F079F916E049
:101100007B68174A934203D07B68164A934203D107
:10111000154800F06DF90AE07B68144A934203D049
:101120007B68134A934202D1124800F061F97B6850
:101130000322DA6000BF7B68DB6803F00103002B49
:10114000F9D07B681B6C23F00F027B681A640837A8
:10115000BD4680BD0000034000020340080003407C
:10116000000002480002024808000248004002480D
:10117000004202480840024880B58EB000AFF860D7
:10118000B9607A60BB68632B58D97B68002B55D057
:10119000FFF776FA02462E4BA3FB02235B093B6264
:1011A000BB682B4AA2FB03235B09BB600123FB62E4
:1011B0000123BB6240F2FF337B6240F2FF333B63AB
:1011C00022E03B6A3A6B02FB03F2BB68796801FBE1
:1011D00003F3B2FBF3F3FB61FB699B0ABB61FB69A1
:1011E000C3F309037B61BB69B3F5806F09D27A69E8
:1011F0007B6A9A4205D27B697B62BB69BB623B6BAF
:10120000FB623B6B013B3B633B6B002BD9D1FB6A21
:1012100043F40042FB681A61FB685A690D4B1340A6
:101220007A68013A92021A43BB6A013B1B041A43D3
:10123000FB685A61002387F8373002E0012387F802
:10124000373097F8373018463837BD4680BD00BF75
:101250001F85EB51EF8000FC80B485B000AFF860D3
:10126000B9603B601346FB71FB68D3F8083123F08B
:10127000E062FB68C3F80821FB68D3F80821094B3A
:1012800013403A681102BA681143FA7912060A4308
:101290001A43FB68C3F808211437BD465DF8047B88
:1012A000704700BFC0C0FFF880B485B000AFF860E1
:1012B000B9603B601346FB71FB68D3F80C3123F037
:1012C000E062FB68C3F80C21FB68D3F80C210A4BE1
:1012D00013403A681102BA681143FA7912060A43B8
:1012E000134343F08052FB68C3F80C211437BD460A
:1012F0005DF8047B704700BFC0C0FFEF80B485B0CD
:1013000000AFF8600B467A60FB72FB68D3F80C31D3
:1013100023F0E062FB68C3F80C21FB68D3F80C31C2
:1013200023F47C527B681B021A43FB7A1B061A4388
:10133000FB68C3F80C211437BD465DF8047B704789
:1013400080B485B000AFF8600B467A60FB72FB6832
:101350009A69FB7A072101FA03F3DB431A40FB7A0F
:10136000796801FA03F31A43FB689A611437BD46A2
:101370005DF8047B704700BF80B485B000AFF860B3
:101380000B467A60FB72FB68D3F80821FB7A0721D1
:1013900001FA03F3DB431A40FB7A796801FA03F39D
:1013A0001A43FB68C3F808211437BD465DF8047B77
:1013B000704700BF80B485B000AFF8600B467A601C
:1013C000FB72FB68D3F80C21FB7A072101FA03F3C7
:1013D000DB431A40FB7A796801FA03F31A43FB688E
:1013E000C3F80C211437BD465DF8047B704700BF7D
:1013F00080B582B000AF78607B680D4A934204D11B
:101400004FF40060FFF720F90EE07B68094A934231
:1014100003D10948FFF718F906E07B68074A9342B1
:1014200002D10748FFF710F90837BD4680BD00BF5D
:1014300008000340080002488000001008400248ED
:101440000001001080B400AFBD465DF8047B70471A
:1014500080B483B000AF786039607B681A6C3B68F9
:101460001A437B681A640C37BD465DF8047B7047ED
:1014700080B483B000AF786039607B681A6C3B68D9
:10148000DB431A407B681A640C37BD465DF8047B69
:10149000704700BF80B483B000AF78607B689B6BFF
:1014A000DBB223F07F03DBB218460C37BD465DF894
:1014B000047B704780B483B000AF786039603B68CC
:1014C0004FF480329A407B689A660C37BD465DF8CF
:1014D000047B704780B483B000AF786039607B686C
:1014E000D3F808213B681A437B68C3F808210C37FE
:1014F000BD465DF8047B704780B483B000AF786070
:1015000039607B68D3F808213B68DB431A407B686D
:10151000C3F808210C37BD465DF8047B704700BF57
:1015200080B483B000AF78607B684FF40042C3F8AA
:1015300018210C37BD465DF8047B704780B483B03A
:1015400000AF78607B68D3F8143103F48053002B2C
:1015500014BF01230023DBB218460C37BD465DF8EB
:10156000047B704780B483B000AF78607B68D3F8A9
:10157000143103F40063002B14BF01230023DBB2FA
:1015800018460C37BD465DF8047B704780B483B0C5
:1015900000AF786039607B68D3F80C213B681A4350
:1015A0007B68C3F80C210C37BD465DF8047B70479F
:1015B00080B483B000AF786039607B68D3F80C21C9
:1015C0003B68DB431A407B68C3F80C210C37BD46EF
:1015D0005DF8047B704700BF80B483B000AF7860D3
:1015E0007B684FF48042C3F818210C37BD465DF884
:1015F000047B704780B483B000AF78607B68D3F819
:10160000143103F00803002B14BF01230023DBB2C5
:1016100018460C37BD465DF8047B704780B584B032
:1016200000AF78600023FB737B685B685B6898475A
:101630000346FB73FB7B18461037BD4680BD00BFD9
:1016400080B586B000AFF860B9607A600423FB759E
:10165000FB685B6893F82930002B00D007E0F8683E
:10166000B9687A6800F024F80346FB7500BFFB7D7B
:1016700018461837BD4680BD80B586B000AFF8600B
:10168000B9607A600423FB75FB685B6893F82A30C5
:10169000002B00D007E0F868B9687A6800F064F8B9
:1016A0000346FB7500BFFB7D18461837BD4680BD5D
:1016B00080B586B000AFF860B9607A600423FB752E
:1016C000FB689B683B61FB685B6893F82930002BE3
:1016D00044D10223FB753B691B7EDBB283F001031F
:1016E000DBB2002B3AD0BB68002B35D07B68002BD7
:1016F00032D03B69BA681A603B697A689A603B6984
:101700000022DA603B6901221A76FB685B6893F875
:101710002B30002B0CD0FB681B681846FFF700FF2E
:10172000FB681B6818464FF08041FFF7D3FE06E0C8
:10173000FB681B6818464FF40051FFF789FE002331
:10174000FB75FB681A68FB685B6893F82D301046E0
:101750001946FFF7AFFE01E00323FB75FB7D18463A
:101760001837BD4680BD00BF80B586B000AFF860B9
:10177000B9607A600423FB75FB689B683B61FB687A
:101780005B6893F82A30002B3ED10223FB753B693E
:101790005B7EDBB283F00103DBB2002B34D0BB688D
:1017A000002B2FD07B68002B2CD03B69BA685A6085
:1017B0003B697A681A613B6901225A763B690022CB
:1017C0005A61FB685B6893F82C30002B10D0FB68E3
:1017D0001B681846FFF700FFF868796800F030F9D9
:1017E000FB681B6818464FF0C041FFF7CFFE06E0CC
:1017F000FB681B6818464FF44041FFF729FE0023A1
:10180000FB7501E00323FB75FB7D18461837BD46C9
:1018100080BD00BF80B584B000AF78607B689B68F6
:10182000FB60FB68DA68FB689B689A4240D27B6881
:101830005B6893F82B30002B27D01AE0FB68DA683E
:10184000FB689B689A4212D27B681968FB681A6829
:10185000FB68DB6813441B789BB208461946FFF708
:10186000FFFBFB68DB685A1CFB68DA6001E000BF25
:1018700053E07B681B681846FFF760FE034683F061
:101880000103DBB2002BD9D147E07B681968FB6804
:101890001A68FB68DB6813441B789BB2084619463C
:1018A000FFF7DEFBFB68DB685A1CFB68DA6034E09C
:1018B0007B681B681846FFF755FE0346002B2CD0AB
:1018C0007B685B6893F82B30002B07D07B681B6824
:1018D00018464FF08041FFF70FFE06E07B681B685B
:1018E00018464FF40051FFF7C3FD00BF7B681B682B
:1018F0001846FFF7CFFD0346802BF7D0FB68002288
:101900001A76FB6800221A607B685B689B68002B74
:1019100003D07B685B689B6898471037BD4680BDE5
:1019200090B585B000AF78607B689B68FB607B6892
:101930005B6893F82C30002B4ED032E0FB685A697C
:10194000FB681B699A4211D2FB685A68FB685B69A5
:10195000D4187B681B681846FFF7A8FB0346DBB268
:101960002370FB685B695A1CFB685A61FB685A6903
:10197000FB681B699A4214D1FB6800225A767B6887
:101980001B6818464FF0C041FFF712FE7B685B688A
:10199000DB68002B04D07B685B68DB6898470BE052
:1019A0000AE07B681B681846FFF724FE034683F0B5
:1019B0000103DBB2002BC1D1FB685A69FB681B69CC
:1019C0009A423AD2FB681A69FB685B69D31A786855
:1019D000194600F035F830E0FB685A69FB681B696E
:1019E0009A4211D2FB685A68FB685B69D4187B681D
:1019F0001B681846FFF75AFB0346DBB22370FB68EF
:101A00005B695A1CFB685A61FB685A69FB681B6971
:101A10009A4212D1FB6800225A767B681B681846EE
:101A20004FF44041FFF724FD7B685B68DB68002BC7
:101A300003D07B685B68DB6898471437BD4690BD70
:101A400080B584B000AF786039600023FB607B68AC
:101A50005B6893F82C301A4601239340BB603A68C8
:101A6000BB689A4203D23B68013BFB6002E0BB6863
:101A7000013BFB607B681A687B685B6893F82C30DD
:101A800010461946FA68FFF739FC1037BD4680BD8D
:101A900080B400AF044BDB6803F4E0631B0A184614
:101AA000BD465DF8047B704700ED00E080B483B074
:101AB00000AF0346FB7197F90730002B0BDB084999
:101AC00097F907305B09FA7902F01F02012000FA4A
:101AD00002F241F823200C37BD465DF8047B7047C5
:101AE00000E100E080B483B000AF03463960FB71D1
:101AF00097F90730002B0ADB0D4997F907303A6850
:101B0000D2B29200D2B20B4483F800230AE0094912
:101B1000FB7903F00F03043B3A68D2B29200D2B2D1
:101B20000B441A760C37BD465DF8047B704700BF46
:101B300000E100E000ED00E080B489B000AFF860A3
:101B4000B9607A60FB6803F00703FB61FB69C3F1CE
:101B50000703062B28BF0623BB61FB690633062B50
:101B600002D9FB69013B00E000237B61BB690122D4
:101B700002FA03F35A1EBB681A407B699A407B69DC
:101B8000012101FA03F3591E7B680B4013431846E9
:101B90002437BD465DF8047B704700BF80B483B036
:101BA00000AF78600B46FB701346BB70F878FB788B
:101BB0007A6806339B0013445B6823F00702BB7806
:101BC0001A437968831D9B000B445A600C37BD464D
:101BD0005DF8047B704700BF80B483B000AF7860CD
:101BE0007B681B6C23F00F0343F002027B681A64CE
:101BF0000C37BD465DF8047B704700BF80B582B0EE
:101C000000AF0023FB712B482B49FFF7D3F929487C
:101C100000210322FFF7C2FF2648102104220123DE
:101C2000FFF71AFB2348002104220023FFF73CFBA7
:101C30002048FFF7D1FF21480E21214AFEF7B4FBCF
:101C40001C4810210222FFF77BFB1A4810210122B9
:101C5000FFF792FB174810210022FFF7ABFB154856
:101C600013210022FFF7A6FBFFF712FF03461846D9
:101C70000A210022FFF760FF03465B201946FFF7A9
:101C800031FF5B20FFF712FFFFF702FF0346184604
:101C900009210022FFF750FF03465A201946FFF79B
:101CA00021FF5A20FFF702FFFB7918460837BD468F
:101CB00080BD00BF00000248305800080082024882
:101CC0003C58000880B500AF0148FFF7A3FD80BD78
:101CD0000000002080B500AF0148FFF721FE80BD65
:101CE0000000002080B483B000AF78600B46FB702A
:101CF0007B68DA68FB78012101FA03F31A437B68F9
:101D0000DA600C37BD465DF8047B704780B483B061
:101D100000AF78607B689B6803F00103002B14BF61
:101D200001230023DBB218460C37BD465DF8047B67
:101D3000704700BF80B483B000AF78607B68012239
:101D4000DA600C37BD465DF8047B704780B483B021
:101D500000AF78607B6801221A610C37BD465DF8E0
:101D6000047B704780B483B000AF78607B68022248
:101D70001A610C37BD465DF8047B704780B483B0B0
:101D800000AF78600B467B807A887B685A630C379B
:101D9000BD465DF8047B704780B483B000AF7860C7
:101DA0000B467B807A887B68DA630C37BD465DF82A
:101DB000047B704780B483B000AF786039607B6883
:101DC0003A681A610C37BD465DF8047B704700BF66
:101DD00080B483B000AF78600B46FB707B68D3F8AB
:101DE000A420FB78012101FA03F31A437B68C3F8AE
:101DF000A4200C37BD465DF8047B704780B584B0E5
:101E000000AF78600023FB737B6893F8263083F083
:101E10000103DBB2002B09D07B6893F82130002B43
:101E200004D1786800F0F8F80346FB73FB7B184692
:101E30001037BD4680BD00BF80B584B000AF78606C
:101E40007B6893F82630002B0CD07B6893F8213008
:101E5000002B04D17B685B691846FFF76BFF0023FA
:101E6000FB7301E00123FB73FB7B18461037BD4673
:101E700080BD00BF80B584B000AF7860786800F0A6
:101E80001DF80346002B11D07B6893F82630002BF9
:101E90000CD07B6893F82130002B04D17B685B6900
:101EA0001846FFF753FF0023FB7301E00123FB7388
:101EB000FB7B18461037BD4680BD00BF80B584B09F
:101EC00000AF78600023FB737B6893F82130002B10
:101ED00006D17B685B691846FFF718FF0346FB7362
:101EE000FB7B18461037BD4680BD00BF00000000D8
:101EF000F0B587B000AF786039600123FB75786872
:101F0000FFF7DCFF034683F00103DBB2002B79D03F
:101F10007B689A683B689A4274D87B685A683B68C9
:101F20009A426FD300233B6102E03B6901333B617E
:101F30007B685B683A69C2F10F0223FA02F23B68E0
:101F40009A42F2D37B6893F82130002B5AD17B68F8
:101F50001B691B68FB607B68DA693B69DBB203F0D5
:101F60000F03D9B2137961F3030313713B68184669
:101F70004FF00001FB681A464FF0000302FB01FE20
:101F800000FB03F67644A0FB0223F1180B467968A8
:101F9000C9690979C1F30301C9B2C1F12006A1F1F0
:101FA000200022FA01F403FA06F6344323FA00F083
:101FB000044323FA01F52046294615A3D3E900235B
:101FC00003F03EF902460B4692B27B685A847B6866
:101FD0005B8C012B05D97B685B8C013B9AB27B68DB
:101FE0005A847B685A697B68DB691B79C3F30303F6
:101FF000DBB210461946FEF727FF786800F058F864
:102000000023FB75FB7D18461C37BD46F0BD00BFA5
:1020100000E1F5050000000080B584B000AF7860F5
:102020007B681B69184600F02BF90346FB737B683D
:102030001B699A687B681B7E10461946FFF752FEA3
:102040007B685A697B68DB6910461946FEF7C6FE55
:10205000786800F02DF87B6893F82530002B0FD0BE
:102060007B685A697B6893F82030104600211A4635
:10207000FEF708FF7B685B6918460021FFF7A8FEA2
:102080007B685B691846FFF76DFE7B68012283F869
:1020900026207B6893F82430002B04D07B685B6992
:1020A0001846FFF747FEFB7B18461037BD4680BD3C
:1020B00080B582B000AF78607B685A697B685B8CC2
:1020C00010461946FFF75AFE7B685B6918460021E7
:1020D000FFF762FE7B681B699A687B68DB681046C5
:1020E0001946FFF767FE0837BD4680BD80B400AFD4
:1020F000044BDB6803F4E0631B0A1846BD465DF839
:10210000047B704700ED00E080B483B000AF03466D
:10211000FB7197F90730002B0BDB084997F9073063
:102120005B09FA7902F01F02012000FA02F241F87D
:1021300023200C37BD465DF8047B704700E100E0CA
:1021400080B483B000AF03463960FB7197F9073064
:10215000002B0ADB0D4997F907303A68D2B292009A
:10216000D2B20B4483F800230AE00949FB7903F05B
:102170000F03043B3A68D2B29200D2B20B441A76F3
:102180000C37BD465DF8047B704700BF00E100E0FE
:1021900000ED00E080B489B000AFF860B9607A600B
:1021A000FB6803F00703FB61FB69C3F10703062B20
:1021B00028BF0623BB61FB690633062B02D9FB69E6
:1021C000013B00E000237B61BB69012202FA03F3BB
:1021D0005A1EBB681A407B699A407B69012101FA4B
:1021E00003F3591E7B680B40134318462437BD4642
:1021F0005DF8047B704700BF80B582B000AF7860A7
:102200007B681B785BB21846FFF77EFF0837BD4638
:1022100080BD00BF90B583B000AF78607B681C784C
:10222000FFF764FF01467B685B781A467B689B7802
:10223000084611461A46FFF7ADFF024663B218463C
:102240001146FFF77DFF7B68DB78002B02D07868B2
:10225000FFF7D2FF002318460C37BD4690BD00BFE4
:1022600080B483B000AF78607B68DB6843F4807231
:102270007B68DA600C37BD465DF8047B704700BFB1
:1022800080B582B000AF78607B685B7B83F0010330
:10229000DBB2002B0FD07B689A687B681B7B1046F3
:1022A0001946FEF77DFD7B689B681846FFF7D8FF4F
:1022B0007B6801225A73002318460837BD4680BD4B
:1022C00080B582B000AF78607B6819687B681A7C43
:1022D0007B680433084611461A46FEF765F87B68AA
:1022E00019687B681A7C7B685B7C084611461A4635
:1022F000FEF720FE002318460837BD4680BD00BF0C
:1023000080B485B000AF78607B6803F00703FB60A2
:102310000C4BDB68BB60BA684FF6FF031340BB6031
:10232000FB681A02BB68134343F0BF6343F40033F6
:10233000BB60044ABB68D3601437BD465DF8047BBC
:10234000704700BF00ED00E080B582B000AF012013
:10235000FFF7D6FF72B6214B214A9A60BFF34F8F29
:1023600062B61E4A1D4BD3F8883043F47003C2F89E
:1023700088301C4B03F5805314331B687B607B68EB
:1023800023F00F037B607B6843F003037B60154BF6
:1023900003F5805314337A681A60104A0F4B5B6957
:1023A00023F0100353610D4A0C4B5B6923F00803C3
:1023B00053610A4A094B5B6A23F480335362074A2C
:1023C000064B5B6A23F400335362044A034B5B6A97
:1023D00023F4802353620837BD4680BD00ED00E042
:1023E000000000080010005880B485B000AF78608D
:1023F0000023FB737B6801221A70FB7B184614379D
:10240000BD465DF8047B704780B400AF024B1846B0
:10241000BD465DF8047B7047001BB700B0B586B0C1
:1024200000AF124B3C1D1D460FCD0FC42B6823601F
:102430003B1D1846FEF792F80020FEF78DF90020AC
:10244000FEF742F90420FEF713FA01202021FEF7DF
:102450005BFA0020FEF74CF90120FEF731FA01206B
:10246000FEF71AFA1837BD46B0BD00BF9C580008E9
:1024700080B582B000AF0023FB711548FFF7B4FFB1
:102480000346FB71FB79002B04D11248FFF7C6F815
:102490000346FB71FB79002B04D10F48FFF710FFB7
:1024A0000346FB71FB79002B04D10C48FFF7A6FC17
:1024B0000346FB71FB79002B04D10948FFF7AAFE04
:1024C0000346FB71FB7918460837BD4680BD00BF47
:1024D000E400002000000020885800080C000020C4
:1024E0008458000880B483B000AF78600B46FB705E
:1024F000FB784FF001129A407B685A600C37BD465A
:102500005DF8047B704700BF80B483B000AF786093
:102510007B689B681B7EDBB218460C37BD465DF8B6
:10252000047B704780B582B000AF78607B681A6822
:102530007B681B7C10461946FFF7D4FF0837BD4661
:1025400080BD00BF80B582B000AF78607B68642238
:1025500002FB03F37B600A4B01221A700948796879
:10256000FFF7C6FC0748FFF767FC00BF044B1B786A
:10257000002BFBD10348FFF77DFC0837BD4680BD2B
:10258000590000200C00002080B483B000AF284B1D
:10259000CC221A70274B10221A71264B11225A7125
:1025A0000023FB7128E0FB79224A5B0013440022E0
:1025B000DA80FB791F4A02339B00134400225A60E1
:1025C000FB791C4A04339B0013444FF000025A600D
:1025D000FB79184A06339B0013444FF000025A60FF
:1025E000FB79144A134400229A70FB79114A0021A6
:1025F000D154FB790133FB71FB79012BD3D90D4BFE
:1026000040F226229A840B4B4FF41672DA84094B5F
:102610004FF000025A63074B074A9A63054B0022AA
:1026200083F85C200C37BD465DF8047B704700BF23
:102630005C010020F00000200000484380B400AF9F
:10264000034B00221A70BD465DF8047B704700BF43
:102650005900002080B58AB000AF78607B685B6B62
:102660007B627B689B6B3B626E4BD3ED007AB0EE76
:10267000007A87EE877AD7ED097A37EE677A694B69
:10268000D3ED007AF0EE006AC7EEA66AD7ED097ABC
:1026900076EEE77A27EE277AD7ED086AD7ED087A43
:1026A00066EEA77A77EE277A17EE900A00F0F2FE30
:1026B000F8615C4BD3ED007AB0EE007A87EE877A52
:1026C000D7ED097A37EE277A564BD3ED007AF0EE44
:1026D000006AC7EEA66AD7ED097A76EEA77A27EEEA
:1026E000277AD7ED086AD7ED087A66EEA77A77EEF3
:1026F000277A17EE900A00F0CDFEB8614A4B93EDB1
:10270000007A494BD3ED007A27EE277AD7ED076A96
:10271000D7ED077A66EEA77A37EE277A434BD3EDEB
:10272000006A424BD3ED007A66EEA77A37EE677AFD
:102730003D4BD3ED007A77EEA76AD7ED077A66EEC8
:10274000A77AC7EE277AC7ED057A786900F0FCFD15
:102750007861354B93ED007A334BD3ED007A27EE59
:10276000277AD7ED066AD7ED067A66EEA77A37EEB6
:10277000277A2E4BD3ED006A2C4BD3ED007A66EE10
:10278000A77A37EE677A284BD3ED007A77EEA76AFF
:10279000D7ED067A66EEA77AC7EE277AC7ED047AF8
:1027A000386900F0D1FD38611E4BD3ED007AB0EEF0
:1027B000007A87EE877AD7ED097A37EE677AD7ED18
:1027C000077AC7EE277A17EE900A00F00FFEF8603E
:1027D000144BD3ED007AB0EE007A87EE877AD7ED0E
:1027E000097A37EE277AD7ED067AC7EE277A17EE01
:1027F000900A00F0FBFDB86097ED057AD7ED037AFB
:1028000077EE677A7B68C3ED0F7A97ED047AD7EDA0
:10281000027A77EE677A7B68C3ED107A2837BD4677
:1028200080BD00BF50000020480000204C00002068
:1028300080B52DED028B98B000AF78607B68DB6BC4
:10284000184600F033FD08EE100A7B681B6C184632
:1028500000F02CFD07EE900A38EE277AD94BD3ED25
:10286000007A27EE277AD84BD3ED007A77EE277AD5
:10287000C7ED177A7B681B6C184600F0D1FC08EE98
:10288000100A7B68DB6B184600F0CAFC07EE900A62
:1028900038EE677ACB4BD3ED007A67EE277AC7ED37
:1028A000167A97ED177AD7ED177A27EE277AD7EDB4
:1028B000166AD7ED167A66EEA77A77EE277A17EEC4
:1028C000900A00F0E7FD7865B86DF96D00F0E0FD65
:1028D0003865BE4BD3ED007A77EEA77A97ED157A7F
:1028E000C7EE277A17EE900A00F080FDF864B84B27
:1028F000D3ED007AB0EE007A87EE877AD7ED137ABF
:1029000077EE677AC7ED127A97ED127AD7ED147ADF
:1029100077EE277AC7ED117AAB4BD3ED007AB0EEA4
:10292000007AC7EE877AB1EE678A7B68DB6B184660
:1029300000F0BCFC07EE100AA24BD3ED007A67EE64
:10294000277A38EE678A786C00F06AFC07EE100A86
:102950009E4BD3ED007A67EE277A78EE277AC7EDA3
:10296000107A7B68DB6B184600F05AFC07EE100A01
:10297000944BD3ED007A27EE278A786C00F096FC12
:1029800007EE100A914BD3ED007A67EE277A78EEC6
:10299000277AC7ED0F7A7B68DB6B184600F040FCA6
:1029A00007EE100AD7ED177A27EE278A7B68DB6BD4
:1029B000184600F07BFC07EE100AD7ED167A67EE9A
:1029C000277A78EE277AC7ED0E7A97ED177AD7ED4A
:1029D000177A27EE277AD7ED166AD7ED167A66EEC4
:1029E000A77A37EE277A794BD3ED007AF1EE006AB9
:1029F00067EEA66A754BD3ED007A66EEA76A97ED8F
:102A0000156AD7ED157A66EE277A76EEE77A67EEE5
:102A1000277A17EE900A00F03DFD78637B68DB6B48
:102A2000184600F043FC07EE100AD7ED177A27EEA0
:102A3000278A7B68DB6B184600F0F2FB07EE100A72
:102A4000D7ED167A67EE277A78EE677AC7ED0C7ABB
:102A500097ED177AD7ED177A27EE277AD7ED166A12
:102A6000D7ED167A66EEA77A77EE277AC7ED0B7A5E
:102A70007B681B6C184600F0D3FB07EE100AD7EDFD
:102A8000177A27EE278A7B681B6C184600F00EFC2D
:102A900007EE100AD7ED167A67EE277A78EE677A96
:102AA000C7ED0A7A7B681B6C184600F0FFFB07EE47
:102AB000100AD7ED177A27EE278A7B681B6C184619
:102AC00000F0AEFB07EE100AD7ED167A67EE277A14
:102AD00078EE277AC7ED097A3A4BD3ED007AB1EE5A
:102AE000677A3A4BD3ED007A27EE278A786C00F0AC
:102AF000DDFB07EE900A28EE277AD7ED0C6AD7EDBA
:102B00000B7AC6EEA76A97ED0E6AD7ED0D7AC6EE80
:102B1000277A76EEE77A27EE278A7B68DB6B184602
:102B200000F07EFB07EE100A264BD3ED007A67EE2D
:102B3000277A78EE677AC7ED087A224BD3ED007AD0
:102B4000B1EE678A7B68DB6B184600F069FB07EE25
:102B5000900A28EE278A1B4B93ED007A1B4BD3ED8E
:102B6000007A67EE278A786C00F05AFB07EE900A2D
:102B700028EEA77AD7ED0C6AD7ED0B7AC6EEA76AD6
:102B800097ED0E6AD7ED0D7AC6EE277A76EEE77AE4
:102B900067EE277A78EE277AC7ED077A094BD3EDEF
:102BA000007AB1EE677A094BD3ED007A27EE278AD7
:102BB000786C00F07BFB07EE900A28EE277AD7EDC1
:102BC000096A07E048000020500000204C00002067
:102BD00044000020D7ED0B7AC6EEA76A97ED0A6A8B
:102BE000D7ED0D7AC6EE277A76EEE77A67EE277A8A
:102BF000C7ED067A354B93ED007A354BD3ED007A6D
:102C000027EE278A786C00F051FB07EE900A28EE39
:102C1000277AD7ED096AD7ED0B7AC6EEA76A97ED4A
:102C20000A6AD7ED0D7AC6EE277A76EEE77A67EE76
:102C3000277AC7ED057A97ED087AD7ED057A27EE62
:102C4000277AD7ED076AD7ED067A66EEA77A77EE90
:102C5000677AC7ED047A7B6893ED157AD7ED057A2C
:102C600027EE277A7B68D3ED166AD7ED077A66EEF2
:102C7000A77A77EE677AC7ED037A7B6893ED167AC9
:102C8000D7ED087A27EE277A7B68D3ED156AD7ED62
:102C9000067A66EEA77A77EE677AC7ED027A97ED45
:102CA000037AD7ED047AC7EE277A7B68C3ED137AEF
:102CB00097ED027AD7ED047AC7EE277A7B68C3EDE9
:102CC000147A6037BD46BDEC028B80BD4800002001
:102CD0004C00002080B483B000AF78607B685A6CF1
:102CE0007B685A617B689A6C7B689A617B68DB6859
:102CF00007EE903AB8EEE77A424BD3ED007A67EEF2
:102D0000277A9FED417AC7EE877A7B68C3ED117A07
:102D10007B681B6907EE903AB8EEE77A394BD3ED42
:102D2000007A67EE277A9FED387AC7EE877A7B685C
:102D3000C3ED127A7B68D3ED077A9FED347A27EEE4
:102D4000877A7B68D3ED116A7B68D3ED057A76EEDE
:102D5000E76A2F4BD3ED007AC6EEA77ADFED2D6A36
:102D600067EEA67A77EE277A7B68C3ED077A7B68F1
:102D7000D3ED077A9FED257A27EE877A7B68D3ED2E
:102D8000126A7B68D3ED067A76EEE76A204BD3EDC4
:102D9000007AC6EEA77ADFED1F6A67EEA67A77EEB5
:102DA000277A7B68C3ED087A7B68D3ED0F7A9FEDB5
:102DB000167A27EE877A134BD3ED007AC7EE277A7F
:102DC000FCEEE77AC7ED007A3B889AB27B681A86F8
:102DD0007B68D3ED107A9FED0C7A27EE877A094B4A
:102DE000D3ED007AC7EE277AFCEEE77AC7ED007ADA
:102DF0003B889AB27B685A860C37BD465DF8047BE7
:102E0000704700BF4400002000FEFF46CDCCCC3E02
:102E1000540000209A99193F80B584B000AF034652
:102E2000FB71FB790A2B1BD10023FB7314E0FB7BA6
:102E30001033DAB2164B5A70154BA1229A70144B0C
:102E4000DD22DA70042000F035F940F24C40FFF743
:102E500079FBFB7B0133FB73FB7B072BE7D904E09A
:102E6000FB791033DAB20A4B5A70094BA1229A70DF
:102E7000074BDD22DA70042000F01CF940F24C40D0
:102E8000FFF760FB002318461037BD4680BD00BF2A
:102E90005C01002080B500AF1A4B1B78CC2B07D10A
:102EA000184B1A78184B1A70184B01221A7023E02D
:102EB000144B1B78DD2B0ED1144B1B780133124AB7
:102EC000DD21D154114B1B780133DAB20F4B1A704C
:102ED00000F026F810E00D4B1B78082B0CD80B4B9C
:102EE0001B781A46074B1978074B9954074B1B78E8
:102EF0000133DAB2054B1A70054802490122FEF788
:102F0000BBFB80BDEC00002050010020ED00002044
:102F10000000002080B400AFBD465DF8047B704720
:102F200080B483B000AF294B1B78CC2B49D1274B01
:102F30005A78274B1B789A4243D1244B9B78103BFD
:102F4000FB71224BDB78A12B07D1FB791F4A11794A
:102F5000204A13440A469A7033E01C4BDB78A32BBB
:102F60000CD1FB79194A11791A4A13440A469A700E
:102F7000FB79164A5179174AD15422E0FB79134A5A
:102F8000D278120291B2114A127992B20A4391B2E6
:102F9000104A5B0013440A46DA80FB790B4A5279E7
:102FA00011060A4A927912041143084AD279120290
:102FB0000A430649097A0A43064902339B000B4437
:102FC0005A600C37BD465DF8047B70475001002005
:102FD00058000020F000002080B582B000AF78607B
:102FE0007B681A79324B5A707B681B8E1B0A9BB226
:102FF000DAB22F4B9A707B681B8EDAB22C4BDA70E8
:103000007B689B8C1B0A9BB2DAB2294B1A717B68D6
:103010009B8CDAB2264B5A717B68DB8C1B0A9BB205
:10302000DAB2234B9A717B68DB8CDAB2204BDA710F
:103030001F4BDD221A72092000F03CF840F24C4090
:10304000FFF780FA7B685A79194B5A707B685B8E60
:103050001B0A9BB2DAB2164B9A707B685B8EDAB2AF
:10306000134BDA707B689B8C1B0A9BB2DAB2104B55
:103070001A717B689B8CDAB20D4B5A717B68DB8CC2
:103080001B0A9BB2DAB20A4B9A717B68DB8CDAB20C
:10309000074BDA71064BDD221A72092000F00AF89C
:1030A00040F24C40FFF74EFA0837BD4680BD00BFE6
:1030B0005C01002080B582B000AF0346FB71FB7954
:1030C00009480A491A46FEF7BBFA00BF0648FFF74F
:1030D0001BFA0346002BF9D1034805490122FEF7EC
:1030E000CBFA0837BD4680BD000000205C010020FF
:1030F000EC00002080B485B000AF0346FB804FF0A9
:103100000003FB60FB8845F2EF5293420FD8FB8827
:1031100007EE903AF8EEE77A9FED107A67EE877A3D
:103120009FED0F7A77EE877AC7ED037A0EE0FB8882
:1031300007EE903AF8EEE77A9FED0A7A67EE877A23
:103140009FED097A77EE877AC7ED037AFB68184618
:103150001437BD465DF8047B704700BFF7065F3D3E
:1031600098A64E4230F5F33C4403134480B582B038
:1031700000AFFFF77DF90346FB7106E04CF25030DB
:10318000FFF7E0F92148FFF7CDF9FB79012BF5D0E6
:103190001F48FFF7D7F9FFF7F7F90A20FFF73CFEC2
:1031A0001C48FFF757FA1B48FFF794FD1948FFF733
:1031B00013FF184BDB889BB21846FFF79BFF0346B3
:1031C00007EE903AF1EE677A124BC3ED157A114B88
:1031D0001B899BB21846FFF78DFF02460D4B9A657F
:1031E0000C48FFF725FB0C4B93ED007A0B4BD3ED0E
:1031F000007A77EE277A084BC3ED007A0348FFF791
:1032000091F947F23050FFF79DF9C9E78858000857
:1032100090D00300F0000020E800002054000020BF
:1032200000B585B0204A0190019B23F000439342F2
:103230001DDDB3F1FF4F08DBDDED017A77EEE77AB4
:1032400017EE900A05B05DF804FB02A900F06CFCD3
:1032500000F00302012A0298039919D0022A10D023
:10326000EAB1012201F0A0F907EE900AE8E7002197
:1032700000F0FCFD07EE900A17EE900A05B05DF82D
:1032800004FB00F0F3FD07EE900AF1EE677AD7E752
:1032900001F08AF907EE900AF1EE677AD0E700F0C4
:1032A000E5FD07EE900ACBE7D80F493F00B585B0A2
:1032B000244A0190019B23F0004393421EDDB3F1A9
:1032C000FF4F08DBDDED017A77EEE77A17EE900A23
:1032D00005B05DF804FB02A900F026FC00F0030035
:1032E000012820D0022814D020B30298039900F0BE
:1032F000BDFD07EE900AF1EE677AE7E700210022B4
:1033000001F052F907EE900A17EE900A05B05DF849
:1033100004FB02980399012201F046F907EE900A96
:10332000F1EE677AD2E70298039900F09FFD07EE6D
:10333000900ACBE702980399012201F035F907EED4
:10334000900AC3E7D80F493F70B5254D8AB00646AD
:1033500000F0F8F895F900300133044603D0304608
:1033600001F0B4FA10B920460AB070BD304601F041
:103370004FFA07EE100AF7EE007AB4EEE77AF1EEB4
:1033800010FAF0DD0123174A009330460023019222
:10339000089301F09FFC02460B461348CDE9042335
:1033A000CDE9022301F050F995F90030022BCDE967
:1033B00006010BD0684601F045F938B1089B53B9B6
:1033C000DDE9060101F0ECFE0AB070BD02F004FA7E
:1033D00021230360F2E702F0FFF9089B0360EFE7A7
:1033E0005A000020B0580008B858000870B5254DA4
:1033F0008AB0064600F0D0F995F900300133044652
:1034000003D0304601F062FA10B920460AB070BD10
:10341000304601F0FDF907EE100AF7EE007AB4EE3F
:10342000E77AF1EE10FAF0DD0123174A00933046F7
:1034300000230192089301F04DFC02460B4613480D
:10344000CDE90423CDE9022301F0FEF895F900301F
:10345000022BCDE906010BD0684601F0F3F838B134
:10346000089B53B9DDE9060101F09AFE0AB070BD70
:1034700002F0B2F921230360F2E702F0ADF9089BF4
:103480000360EFE75A000020BC580008B858000855
:1034900000F08CBA30B52DED028B284D8BB008EEC4
:1034A000100A00F08DFC95F900300133044609D074
:1034B00018EE100A01F00AFA20B1B5EEC08AF1EE5A
:1034C00010FA04D420460BB0BDEC028B30BD0123B2
:1034D0001B4A009318EE100A00230192089301F092
:1034E000F9FB2C78CDE90401CDE902018CB9002269
:1034F0000023CDE90623684601F0A4F898B1089BA3
:10350000B3B9DDE9060101F04BFE0BB0BDEC028B57
:1035100030BD0020002102460B4601F059FD022C6F
:10352000CDE90601E7D102F057F921230360E6E770
:1035300002F052F9089B0360E3E700BF5A00002045
:10354000C458000808B520F00043B3F17E5F2DEDAC
:10355000028B07EE900A16D00CDCB3F17C5F1FDA09
:10356000B3F10C5F70DCBDEC028BDFED7A7A17EE05
:10357000900A08BD77EEE77AC7EEA77ABDEC028B1A
:1035800017EE900A08BDBDEC028BDFED737A9FED5C
:10359000737A0028D8BFF0EE477A17EE900A08BD7C
:1035A0000028C0F28E80F7EE008A78EEE77AB6EE59
:1035B000008A27EE888A18EE100A00F001FC9FEDC1
:1035C000687A9FED683A9FED684ADFED682ADFED83
:1035D000683A9FED685ADFED684ADFED686ADFED13
:1035E000685ADFED687AA8EE073A20F47F6323F08B
:1035F0000F03E8EE223AA3EE084AE3EE884AA4EE6F
:10360000085AE4EE885AE5EE086A07EE103AE6EE4C
:10361000887AF0EE486A06EE100AE5EE888AE7EE50
:10362000476A67EE887A76EE075A87EEA88AC6EE72
:10363000A57AE8EE067ABDEC028B77EE277A77EE74
:10364000A77A17EE900A08BD27EEA77A9FED441AD5
:10365000DFED442ADFED443ADFED441A9FED443AB2
:10366000DFED445A9FED444ADFED444A9FED445A52
:10367000DFED446A9FED446A9FED442AE7EE012A9C
:10368000BDEC028BE2EE873AA7EE213AE3EE875AD1
:10369000A3EE074AE5EE874AA4EE075AE4EE876AEE
:1036A000F7EE005AE5EE075A26EE877A87EE257A7E
:1036B000A7EEC76A77EEC67A72EE677A17EE900ABF
:1036C00008BDB7EE008A77EE887AB6EE007A67EE2C
:1036D000877ADFED232ADFED233A9FED243ADFEDF1
:1036E000224A9FED234ADFED235A9FED235ADFED57
:1036F000236A9FED236A9FED237AE7EEA23AA7EEB5
:10370000834AE3EEA74AA4EE275AE4EEA75AA5EEB1
:10371000276AE5EEA76AA6EE278AA6EEA77AF0EE5C
:10372000488A27EE278A17EE900A00F049FB88EEB8
:10373000288A06EE900A9FED167ADFED167AA8EE3B
:10374000267A06EE100A37EE067AF0EE006AE7EE09
:10375000667A13E7DB0FC93F00000000DB0F49402A
:1037600008EF1138047F4F3A461124BD2EC69D3D07
:10377000613330BFA80A4E3E2D57014090B0A6BE1F
:1037800039D119C0ABAA2A3E6821A233DA0FC93F4A
:103790006821A2B3DA0F494038B520F00044B4F1F3
:1037A0007E5F2DED048B07EE900A054600F09980B0
:1037B0007FDCB4F17C5F0EDAB4F1485F80F2A08068
:1037C0009FED6A7A37EE877AF7EE006AB4EEE67A12
:1037D000F1EE10FA71DC17EE900A01F019F807EE1D
:1037E000900AF7EE008A38EEE78AF6EE007A28EEC5
:1037F000278A9FED5F3A9FED5F4ADFED5F3A9FEDCD
:103800005F5ADFED5F4A9FED5F6ADFED5F5ADFEDE4
:103810005F6A9FED5F7ADFED5F7AA8EE034AE8EE1C
:10382000234AA4EE085AE4EE885AA5EE086AA5EEEB
:10383000887AE6EE086AE7EE088AE6EE887A18EEFD
:10384000100AB0EE689A67EE888A00F0B9FA524B17
:103850009C4206EE900A35DC20F47F6323F00F03D0
:1038600007EE903AF1EE675AA5EEA78A76EEA77AB0
:10387000C8EE898A88EE278ADFED487A9FED487A7C
:10388000B0EE006AE8EE467A76EEA66AB0EE475AE7
:10389000A5EE865AD6EEA87A77EEC57A77EE677AE5
:1038A000BDEC048B002DD8BFF1EE677A17EE900ABD
:1038B00038BD77EEE77AC7EEA77ABDEC048B17EE3A
:1038C000900A38BDC8EE898ADFED367A9FED367AE8
:1038D000E6EEA86AB0EE006AE6EE867A77EE677AE0
:1038E000DEE79FED2E7ADFED306A27EE877ABDECBA
:1038F000048BA7EEA67AF0EE477A17EE900A38BD51
:1039000027EEA77A9FED1A2A9FED1A3A9FED1B4AE0
:10391000DFED192ADFED1A3A9FED1A6ADFED1A4A38
:103920009FED1A5ADFED1A5ADFED1A6AA7EE023A36
:10393000BDEC048BA3EE074AE7EE223AA4EE076A39
:10394000E3EE874AA6EE075AE4EE875AE5EE076AE9
:10395000B7EE006AA5EE876A26EE877A87EE067ACA
:10396000E7EE877A17EE900A38BD00BFCAF24971B8
:1039700008EF1138047F4F3A2EC69D3D461124BDF5
:10398000613330BFA80A4E3E2D57014090B0A6BE0D
:1039900039D119C0ABAA2A3E9999793F2EBD3BB3C4
:1039A000DB0F493F2EBD3B33DB0FC93F30B583B042
:1039B00007EE900A0191019B23F00042B2F1FF4F04
:1039C0001ADC20F00041B1F1FF4F054614DCB3F1E1
:1039D0007E5F53D09C1704F0020444EAD07499B976
:1039E000022C48D09FED457A032C08BFF0EE477AB1
:1039F00017EE900A03B030BD9DED017A77EE277A7D
:103A000017EE900A03B030BD32B3B2F1FF4F3AD097
:103A1000B1F1FF4F20D08A1AD2153C2A28DC002BA6
:103A200051DB9DED017AC7EE877A17EE900A00F020
:103A3000EFFE00F00FFE07EE900A012C3CD0022CA6
:103A400031D0002CDCD0DFED2E6A9FED2E7A77EEA0
:103A5000A67A77EEC77AD3E79FED2B7ADFED2B7A44
:103A6000002DB8BFF0EE477A17EE900A03B030BDD4
:103A7000DFED267AE1E7DFED237AC1E703B0BDE8A9
:103A8000304000F0E7BDB1F1FF4F21D0022CF2D061
:103A9000032C2AD0DFED1E7A9FED1E7A012C18BF71
:103AA000F0EE477AACE7DFED166A9FED167A77EE17
:103AB000A67A77EE677AA3E717EE903A03F1004310
:103AC00007EE903A9CE73C32ABDADFED127AB4E7CE
:103AD000022C10D0032C0BD0DFED0F7A9FED0F7A64
:103AE000012C18BFF0EE477A8AE7DFED047A87E70A
:103AF000DFED0B7A84E7DFED0B7A81E7DB0F49C05E
:103B00002EBDBB33DB0F4940DB0FC9BFDB0FC93F05
:103B10000000008000000000DB0F49BFDB0F493FC1
:103B2000E4CB16C0E4CB164070B5974A20F00044B1
:103B3000944286B006460D4668DD944A94421CDCE9
:103B40000028DFED937A934A24F00F0407EE100A61
:103B500040F3E280944277EE677A67D09FED8E7AE9
:103B600077EEC76A012077EEE67AC1ED006A77EE5C
:103B7000C77AC1ED017A06B070BD884A944267DD0C
:103B8000B4F1FF4F48DAE215863AA4EBC25307EED0
:103B9000103AFDEEC76ADFED827AF8EEE66A37EE9C
:103BA000667ACDED036A27EE277AFDEEC76AF8EE56
:103BB000E66A37EE667ACDED046A67EE277AF5EEAF
:103BC000407AF1EE10FACDED057A40F0B880F5EECE
:103BD000406AF1EE10FA14BF02230123714902205A
:103BE0008DE8030003A8294600F0CAF9002E11DA77
:103BF00095ED007AD5ED017AB1EE477AF1EE677A6C
:103C0000404285ED007AC5ED017A03E0002228608C
:103C10004A60002006B070BD07EE900A77EEE77AA2
:103C20000020C1ED017AC1ED007AF3E7DFED5E6AB5
:103C30009FED5E7A77EEE67A012077EEC76A77EE3F
:103C4000E67AC1ED006A77EEC77AC1ED017AE1E765
:103C500000F0DEFD9FED566A9FED4D5ADFED4E6A96
:103C600007EE100AF6EE007AE7EE067AFDEEE77A46
:103C7000B8EEE76A17EE900AF1EE465AF0EE477A90
:103C80001F28E5EE857A26EE267A1DDC494A411E7C
:103C900024F0FF0352F82120934215D077EEC76A33
:103CA000C5ED006A77EEE67A002E77EEC77AC5EDAD
:103CB000017AAFDAF1EE666AF1EE677AC5ED006A75
:103CC000C5ED017A4042A5E777EEC76AE41516EE26
:103CD000903AC3F3C753E31A082BE1DD9FED327A24
:103CE000DFED326AB0EE675AA5EE875A77EEC57AF5
:103CF000E5EE877AD6EE267A75EE676AB0EE677AD9
:103D000016EE903AC3F3C753E41A192C2CDCC5ED18
:103D1000006AF0EE457AC5E7944277EE277A10D034
:103D20009FED1D7A77EE876A4FF0FF3077EEE67AE7
:103D3000C1ED006A77EE877AC1ED017A6AE7032365
:103D40004CE7DFED196A9FED197A77EEA67A4FF00E
:103D5000FF3077EE876A77EEE67AC1ED006A77EE9C
:103D6000877AC1ED017A55E7DFED136ADFED134A7B
:103D7000F0EE457AE5EEA67A35EE677AA5EEA67AFC
:103D800096EE247A8AE700BFD80F493FE3CB16406E
:103D9000800FC93FD00FC93F43443537800F494397
:103DA000000080434C5900080044353708A3852E95
:103DB00084F9223FCC58000800A3852E32318D248F
:103DC00020F00042B2F1FF4F70B407EE900A0346B4
:103DD00032D26AB3002841DBB2F5000F4FEAE0515E
:103DE00030D3A1F17F02C3F31603D10743F40003DC
:103DF00048BF5B00002456105B00254619214FF098
:103E00008072A818984202DC1B1A851814440139E4
:103E10004FEA43034FEA5202F3D113B104F0010316
:103E20001C44641004F17C5404EBC65307EE903A32
:103E300017EE900A70BC7047E7EEA77A70BC17EED9
:103E4000900A704710F400020DD15B00180202F1D5
:103E50000102FAD5C2F101021144C2E777EEE77A16
:103E6000C7EEA77AE4E701221144BAE720F0004345
:103E7000B3F1485F06EE100A06EE901A2EDAFDEE58
:103E8000C67A17EE903A002B64D026EE067ADFED64
:103E9000343A9FED344ADFED344A9FED345ADFED7A
:103EA000347ADFED345AA7EE234AE4EE074AA4EE53
:103EB000875AE5EE077AE7EE875A65EE875A66EE8F
:103EC000C66AB6EE006AE7EE256AF7EE007AD7EE2C
:103ED000066A77EEE67A17EE900A704726EE067AC3
:103EE000DFED1F3A9FED1F4ADFED1F4A9FED1F5A7E
:103EF000DFED1F7ADFED1F5A1F4AA7EE234A9342D8
:103F0000E4EE074AA4EE875AE5EE077AE7EE875A11
:103F100065EE875AD3DD194A934216DC03F17F43DD
:103F200007EE903AB7EE005A35EE675A66EEC66A6B
:103F3000B6EE006AE7EE256AD7EE067A77EEE67A05
:103F400075EE677A17EE900A7047B6EE075AF5EEEF
:103F5000027AEBE7F7EE007A17EE900A704700BF9F
:103F60004ED747ADF6740F317CF293B4010DD037C4
:103F7000610BB6BAABAA2A3D9999993E0000483F19
:103F80002DE9F04F2DED048BD7B05E1EA54C649D3E
:103F90000293D31E48BF131D54F825500191DB1026
:103FA00023EAE3736FEA030A71190393814602EB74
:103FB000CA0AA3EB060314D41944659801311AAA5E
:103FC000002BAABF50F82340DFED977A07EE904A06
:103FD00003F10103A8BFF8EEE77A8B42E2EC017A25
:103FE000EED1002D1ADB029B1AA96C1C01EB840494
:103FF00042A89F00002EC0F2CE81DFED8B7A4A46A8
:10400000CB1933ED017AF2EC016A9942E6EE877A38
:10401000F7D10431A142E0EC017AEBD1029ADFED55
:10402000848A9FED828A05F18043013B9B00C2EBAD
:10403000827806AA1F1D1344174404934FEA880888
:104040002C464FEA840B56AB5B44002C53ED146AAC
:1040500019DD42A901EB0B0305AA66EEA87AB0EEC2
:10406000667AFDEEE77A33ED016AF8EEE77A8B4285
:10407000A7EEC87A77EE866ABDEEC77A17EE100A09
:1040800042F8040FE9D116EE900A514600F038FCD0
:1040900009EE100AF4EE007A69EE277A17EE900A1C
:1040A00000F0BAFB07EE100AF2EE007AA7EE679A6C
:1040B000BAF1000FFDEEC99AF8EEE97A39EE679A87
:1040C00040F34D81611E06AACAF1080352F821008F
:1040D00040FA03F202FA03F30DF1180EC31A4EF878
:1040E000213019EE901A1144CAF1070009EE901A16
:1040F00043FA00FCBCF1000F37DD19EE903A002CBA
:1041000003F1010309EE903A40F3DE8100221046EC
:1041100005A908E0C3F5807E13B1C1F800E00120D5
:10412000013294420BDD51F8043F0028F2D00132F5
:10413000C3F1FF0394420B604FF00100F3DCBAF1CE
:10414000000F0FDDBAF1010F00F01181BAF1020F7B
:1041500008D1621E06AB06A953F8223003F03F03D4
:1041600041F82230BCF1020F64D0B5EE409AF1EE76
:1041700010FA77D1631E9D420BDC06AA93440022FD
:104180005BF8041DBB4542EA0102F9D1002A40F068
:1041900085816B1E06AA52F82330002B40F09181D6
:1041A000049B4FF0010C53F8042D0CF1010C002A74
:1041B000F9D0A444631C634531DC039A03EB020E7F
:1041C000029A0EF1804EA0180CEB020B659A0EF1CC
:1041D000FF3E02EB8E0E1AAA02EB800002EB8B0B65
:1041E00042AA02EB83045EF8043F07EE903AF8EE31
:1041F000E77A002EE0EC017ADFED0B7A0BDB4A4622
:1042000000EB0801034633ED017AF2EC016A8B42C0
:10421000E6EE877AF7D15845E4EC017AE3D16446BB
:104220000FE700BF645C000800000000000080434E
:104230000000803BF7EE007A37EEC99A002894D050
:1042400017EE900A5146CDF814C000F059FB07EE66
:10425000900A39EE679ADDF814C0B5EE409AF1EE97
:1042600010FA87D019EE100ACAF10001CDF808C083
:1042700000F046FB5FED136ADDF808C007EE100A98
:10428000B4EEE67AF1EE10FAC0F281815FED187AB1
:1042900067EE277A06A9FDEEE77A631CF8EEE77A67
:1042A0000AF1080AA7EEE67AFDEEE77ABDEEC77AD4
:1042B00017EE102A41F8242017EE902A41F8232007
:1042C00051464FF07E500393CDF808C000F018FB24
:1042D000039BDDF808C0002B07EE100AC0F2C28075
:1042E0005F1CBA0042A806A95FED2F6A1144861828
:1042F00071ED017AF8EEE77A67EE877A27EE267A93
:1043000066ED017A8642F3D1043A16440024002D6A
:10431000C0F2A580002CC0F2A280A148DFEDA17AF6
:104320003146002201E0A24208DCF0EC016AB1EC67
:10433000017A01329542E6EE877AF4DA56AA02EB68
:1043400084020134BC42A6F1040642ED287ADED193
:10435000649A032A65D8DFE802F06D3A3AB910D1C1
:10436000631E06AA52F823304FEA232CC2E6621ECF
:1043700006AB06A953F8223003F07F0341F8223040
:10438000F0E6F6EE007AB4EEE79AF1EE10FA0BDA08
:104390004FF0000CE9E6DFED837A0431A142E0EC56
:1043A000017A7FF427AE39E619EE903A002C03F13A
:1043B000010309EE903AC8BF4FF0020C3FF7A6AEDA
:1043C000F7EE007A37EEC99A4FF0020CCDE62EAA2E
:1043D000DFED747A02EB870737ED017A974277EECB
:1043E000877AF9D1BCF1000F48D0DDED2E6A019A31
:1043F000B1EE677A002B76EEE77A82ED007A0BDD7C
:104400002FA90122B1EC017A0132934277EE877A2B
:10441000F8DABCF1000F01D0F1EE677A019BC3ED31
:10442000017A19EE903A03F0070057B0BDEC048B07
:10443000BDE8F08F2EAADFED5B7A02EB870737ED40
:10444000017A013B5A1C77EE877AF8D1BCF1000F54
:1044500001D0F1EE677A019BC3ED007AE1E7DFED71
:10446000517A6BE7649A032ADBD8DFE802F0140282
:104470000283DFED4C7ABCF1000FB6D19DED2E7AB0
:10448000019A002BC2ED007A77EE677AB8DC019BC7
:10449000C3ED017AC5E7DFED437AD7E706AAAAF1B3
:1044A000080A52F82320002A7FF40AAF06AA02EB7A
:1044B000830252F8041D013BAAF1080A0029F8D032
:1044C000FEE64FF0010C74E6002038E6002B51DDCB
:1044D0009A0056A911442EAC101D11ED287A2044E3
:1044E000A11871ED017A77EE276AA14277EEE67A9C
:1044F00077EE277AB0EE667A60ED017AC1ED006A58
:10450000EFD1012B36DD131D56A810440B4410EDDE
:10451000287A0A442FA8194672ED017A77EE876A45
:10452000824277EEE67A77EE877AB0EE667A61EDD0
:10453000017AC2ED006AEFD1DFED1A7A30AA33EDCD
:10454000017A934277EE877AF9D1BCF1000F16D049
:10455000DDED2E6A9DED2F7A019AF1EE677AF1EE8C
:10456000666AB1EE477AC2ED027AC2ED006A82ED68
:10457000017A56E7DFED0B7ABCF1000FE8D1019824
:104580002E9A2F9BC0ED027A0260436049E7BDEE90
:10459000C77A06A917EE102A234641F824208FE691
:1045A000705C00080000000020F00043B3F1485F99
:1045B00007EE900A06EE101A04DABDEEE77A17EE5F
:1045C000103A23B327EEA77A9FED174ADFED174A7B
:1045D0009FED175ADFED175ADFED176AE7EE044A31
:1045E00027EE274AA4EE875AE5EE075AE5EE876ADA
:1045F00082B166EEC46AF6EE005AE6EE256ADFED99
:104600000F5A96EE876AA4EE256A77EEC67A17EE01
:10461000900A70479FED0A6AA7EE266AE6EE047AD2
:1046200017EE900A704700BFD3C92E2F342FD7B290
:104630001BEF3836010D50B98988083CABAA2A3ED9
:10464000ABAA2ABE0020704700200149704700BF76
:104650000000F87F38B520F00044B4F1A14F07EE18
:10466000900A05460DDBB4F1FF4F5CDCDFED557AB7
:104670009FED557A0028D8BFF0EE477A17EE900AE2
:1046800038BD524B9C4261DCB4F1445F50DB4FF0CB
:10469000FF3367EEA75A9FED4E1A9FED4E2A9FED0E
:1046A0004E3ADFED4E1ADFED4E2A9FED4E4ADFED1A
:1046B0004E3A9FED4E5ADFED4E4A9FED4E6ADFEDCA
:1046C0004E6A25EEA57A5A1CA7EE012AE7EE212AAA
:1046D000A2EE073AE2EE873AA3EE074AE3EE874AF4
:1046E000A4EE075AE4EE876AA5EE076A26EE877AFB
:1046F00066EE256A41D0414A41499B001A4476EE54
:10470000876A92ED007A96EEA77A0B44002DD3EDDE
:10471000006A77EE677A76EEE77AB8BFF1EE677AED
:1047200017EE900A38BD77EEA77A17EE900A38BDDB
:104730009FED347A37EE877AF7EE006AB4EEE67AC8
:10474000F1EE10FAA3DD17EE900A38BD00F060F824
:104750002D4B9C4207EE100A14DCA3F5D0039C42BB
:1047600025DCF0EE007AFFEE006AE7EE276A002310
:1047700077EE277AC6EEA77A8BE776EE876AE6EEC3
:10478000E77A7BE7214B9C420BDCF7EE087AF7EEE9
:10479000006AE7EE276A022377EE677AC7EEA67A09
:1047A00077E7FFEE007AC7EE877A032371E7F7EE2B
:1047B000007A77EE676A77EE277A0123C6EEA77A4A
:1047C00067E700BFDB0FC93FDB0FC9BFFFFFDF3E5D
:1047D000D769853C59DA4B3D356B883D21A215BD23
:1047E0006BF16EBD6E2EBA3D95879DBD2549123E7B
:1047F000388EE3BDABAAAA3ECDCC4CBE9C5C000873
:10480000AC5C0008CAF24971FFFF973FFFFF1B40F5
:1048100020F00040704700BF10B483B00190019AAF
:1048200022F00041CB0D7F3B162B19DC002B1446E8
:1048300028DB24481841104215D0DFED237A9DED86
:10484000017A77EE277AF5EEC07AF1EE10FA28DDDC
:10485000002A29DB24EA000003B05DF8044B70470E
:10486000B1F1FF4F04D2019803B05DF8044B7047DB
:10487000DDED017A77EEA77A17EE900A03B05DF8C6
:10488000044B7047DFED107A07EE100A77EE277AB7
:10489000F5EEC07AF1EE10FAE5DD002A0ADB002021
:1048A000E2E717EE100ADFE74FF4000242FA03F3E3
:1048B0001C44CFE70029FFEE007A18BF17EE900ADC
:1048C000D2E700BFFFFF7F00CAF2497130F000401D
:1048D00001D102207047A0F50003B3F1FE4F01D2D1
:1048E00004207047054B421E9A4201D803207047AE
:1048F000A0F1FF40B0FA80F040097047FEFF7F0052
:1049000000B52DED028B83B00190019B33F0004286
:1049100023D0B2F1FF4F15D2B2F5000F26D3D20D3E
:104920000A44FE2A3CDC002A30DD23F0FF4343EA40
:10493000C25307EE903A17EE900A03B0BDEC028B1B
:104940005DF804FB07EE900A77EEA77A17EE900A5F
:1049500003B0BDEC028B5DF804FBDDED017A17EED0
:10496000900A03B0BDEC028B5DF804FB9DED017A6B
:10497000DFED1E7A1E4B67EE277A9942CDED017A64
:1049800020DB019BC3F3C752193AC9E712F1160F96
:104990001FDA4CF25033994202DC9FED168A01E097
:1049A0009FED158A019918EE100A00F029F807EE1C
:1049B000900A67EE887A17EE900A03B0BDEC028B7E
:1049C0005DF804FBDFED0B7A9DED017A67EE277A47
:1049D000BCE7193223F0FF4343EAC2539FED077A45
:1049E00007EE903A67EE877AB0E700BF0000004C10
:1049F000B03CFFFF6042A20DCAF2497100000033D3
:104A000001F0004120F000400843704781F0004170
:104A100002E000BF83F0004330B54FEA41044FEAA3
:104A2000430594EA050F08BF90EA020F1FBF54EA3E
:104A3000000C55EA020C7FEA645C7FEA655C00F0DA
:104A4000E2804FEA5454D4EB5555B8BF6D420CDDAB
:104A50002C4480EA020281EA030382EA000083EA2E
:104A6000010180EA020281EA0303362D88BF30BDCE
:104A700011F0004F4FEA01314FF4801C4CEA113124
:104A800002D0404261EB410113F0004F4FEA033383
:104A90004CEA133302D0524263EB430394EA050F0E
:104AA00000F0A780A4F10104D5F1200E0DDB02FA7D
:104AB0000EFC22FA05F2801841F1000103FA0EF211
:104AC000801843FA05F359410EE0A5F120050EF1D7
:104AD000200E012A03FA0EFC28BF4CF0020C43FA08
:104AE00005F3C01851EBE37101F0004507D54FF015
:104AF000000EDCF1000C7EEB00006EEB0101B1F565
:104B0000801F1BD3B1F5001F0CD349085FEA3000AA
:104B10004FEA3C0C04F101044FEA445212F5800FB5
:104B200080F09A80BCF1004F08BF5FEA500C50F152
:104B3000000041EB045141EA050130BD5FEA4C0C35
:104B4000404141EB010111F4801FA4F10104E9D1BE
:104B500091F0000F04BF01460020B1FA81F308BFB5
:104B60002033A3F10B03B3F120020CDA0C3208DD81
:104B700002F1140CC2F10C0201FA0CF021FA02F15C
:104B80000CE002F11402D8BFC2F1200C01FA02F1CC
:104B900020FA0CFCDCBF41EA0C019040E41AA2BFF1
:104BA00001EB0451294330BD6FEA04041F3C1CDAB9
:104BB0000C340EDC04F11404C4F1200220FA04F0D9
:104BC00001FA02F340EA030021FA04F345EA030183
:104BD00030BDC4F10C04C4F1200220FA02F001FA45
:104BE00004F340EA0300294630BD21FA04F02946C7
:104BF00030BD94F0000F83F4801306BF81F4801160
:104C00000134013D4EE77FEA645C18BF7FEA655CD2
:104C100029D094EA050F08BF90EA020F05D054EAA4
:104C2000000C04BF1946104630BD91EA030F1EBFA9
:104C30000021002030BD5FEA545C05D140004941AD
:104C400028BF41F0004130BD14F580043CBF01F5A0
:104C5000801130BD01F0004545F0FE4141F4700186
:104C60004FF0000030BD7FEA645C1ABF1946104661
:104C70007FEA655C1CBF0B46024650EA013406BF62
:104C800052EA033591EA030F41F4002130BD00BF21
:104C900090F0000F04BF0021704730B54FF48064DE
:104CA00004F132044FF000054FF0000150E700BF5F
:104CB00090F0000F04BF0021704730B54FF48064BE
:104CC00004F1320410F0004548BF40424FF00001AB
:104CD0003EE700BF42004FEAE2014FEA31014FEAEE
:104CE00002701FBF12F07F4393F07F4F81F060513D
:104CF000704792F0000F14BF93F07F4F704730B5AC
:104D00004FF4607401F0004521F0004120E700BF3E
:104D100050EA010208BF704730B54FF000050AE0C5
:104D200050EA010208BF704730B511F0004502D5C6
:104D3000404261EB41014FF4806404F132045FEAC8
:104D4000915C3FF4DCAE4FF003025FEADC0C18BF6D
:104D500003325FEADC0C18BF033202EBDC02C2F163
:104D6000200300FA03FC20FA02F001FA03FE40EAF5
:104D70000E0021FA02F11444C1E600BF70B54FF0F5
:104D8000FF0C4CF4E06C1CEA11541DBF1CEA1355D7
:104D900094EA0C0F95EA0C0F00F0DEF82C4481EA3F
:104DA000030621EA4C5123EA4C5350EA013518BF5F
:104DB00052EA033541F4801143F4801338D0A0FB4C
:104DC00002CE4FF00005E1FB02E506F00042E0FBF9
:104DD00003E54FF00006E1FB03569CF0000F18BFFF
:104DE0004EF0010EA4F1FF04B6F5007F64F54074A7
:104DF00004D25FEA4E0E6D4146EB060642EAC6213A
:104E000041EA55514FEAC52040EA5E504FEACE2EA6
:104E1000B4F1FD0C88BFBCF5E06F1ED8BEF1004FA9
:104E200008BF5FEA500E50F1000041EB045170BD25
:104E300006F0004646EA010140EA020081EA030169
:104E4000B4EB5C04C2BFD4EB0C0541EA045170BD65
:104E500041F480114FF0000E013C00F3AB8014F1DF
:104E6000360FDEBF002001F0004170BDC4F1000428
:104E7000203C35DA0C341BDC04F11404C4F12005A9
:104E800000FA05F320FA04F001FA05F240EA020004
:104E900001F0004221F0004110EBD37021FA04F63A
:104EA00042EB06015EEA430E08BF20EAD37070BDF4
:104EB000C4F10C04C4F1200500FA04F320FA05F053
:104EC00001FA04F240EA020001F0004110EBD37055
:104ED00041F100015EEA430E08BF20EAD37070BDC5
:104EE000C4F1200500FA05F24EEA020E20FA04F39E
:104EF00001FA05F243EA020321FA04F001F000414D
:104F000021FA04F220EA020000EBD3705EEA430EBD
:104F100008BF20EAD37070BD94F0000F0FD101F0EC
:104F20000046400041EB010111F4801F08BF013C25
:104F3000F7D041EA060195F0000F18BF704703F063
:104F40000046520043EB030313F4801F08BF013DEA
:104F5000F7D043EA0603704794EA0C0F0CEA1355A6
:104F600018BF95EA0C0F0CD050EA410618BF52EA60
:104F70004306D1D181EA030101F000414FF0000066
:104F800070BD50EA410606BF1046194652EA430674
:104F900019D094EA0C0F02D150EA013613D195EAE8
:104FA0000C0F05D152EA03361CBF104619460AD130
:104FB00081EA030101F0004141F0FE4141F470013A
:104FC0004FF0000070BD41F0FE4141F4780170BD2A
:104FD00070B54FF0FF0C4CF4E06C1CEA11541DBF8F
:104FE0001CEA135594EA0C0F95EA0C0F00F0A7F891
:104FF000A4EB050481EA030E52EA03354FEA0131BE
:1050000000F088804FEA03334FF0805545EA1313D0
:1050100043EA12634FEA022245EA111545EA106598
:105020004FEA00260EF000419D4208BF964244F12F
:10503000FD0404F5407402D25B084FEA3202B61A4E
:1050400065EB03055B084FEA32024FF480104FF422
:10505000002CB6EB020E75EB030E22BFB61A754696
:1050600040EA0C005B084FEA3202B6EB020E75EB29
:10507000030E22BFB61A754640EA5C005B084FEA91
:105080003202B6EB020E75EB030E22BFB61A75465E
:1050900040EA9C005B084FEA3202B6EB020E75EB69
:1050A000030E22BFB61A754640EADC0055EA060E2A
:1050B00018D04FEA051545EA16754FEA06164FEA6D
:1050C000C30343EA52734FEAC2025FEA1C1CC0D119
:1050D00011F4801F0BD141EA00014FF000004FF0A6
:1050E000004CB6E711F4801F04BF01430020B4F167
:1050F000FD0C88BFBCF5E06F3FF6AFAEB5EB030C1F
:1051000004BFB6EB020C5FEA500C50F1000041EB1B
:10511000045170BD0EF0004E4EEA113114EB5C04E8
:10512000C2BFD4EB0C0541EA045170BD41F48011BB
:105130004FF0000E013C90E645EA060E8DE60CEAC3
:10514000135594EA0C0F08BF95EA0C0F3FF43BAFE0
:1051500094EA0C0F0AD150EA01347FF434AF95EA97
:105160000C0F7FF425AF104619462CE795EA0C0F7B
:1051700006D152EA03353FF4FDAE1046194622E748
:1051800050EA410618BF52EA43067FF4C5AE50EA22
:1051900041047FF40DAF52EA43057FF4EBAE12E712
:1051A0004FEA4102B2F1E04324BFB3F5001CDCF149
:1051B000FE5C0DD901F0004C4FEAC0024CEA507081
:1051C000B2F1004F40EB830008BF20F001007047B0
:1051D00011F0804F21D113F13872BCBF01F00040B3
:1051E000704741F480114FEA5252C2F11802C2F1E5
:1051F000200C10FA0CF320FA02F018BF40F0010066
:105200004FEAC1234FEAD32303FA0CFC40EA0C0017
:1052100023FA02F34FEA4303CCE77FEA625307D154
:1052200050EA01331EBF4FF0FE4040F4400070478B
:1052300001F0004040F0FE4040F40000704700BF25
:105240004BB942B9002908BF002802D04FF0FF3106
:10525000084600F03BB882B0EC462DE9005000F063
:105260001DF8DDF804E002B00CBC70472DE9F041F8
:10527000069C154606460F46984600F029F805FBA1
:1052800001F300FB0838A5FB0023B21A434467EB87
:105290000303C4E90023BDE8F08100BF2DE9F0411C
:1052A000069C904606460F461D4600F05FF900FB3F
:1052B00005F5A0FB082308FB0155B21A2B4467EB48
:1052C0000303C4E90023BDE8F08100BF704700BFBD
:1052D00000292DE9F043C0F2A6800026002BC0F281
:1052E0009C80884694469E46154604460F46002BF1
:1052F0003DD18A4259D9B2FA82F33BB1C3F12002BF
:105300009F4020FA02F29D4017439C40290C220C3A
:10531000B7FBF1FEA8B201FB1E7742EA074700FB8C
:105320000EF3BB420AD97F190EF1FF3280F00581DE
:10533000BB4240F20281AEF1020E2F44FF1AA4B22A
:10534000B7FBF1F301FB137744EA074700FB03F0D7
:10535000B84208D97F1903F1FF3280F0F080B842DB
:1053600040F2ED80023B43EA0E43002203E08B4211
:105370000FD900221346341C18BF012460424FF09D
:10538000000565EB45015840514000196941BDE8F1
:10539000F083B3FA83F2002A40F086808B4202D376
:1053A000844500F2DB800123E5E712B90123B3FB5A
:1053B000F2F5B5FA85F000283BD1781B4FEA154E7F
:1053C0001FFA85FC0122B0FBFEF8210C0EFB18072A
:1053D00041EA07470CFB08F3BB4207D97F1908F1E4
:1053E000FF3102D2BB4200F2BD808846FF1AA4B250
:1053F000B7FBFEF30EFB137744EA07470CFB03FCF5
:10540000BC4507D97F1903F1FF3102D2BC4500F238
:10541000A7800B4643EA0843ADE752426FEA06060F
:1054200063EB43035DE7404261EB41014FF0FF3620
:1054300054E7C0F1200224FA02F107FA00F3854094
:105440004FEA154ED7401943B7FBFEF20B0C0EFB8B
:1054500012771FFA85FC43EA07430CFB02F79F42D1
:1054600004FA00F407D95B1902F1FF3074D29F42AD
:1054700072D9023A2B44DF1B89B2B7FBFEF80EFB50
:10548000187341EA03430CFB08F79F4208D95B19E4
:1054900008F1FF315CD29F425AD9A8F102082B448F
:1054A000D81B48EA02428EE7C2F120032CFA03F12E
:1054B0000EFA02FE20FA03F741EA0E0E08FA02F095
:1054C00028FA03F14FEA1E453843B1FBF5F8030C07
:1054D00005FB18111FFA8EF743EA014107FB08F399
:1054E0008B420CFA02FC09D911EB0E0108F1FF39CD
:1054F00030D28B422ED9A8F102087144C91A80B269
:10550000B1FBF5F305FB131140EA014107FB03F77B
:105510008F4208D911EB0E0103F1FF3016D28F42F2
:1055200014D9023B714443EA0843C91BA3FB0C890D
:10553000494509D305D000221DE79646FEE61346ED
:1055400011E794404445F6D2013BF4E70346EAE70D
:105550008846A5E7C846D1E702468CE713460AE726
:10556000023B57E7A8F102082F443FE72DE9F0413D
:10557000002B44D18A42154604464FD9B2FA82F72D
:105580000E464FB1C7F12003B94020FA03F602FAE4
:1055900007F50E4300FA07F44FEA154E230CB6FB4D
:1055A000FEF0AFB20EFB106143EA014307FB00F1CE
:1055B000994209D95B1900F1FF3280F0EC809942E1
:1055C00040F2E98002382B445A1AA4B2B2FBFEF32F
:1055D0000EFB132244EA024207FB03F7974208D965
:1055E000521903F1FF3180F0D880974240F2D58004
:1055F000023B43EA004000263146BDE8F0818B4281
:1056000047D8B3FA83F6002E48D18B4202D38242A8
:1056100000F2CD8001203146BDE8F08112B90125AC
:10562000B5FBF2F5B5FA85F8B8F1000F77D14A1B52
:105630004FEA154EAFB20126B2FBFEF0230C0EFB73
:10564000102143EA014107FB00F38B4207D94919B6
:1056500000F1FF3202D28B4200F2BA801046C91A22
:10566000A4B2B1FBFEF30EFB131144EA014407FBA5
:1056700003F7A74208D9641903F1FF3280F08F8045
:10568000A74240F28C80023B43EA00403146BDE82D
:10569000F081002630463146BDE8F081C6F1200495
:1056A00022FA04F5B3402B4320FA04FC01FA06F772
:1056B00021FA04F54FEA134E4CEA0707B5FBFEF852
:1056C000390C0EFB18551FFA83FC41EA05450CFB0B
:1056D00008F1A94202FA06F204D9ED1808F1FF34E4
:1056E00067D3A0466D1ABFB2B5FBFEF40EFB14558E
:1056F00047EA05410CFB04FC8C4504D9C91804F1A8
:10570000FF355CD32C4644EA0844CCEB0101A4FBF2
:105710000223994248D344D0204600266CE7C8F1C2
:10572000200401FA08F305FA08F520FA04F7E1402D
:105730004FEA154E1F43B1FBFEF63A0C0EFB161155
:105740001FFA85FC42EA01430CFB06F29A4200FA7A
:1057500008F407D95B1906F1FF3137D29A4235D9DF
:10576000023E2B449B1ABFB2B3FBFEF00EFB10337C
:1057700047EA03430CFB00F1994207D95B1900F19A
:10578000FF3221D299421FD902382B445A1A40EADB
:105790000646674650E7104616E70B4629E71346CC
:1057A00072E7B0409042B7D2601E002624E7304630
:1057B00022E7A94295D9A8F102081D4492E78C4539
:1057C000A0D9023C19449EE71046DFE70E46C9E720
:1057D0000238294443E700BF014B1868704700BFF7
:1057E000BC00002070B50E4B0E4CE41AA41000252E
:1057F0001E46A54204D056F8253098470135F8E7F3
:10580000FBF720FE084C094BE41AA41000251E46A5
:10581000A54204D056F8253098470135F8E770BD09
:10582000C0000020C0000020C0000020C0000020F8
:1058300000C201000808011000000000D0000000B4
:105840000100000004000000008202480E00000079
:105850003C58000830580008FD1B0008152F0008B0
:10586000952E00080000000000000000000000006D
:10587000000000000000000048580008010000047B
:10588000040100003903000100810248800000008B
:1058900000000100000000000000000050020401B0
:1058A00000000100000000000000010001010101F2
:1058B00061636F7366000000000000006173696E31
:1058C000660000007371727466000000000FC93F2B
:1058D000000F494000CB9640000FC9400053FB40E9
:1058E00000CB164100ED2F41000F494100316241CC
:1058F00000537B41003A8A4100CB9641005CA341B2
:1059000000EDAF41007EBC41000FC94100A0D54170
:105910000031E24100C2EE410053FB4100F203427C
:10592000003A0A420083104200CB164200141D4286
:10593000005C234200A5294200ED2F42003636428A
:10594000007E3C4200C74242000F4942A2000000D4
:10595000F9000000830000006E0000004E0000000F
:10596000440000001500000029000000FC000000B9
:105970002700000057000000D1000000F5000000E3
:1059800034000000DD000000C0000000DB0000006B
:105990006200000095000000990000003C0000003B
:1059A000430000009000000041000000FE000000E5
:1059B0005100000063000000AB000000DE000000AA
:1059C000BB000000C500000061000000B70000003F
:1059D000240000006E0000003A00000042000000B9
:1059E0004D000000D2000000E000000006000000B2
:1059F000490000002E000000EA000000090000003D
:105A0000D1000000920000001C000000FE00000019
:105A10001D000000EB0000001C000000B1000000B1
:105A200029000000A70000003E000000E800000080
:105A30008200000035000000F50000002E0000008C
:105A4000BB0000004400000084000000E9000000EA
:105A50009C0000007000000026000000B400000060
:105A60005F0000007E0000004100000039000000DF
:105A700091000000D6000000390000008300000003
:105A80005300000039000000F40000009C000000FA
:105A9000840000005F0000008B000000BD000000DB
:105AA000F9000000280000003B0000001F0000007B
:105AB000F800000097000000FF000000DE0000007A
:105AC00005000000980000000F000000EF0000003B
:105AD0002F000000110000008B0000005A000000A1
