:020000040C00EE
:100000000008001001020008B1020008B102000857
:10001000B1020008B1020008B102000800000000AF
:10002000000000000000000000000000B102000815
:10003000B102000800000000B1020008B10200088F
:10004000B1020008B1020008B1020008B1020008C4
:10005000B1020008B1020008B1020008B1020008B4
:10006000B1020008000000000000000000000000D5
:10007000B102000800000000B1020008B10200084F
:10008000B1020008B1020008B1020008B102000884
:10009000B1020008B1020008B1020008B102000874
:1000A000B1020008B1020008B1020008B102000864
:1000B000B1020008B1020008B1020008B102000854
:1000C000B1020008B1020008B1020008B102000844
:1000D000B1020008B1020008B1020008B102000834
:1000E000B1020008B1020008B1020008B102000824
:1000F000B1020008B102000825320008B102000870
:10010000B1020008B1020008B1020008B102000803
:10011000B1020008B1020008B1020008B1020008F3
:10012000B1020008B1020008B1020008B1020008E3
:10013000B1020008B1020008B1020008B1020008D3
:10014000B1020008B1020008B1020008B1020008C3
:10015000B1020008B1020008B1020008B1020008B3
:10016000000000000000000000000000000000008F
:10017000B1020008B1020008B1020008B102000893
:10018000B1020008B1020008B1020008B102000883
:10019000B1020008B1020008B1020008B102000873
:1001A000B1020008B10200084D2100083D210008FD
:1001B000B1020008B1020008B1020008B102000853
:1001C000B1020008B1020008B1020008B102000843
:1001D000B1020008B1020008B102000800000000EE
:1001E000B1020008B1020008B1020008B102000823
:1001F000B102000800000000B10200080000000089
:10020000DFF88CD023488047234C244DAC4209DAD8
:1002100021686268A368043BA2BFC858D050FAE7BF
:100220000C34F3E71E4B1F4CA34208DA19685A68D6
:100230000020043AA4BF8850FBE70833F4E71A48CB
:1002400080471A48804700005068000C00000020DA
:10025000000100005069000C0000003000000000A8
:100260005068000C00080010000000005068000CEE
:10027000000800100000000000010020080300003A
:100280000000003000000000000800100000000026
:1002900000080010B50200084802000878020008B3
:1002A00078020008900200081D6300089D3F0008C6
:1002B000FEE7000098B500AF054A4FF00053144622
:1002C0000FCB84E80F0002F083FD02F0EBFD98BD38
:1002D000C4FF002080B584B000AF2F4BDB6803F46F
:1002E0008033002B3ED02D4BDB6803F00103002B45
:1002F00002D02B4BFB6002E002F0CAFDF860274BF6
:100300001B6803F00403002B20D0244B9B6803F0F0
:1003100070631B0E0133BB60204B9B6803F4FE43EC
:100320001B0A01337B601D4B9B6803F4FE031B0C0F
:1003300001333B60BB683A6802FB03F3FA68B2FB27
:10034000F3F37A6802FB03F3FB600DE0134B9B6849
:1003500003F07F0301333B60FA683B68B2FBF3F3C1
:10036000FB6001E00E4BFB600B4BDB68DBB2013343
:10037000FA68B2FBF3F3FB60074B1B6903F0010360
:100380000133FA68B2FBF3F3FB60064AFB681360C3
:100390001037BD4680BD00BF0046005010470050DA
:1003A00000366E01C0FF002080B485B000AFF86059
:1003B0000B467A60FB72FB7A9B08DBB21846FB7A2D
:1003C0009B08DBB21A46FB68043253F82220FB7A02
:1003D00003F00303DB001946F8238B40DB4302EAFA
:1003E0000301FB68021D43F82210FB685A6FFB7A79
:1003F0005B00194603238B40DB431A40FB685A67B6
:10040000FB68374A934203D0FB68364A93420AD1CD
:10041000FB681A6EFB7A012101FA03F3DB431A40F1
:10042000FB681A663CE07B685A68FB7A9A40FB6876
:100430005A60FB7ADB08DBB21846FB7ADB08DBB2DA
:100440001A46FB68103253F82220FB7A03F00703A8
:100450009B00194607238B40DB4302EA0301FB683C
:1004600000F1100243F82210FB7ADB08DBB21846D9
:10047000FB7ADB08DBB21A46FB68103253F8222005
:100480007B681B7A1946FB7A03F007039B0001FA8D
:1004900003F342EA0301FB6800F1100243F8221063
:1004A000FB7A9B08DBB21846FB7A9B08DBB21A4644
:1004B000FB68043253F822207B681B781946FB7ACC
:1004C00003F00303DB0001FA03F342EA0301FB68D4
:1004D000021D43F822101437BD465DF8047B7047B7
:1004E000008E0248008F024880B400AF034B1B68A7
:1004F0001846BD465DF8047B704700BFC0FF002072
:1005000080B400AF034BD3F8C4301846BD465DF845
:10051000047B70470040005080B584B000AF786025
:10052000FFF7D8FE0B4B1B680B4AA2FB03239A0C68
:100530007B6802FB03F37B600023FB6003E000BFEA
:10054000FB680133FB60FA687B689A42F7D3103787
:10055000BD4680BDC0FF002083DE1B43B0B584B024
:1005600002AF7860002000F09BF800F02DFA7B6865
:10057000DB79002B0AD000F065FA00BF00F050FADA
:10058000034683F00103DBB2002BF7D17B685B7A73
:10059000184600F0FFF800BFFFF7B2FF0346002B3C
:1005A000FAD17B681B7A184600F0E8F97B681B7C5F
:1005B000184600F00DF97B685B7C184600F030F9B6
:1005C0007B689B7C184600F017F97B68DB7C18463B
:1005D00000F03AF97B689B79002B0AD000F066FAAC
:1005E00000BF00F08BFA034683F00103DBB2002B5F
:1005F000F7D17B68DB78002B02D100F0A3FA14E07E
:1006000000F090FA7B6899887B68DA787B685B7881
:100610001D467B681B781C467B689B7800930846C8
:1006200011462A46234600F09DFA7B68DB68B3F545
:10063000803F03D14FF4803000F032F8FFF74AFEDC
:100640000837BD46B0BD00BF80B485B000AF78604C
:100650007B681B0FFB607B6823F07043BB60FA680C
:1006600013465B0013449B001A46044B1344BA68BC
:100670001A601437BD465DF8047B7047144400507F
:1006800080B500AFFFF730FF0246044B5B6903F013
:10069000010322FA03F3184680BD00BF0046005054
:1006A00080B483B000AF78600649064BDB6823F462
:1006B00080327B681343CB600C37BD465DF8047B0A
:1006C000704700BF0046005080B483B000AF786030
:1006D0000649064B9B6923F480327B6813438B6188
:1006E0000C37BD465DF8047B704700BF00460050E4
:1006F00080B483B000AF78600649064B5B6A23F490
:1007000040327B6813434B620C37BD465DF8047B77
:10071000704700BF0046005080B483B000AF03466E
:10072000FB80FB88002B08D10A4A0A4BDB6823F4C4
:10073000807323F00103D36007E0064A054BDB68B2
:1007400043F4807343F00103D3600C37BD465DF87A
:10075000047B70471047005080B483B000AF03465D
:10076000FB7100BF094BD3F8C43003F00803002B22
:10077000F8D10749064BDB6823F04002FB791343AD
:10078000CB600C37BD465DF8047B704700400050DD
:100790000043005080B483B000AF0346FB7100BF3C
:1007A000094BD3F8C43003F00803002BF8D10749F4
:1007B000064BDB6823F08002FB791343CB600C37D8
:1007C000BD465DF8047B7047004000500043005078
:1007D00080B483B000AF78600649064BDB6823F035
:1007E000FF027B68013B1343CB600C37BD465DF8CD
:1007F000047B70470046005080B483B000AF78603F
:100800000649064B1B6A23F001027B68013B134338
:100810000B620C37BD465DF8047B70470046005004
:1008200080B483B000AF78600649064B1B6923F0A3
:1008300001027B68013B13430B610C37BD465DF839
:10084000047B70470046005080B483B000AF7860EE
:100850000649064B5B6923F001027B68013B1343A9
:100860004B610C37BD465DF8047B70470046005075
:1008700080B483B000AF78600649064B9B6923F0D3
:1008800007027B68013B13438B610C37BD465DF863
:10089000047B70470046005080B483B000AF78609E
:1008A0000649064BDB6923F03F027B68013B13439B
:1008B000CB610C37BD465DF8047B704700460050A5
:1008C00080B483B000AF78600649064B5B6A23F0C2
:1008D000FF027B68013B13434B620C37BD465DF85A
:1008E000047B70470046005080B483B000AF0346DD
:1008F000FB71044AFB7953600C37BD465DF8047BFD
:10090000704700BF0046005080B483B000AF7860ED
:100910003960194A184B5B6943F001035361164A69
:10092000154B5B6943F01003536113493B68013B6E
:100930001A027B68013B1B0613434B610E4A0E4BA8
:100940005B6943F0400353610B4A0B4B5B6923F037
:1009500010035361084A084B5B6943F480235361D9
:1009600000BF054B1B6903F00403002BF9D00C37C3
:10097000BD465DF8047B70471047005080B582B0DB
:1009800000AF0346FB710F4A0E4B5B6843F48013C4
:100990005360FB79012B0ED10A4A0A4B5B6823F4A2
:1009A000801353606420FFF7B7FD064A054B5B6870
:1009B00043F4002353606420FFF7AEFD0837BD46C3
:1009C00080BD00BF1047005080B400AF124B1B68C1
:1009D00003F00103002B09D10F4B01225A6000BF25
:1009E0000D4B1B6803F00103002BF9D00B4B1B6868
:1009F00003F40073002B0AD0084B4FF400729A6086
:100A000000BF064B1B6803F40073002BF9D1BD46F1
:100A10005DF8047B704700BF004200500044005066
:100A200080B400AF064B1B6803F00803002B0CBF1B
:100A300001230023DBB21846BD465DF8047B7047F6
:100A40000043005080B500AF00BF164BD3F8C43050
:100A500003F08003002BF8D1134A134BDB6923F01A
:100A60003003D36100BF0F4BD3F8C43003F0080349
:100A7000002BF8D10C4A0C4BDB6843F00803D36021
:100A800000BF084BD3F8C43003F00403002BF8D1A7
:100A9000054B08229A6000BFFFF732FD0346002B8A
:100AA000FAD180BD0040005000430050B0B500AF07
:100AB0000F4A0F4B5B6823F4803353600D4D0D4B91
:100AC0005B6823F4702424F0300402F0E1F902465C
:100AD000094BA3FB02231B0D013B1B0423436B604B
:100AE000034A034B5B6823F400335360B0BD00BF7F
:100AF00010470050004700506BCA5F6B80B400AFD6
:100B0000074B1B6803F46073B3F5607F0CBF0123D0
:100B10000023DBB21846BD465DF8047B704700BF7A
:100B20001047005080B400AF054A054B5B6823F4C2
:100B3000803323F002035360BD465DF8047B7047A9
:100B40001047005080B400AF054A054B5B6843F482
:100B5000803343F002035360BD465DF8047B704769
:100B60001047005080B586B000AFBA607B60034686
:100B7000FB810B467B73FB891846FFF7CDFD7B7B22
:100B8000012B40F08480FB89002B09D102F080F911
:100B900002464B4BA3FB02239B0C9B057B6102E0AF
:100BA0004FF0C0637B617B697A6802FB03F2BB682C
:100BB000B2FBF3F37B617B69424AA2FB03231B096F
:100BC0009B0D3B61404A404B5B6843F0010353601F
:100BD0003D4A3D4B5B6843F0100353603A493A4B42
:100BE0009A683A4B13407A68013A12021A433B69F9
:100BF000013B1B041A43BB68013B1B0613438B607C
:100C0000314A314B5B6843F0400353602E4A2E4B10
:100C10005B6823F0100353602B4A2B4B5B6843F453
:100C20008023536000BF284B1B6803F00403002B94
:100C3000F9D0254A244B5B6823F00103536000BFC1
:100C4000214B1B6803F00103002BF9D17B69204A7B
:100C5000A2FB03235B099B0D3B613A6A3B699A4205
:100C600002D2386900F038F87B695B08194AA2FBA8
:100C700003235B099B0D3B613A6A3B699A4202D2AE
:100C8000386900F029F8386A00F026F815E00E49B6
:100C90000D4B9B6823F07F023B6A013B13438B6043
:100CA000094A094B5B6843F00103536000BF064BE0
:100CB0001B6803F00103002BF9D01837BD4680BD37
:100CC00083DE1B43ABAAAAAA10470050FF8080F026
:100CD00089888888B7600BB680B582B000AF78602D
:100CE0000749074B9B6823F4FE027B68013B1B040A
:100CF00013438B603220FFF70FFC0837BD4680BDE1
:100D00001047005080B483B000AF78607B68DB6828
:100D100043F480727B68DA600C37BD465DF8047B73
:100D2000704700BF80B582B000AF78607B68104A22
:100D3000934203D10420FFF787FC16E07B680D4A3D
:100D4000934203D10820FFF77FFC0EE07B680A4A3C
:100D5000934203D11020FFF777FC06E07B68074A37
:100D6000934202D10648FFF76FFC0837BD4680BDAD
:100D700000C0004000000140004001400040004829
:100D80000100001080B582B000AF78601020FFF73E
:100D9000ABFD7868FFF7C6FF0837BD4680BD00BFD2
:100DA00080B584B000AF78600B46FB707868FFF7C1
:100DB000E9FF7868FFF7A6FF7B681B68FB60FB68AC
:100DC00023F44043FB60FB789B03FA681343FB600A
:100DD0007B68FA681A601037BD4680BD80B485B064
:100DE00000AF786039607B681B68FB603B681B0C58
:100DF000DB43FA681340FB603B689BB2FA6813431D
:100E0000FB607B68FA681A601437BD465DF8047BA6
:100E1000704700BF80B483B000AF786039603B6832
:100E20001A687B685A613B685B79C3F34013DBB295
:100E30001A057B685A603B681B79C3F30303DBB276
:100E40001A467B685A623B685B79C3F30303DBB2E3
:100E50001A467B681A623B685B79C3F30013DBB206
:100E60001A467B689A613B681B79C3F30313DBB2B4
:100E70001A467B68DA620C37BD465DF8047B704722
:100E800080B485B000AF78600B46FB701346BB7032
:100E90007B685B68BB60BB6823F00303BB60FB78C7
:100EA000BA681343BB607B68BA685A607B685B6949
:100EB000FB60BB78012B04D1FB6843F48063FB60CB
:100EC00003E0FB6823F48063FB607B68FA685A6187
:100ED0001437BD465DF8047B704700BF80B485B011
:100EE00000AF78600B46FB701346BB707B685B6895
:100EF000FB60FB6823F00C03FB60FB789B00FA6847
:100F00001343FB607B68FA685A607B685B69BB606F
:100F1000BB6823F44073BB60BB781B02BA68134301
:100F2000BB607B68BA685A611437BD465DF8047BC4
:100F3000704700BF80B485B000AF78600B46FB708F
:100F40007B685B68FB60FB6823F44053FB60FB78C5
:100F50001B03FA681343FB607B68FA685A60143716
:100F6000BD465DF8047B704780B485B000AF786003
:100F7000084611461A460346FB700B46BB701346E3
:100F80007B707B685B69FB607B685B68BB60BB6890
:100F900023F44023BB60FB789B04BA681343BB6017
:100FA0007B68BA685A60BB78012B04D1FB6843F0B8
:100FB0008073FB6003E0FB6823F08073FB607B7849
:100FC000002B04D0FB6843F40003FB6003E0FB68E4
:100FD00023F40003FB607B68FA685A611437BD464E
:100FE0005DF8047B704700BF80B485B000AF7860C7
:100FF0000B46FB707B685B68FB60FB6823F4404337
:10100000FB60FB789B03FA681343FB607B68FA681C
:101010005A601437BD465DF8047B704780B485B0D4
:1010200000AF78600B46FB707B685B68FB60FB6819
:1010300023F44073FB60FB781B02FA681343FB60E8
:101040007B68FA685A601437BD465DF8047B7047C8
:1010500080B485B000AF78600B46FB707B685B683E
:10106000FB60FB6823F44063FB60FB789B02FA683B
:101070001343FB607B68FA685A601437BD465DF81D
:10108000047B704780B485B000AF78607B685B6894
:10109000FB60FB6823F48033FB60FB6843F4803320
:1010A000FB607B68FA685A601437BD465DF8047BC4
:1010B000704700BF80B485B000AF78600B46FB700E
:1010C0001346BB707B685B68BB60BB6823F400336E
:1010D000BB60BB6843F40033BB607B68BA685A608E
:1010E0007B685B69FB60BB78002B04D0FB6843F432
:1010F0000013FB6003E0FB6823F40013FB60FB7844
:10110000012B04D1FB6843F48003FB6003E0FB6820
:1011100023F48003FB607B68FA685A611437BD468C
:101120005DF8047B704700BF80B487B000AFF86003
:10113000B9607A60FB681B687B617B6923F440239C
:101140007B61BB685B789B047A6913437B617B6935
:1011500023F440137B617B685B781B057A6913433A
:101160007B617B6923F400037B61BB689B78DB05B3
:101170007A6913437B617B6923F080737B617B68B1
:101180009B781B067A6913437B617B6923F0C0530C
:101190007B61BB68DB78DB067A6913437B617B6923
:1011A00023F0C0437B617B68DB785B077A6913437C
:1011B0007B617B6923F0F0037B61BB681B781B01BB
:1011C0007A6913437B617B6923F470637B617B687D
:1011D0001B781B027A6913437B61FB687A691A608A
:1011E0001C37BD465DF8047B704700BF80B489B0F2
:1011F00000AFF8600B467A60FB72FB7A013BFB772D
:10120000FB681B68BB61FB7F5B00DBB21033FB75C7
:10121000FB7D032202FA03F3DB43BA691340BB618F
:101220007B685B781A46FB7D02FA03F3BA691343C5
:10123000BB61FB7F1633FB75FB7D012202FA03F3D2
:10124000DB43BA691340BB617B689B781A46FB7D20
:1012500002FA03F3BA691343BB61FB7F5B00DBB2A5
:101260001933FB75FB7D032202FA03F3DB43BA69F2
:101270001340BB617B68DB781A46FB7D02FA03F3FF
:10128000BA691343BB61FB7F9B00FB75FB7D0F229B
:1012900002FA03F3DB43BA691340BB617B681B7836
:1012A0001A46FB7D02FA03F3BA691343BB61FB687C
:1012B000BA691A602437BD465DF8047B704700BFE9
:1012C00080B485B000AF78600B46FB707B689B6A8A
:1012D000FB60FB6823F47063FB60FB781B02FA6819
:1012E0001343FB607B68FA689A62FA787B685A62FB
:1012F0001437BD465DF8047B704700BF80B487B0EB
:1013000000AF78600B46FB701346BB707B68D3F868
:10131000A830FB60FB78092B2CD801A252F823F0EF
:101320004913000849130008531300085313000819
:10133000751300087513000875130008751300086D
:101340005D1300086913000803233B6100237B61E0
:1013500016E00C233B6102237B6111E04FF44073E4
:101360003B6108237B610BE04FF440633B610A2340
:101370007B6105E04FF440533B610C237B6100BF70
:101380003B69DB43FA681340FB60BA787B6902FA79
:1013900003F3FA681343FB607B68FA68C3F8A8207C
:1013A0001C37BD465DF8047B704700BF80B483B036
:1013B00000AF78600B46FB701346BB707B685A6FBA
:1013C000FB785B00194603238B40DB431A407B68A4
:1013D0005A677B685A6FBB78F97849008B401A438B
:1013E0007B685A670C37BD465DF8047B704700BFC9
:1013F00080B483B000AF78607B689B6BDBB223F076
:101400007F03DBB218460C37BD465DF8047B70479E
:1014100080B483B000AF786039607B683A68DA6482
:101420000C37BD465DF8047B704700BF80B584B0C3
:1014300000AF786039601023FB60786800F08CF8AA
:101440003B68DB79002B02D03B68DB79FB603B68B3
:101450001B6878681946FA6800F0CAF83B689B79FF
:10146000013B5A00FB685B0801331B02134343F442
:10147000403343F001037A68D3633B681B79013B37
:101480001B0643F481727B685A633B685B79002BCF
:1014900009D07B685A6B3B685B79013B1B041A439C
:1014A0007B685A6308E07B685A6B3B681B79013B99
:1014B0001B041A437B685A637B684FF4A0629A63EB
:1014C0007B684FF0FF32DA643B681B891A467B6801
:1014D0001A641037BD4680BD80B582B000AF786019
:1014E0000B467B807B68D3F8083103F0E063002B68
:1014F00010D100BF7868FFF77BFF0346802BF9D03F
:1015000078684FF40051FFF783FF7A887B68C3F84F
:10151000802003E07A887B68C3F880210837BD46C5
:1015200080BD00BF80B485B000AF78607B68D3F821
:101530000C3103F0E063002B03D17B685B6DFB8112
:1015400003E07B68D3F81C31FB81FB891846143714
:10155000BD465DF8047B704780B582B000AF78600F
:101560007B681A4A934203D07B68194A934203D19D
:10157000184800F079F916E07B68174A934203D0C7
:101580007B68164A934203D1154800F06DF90AE0D2
:101590007B68144A934203D07B68134A934202D17A
:1015A000124800F061F97B680322DA6000BF7B68B3
:1015B000DB6803F00103002BF9D07B681B6C23F080
:1015C0000F027B681A640837BD4680BD00000340E7
:1015D00000020340080003400000024800020248E5
:1015E0000800024800400248004202480840024801
:1015F00080B58EB000AFF860B9607A60BB68632BCD
:1016000058D97B68002B55D0FFF73AF802462E4B8D
:10161000A3FB02235B093B62BB682B4AA2FB0323AB
:101620005B09BB600123FB620123BB6240F2FF3315
:101630007B6240F2FF333B6322E03B6A3A6B02FB82
:1016400003F2BB68796801FB03F3B2FBF3F3FB61C0
:10165000FB699B0ABB61FB69C3F309037B61BB693F
:10166000B3F5806F09D27A697B6A9A4205D27B69A9
:101670007B62BB69BB623B6BFB623B6B013B3B63C9
:101680003B6B002BD9D1FB6A43F40042FB681A6123
:10169000FB685A690D4B13407A68013A92021A436B
:1016A000BB6A013B1B041A43FB685A61002387F89D
:1016B000373002E0012387F8373097F83730184683
:1016C0003837BD4680BD00BF1F85EB51EF8000FC61
:1016D00080B485B000AFF860B9603B601346FB7121
:1016E000FB68D3F8083123F0E062FB68C3F80821F7
:1016F000FB68D3F80821094B13403A681102BA6815
:101700001143FA7912060A431A43FB68C3F8082109
:101710001437BD465DF8047B704700BFC0C0FFF8BA
:1017200080B485B000AFF860B9603B601346FB71D0
:10173000FB68D3F80C3123F0E062FB68C3F80C219E
:10174000FB68D3F80C210A4B13403A681102BA68BF
:101750001143FA7912060A43134343F08052FB689F
:10176000C3F80C211437BD465DF8047B704700BFF9
:10177000C0C0FFEF80B485B000AFF8600B467A6060
:10178000FB72FB68D3F80C3123F0E062FB68C3F80E
:101790000C21FB68D3F80C3123F47C527B681B02CC
:1017A0001A43FB7A1B061A43FB68C3F80C21143753
:1017B000BD465DF8047B704780B485B000AFF8602B
:1017C0000B467A60FB72FB689A69FB7A072101FA83
:1017D00003F3DB431A40FB7A796801FA03F31A43F7
:1017E000FB689A611437BD465DF8047B704700BF03
:1017F00080B485B000AFF8600B467A60FB72FB687E
:10180000D3F80821FB7A072101FA03F3DB431A40DE
:10181000FB7A796801FA03F31A43FB68C3F80821DD
:101820001437BD465DF8047B704700BF80B485B0B7
:1018300000AFF8600B467A60FB72FB68D3F80C21AE
:10184000FB7A072101FA03F3DB431A40FB7A79683C
:1018500001FA03F31A43FB68C3F80C211437BD46A1
:101860005DF8047B704700BF80B582B000AF786040
:101870007B680D4A934204D14FF40060FEF7E4FE0A
:101880000EE07B68094A934203D10948FEF7DCFE6B
:1018900006E07B68074A934202D10748FEF7D4FE70
:1018A0000837BD4680BD00BF08000340080002485D
:1018B00080000010084002480001001080B400AF12
:1018C000BD465DF8047B704780B483B000AF78609C
:1018D00039607B681A6C3B681A437B681A640C3762
:1018E000BD465DF8047B704780B483B000AF78607C
:1018F00039607B681A6C3B68DB431A407B681A646A
:101900000C37BD465DF8047B704700BF80B483B0E0
:1019100000AF78607B689B6BDBB223F07F03DBB2A8
:1019200018460C37BD465DF8047B704780B483B021
:1019300000AF786039603B684FF480329A407B6832
:101940009A660C37BD465DF8047B704780B483B05F
:1019500000AF786039607B68D3F808213B681A4390
:101960007B68C3F808210C37BD465DF8047B7047DF
:1019700080B483B000AF786039607B68D3F8082109
:101980003B68DB431A407B68C3F808210C37BD462F
:101990005DF8047B704700BF80B483B000AF78600F
:1019A0007B684FF40042C3F818210C37BD465DF840
:1019B000047B704780B483B000AF78607B68D3F855
:1019C000143103F48053002B14BF01230023DBB236
:1019D00018460C37BD465DF8047B704780B483B071
:1019E00000AF78607B68D3F8143103F40063002BF8
:1019F00014BF01230023DBB218460C37BD465DF847
:101A0000047B704780B483B000AF786039607B6836
:101A1000D3F80C213B681A437B68C3F80C210C37C0
:101A2000BD465DF8047B704780B483B000AF78603A
:101A300039607B68D3F80C213B68DB431A407B6834
:101A4000C3F80C210C37BD465DF8047B704700BF1E
:101A500080B483B000AF78607B684FF48042C3F8F5
:101A600018210C37BD465DF8047B704780B483B005
:101A700000AF78607B68D3F8143103F00803002BC3
:101A800014BF01230023DBB218460C37BD465DF8B6
:101A9000047B704780B584B000AF78600023FB738F
:101AA0007B685B685B6898470346FB73FB7B184663
:101AB0001037BD4680BD00BF80B586B000AFF8606E
:101AC000B9607A600423FB75FB685B6893F8293082
:101AD000002B00D007E0F868B9687A6800F024F8B5
:101AE0000346FB7500BFFB7D18461837BD4680BD19
:101AF00080B586B000AFF860B9607A600423FB75EA
:101B0000FB685B6893F82A30002B00D007E0F86888
:101B1000B9687A6800F064F80346FB7500BFFB7D86
:101B200018461837BD4680BD80B586B000AFF86056
:101B3000B9607A600423FB75FB689B683B61FB68B6
:101B40005B6893F82930002B44D10223FB753B6975
:101B50001B7EDBB283F00103DBB2002B3AD0BB6803
:101B6000002B35D07B68002B32D03B69BA681A60F5
:101B70003B697A689A603B690022DA603B6901221E
:101B80001A76FB685B6893F82B30002B0CD0FB684F
:101B90001B681846FFF700FFFB681B6818464FF0EC
:101BA0008041FFF7D3FE06E0FB681B6818464FF440
:101BB0000051FFF789FE0023FB75FB681A68FB687C
:101BC0005B6893F82D3010461946FFF7AFFE01E031
:101BD0000323FB75FB7D18461837BD4680BD00BF4B
:101BE00080B586B000AFF860B9607A600423FB75F9
:101BF000FB689B683B61FB685B6893F82A30002BAD
:101C00003ED10223FB753B695B7EDBB283F00103AF
:101C1000DBB2002B34D0BB68002B2FD07B68002BAD
:101C20002CD03B69BA685A603B697A681A613B6993
:101C300001225A763B6900225A61FB685B6893F87F
:101C40002C30002B10D0FB681B681846FFF700FFF4
:101C5000F868796800F030F9FB681B6818464FF0A7
:101C6000C041FFF7CFFE06E0FB681B6818464FF443
:101C70004041FFF729FE0023FB7501E00323FB75BC
:101C8000FB7D18461837BD4680BD00BF80B584B0C7
:101C900000AF78607B689B68FB60FB68DA68FB6874
:101CA0009B689A4240D27B685B6893F82B30002B8C
:101CB00027D01AE0FB68DA68FB689B689A4212D268
:101CC0007B681968FB681A68FB68DB6813441B783B
:101CD0009BB208461946FFF7FFFBFB68DB685A1CFE
:101CE000FB68DA6001E000BF53E07B681B681846C0
:101CF000FFF760FE034683F00103DBB2002BD9D16E
:101D000047E07B681968FB681A68FB68DB68134466
:101D10001B789BB208461946FFF7DEFBFB68DB68C1
:101D20005A1CFB68DA6034E07B681B681846FFF7D2
:101D300055FE0346002B2CD07B685B6893F82B3054
:101D4000002B07D07B681B6818464FF08041FFF7D7
:101D50000FFE06E07B681B6818464FF40051FFF742
:101D6000C3FD00BF7B681B681846FFF7CFFD034625
:101D7000802BF7D0FB6800221A76FB6800221A60DD
:101D80007B685B689B68002B03D07B685B689B6803
:101D900098471037BD4680BD90B585B000AF7860DC
:101DA0007B689B68FB607B685B6893F82C30002B3A
:101DB0004ED032E0FB685A69FB681B699A4211D227
:101DC000FB685A68FB685B69D4187B681B68184617
:101DD000FFF7A8FB0346DBB22370FB685B695A1C64
:101DE000FB685A61FB685A69FB681B699A4214D107
:101DF000FB6800225A767B681B6818464FF0C0418A
:101E0000FFF712FE7B685B68DB68002B04D07B6801
:101E10005B68DB6898470BE00AE07B681B68184644
:101E2000FFF724FE034683F00103DBB2002BC1D190
:101E3000FB685A69FB681B699A423AD2FB681A69C7
:101E4000FB685B69D31A7868194600F035F830E012
:101E5000FB685A69FB681B699A4211D2FB685A6891
:101E6000FB685B69D4187B681B681846FFF75AFB50
:101E70000346DBB22370FB685B695A1CFB685A613E
:101E8000FB685A69FB681B699A4212D1FB68002201
:101E90005A767B681B6818464FF44041FFF724FDD3
:101EA0007B685B68DB68002B03D07B685B68DB6862
:101EB00098471437BD4690BD80B584B000AF7860B8
:101EC00039600023FB607B685B6893F82C301A460E
:101ED00001239340BB603A68BB689A4203D23B68D7
:101EE000013BFB6002E0BB68013BFB607B681A685A
:101EF0007B685B6893F82C3010461946FA68FFF748
:101F000039FC1037BD4680BD80B400AF044BDB68A0
:101F100003F4E0631B0A1846BD465DF8047B704776
:101F200000ED00E080B483B000AF0346FB7197F989
:101F30000730002B0BDB084997F907305B09FA796A
:101F400002F01F02012000FA02F241F823200C37B0
:101F5000BD465DF8047B704700E100E080B483B0CB
:101F600000AF03463960FB7197F90730002B0ADB9D
:101F70000D4997F907303A68D2B29200D2B20B44B9
:101F800083F800230AE00949FB7903F00F03043BBF
:101F90003A68D2B29200D2B20B441A760C37BD46E0
:101FA0005DF8047B704700BF00E100E000ED00E059
:101FB00080B489B000AFF860B9607A60FB6803F064
:101FC0000703FB61FB69C3F10703062B28BF062348
:101FD000BB61FB690633062B02D9FB69013B00E0BC
:101FE00000237B61BB69012202FA03F35A1EBB681E
:101FF0001A407B699A407B69012101FA03F3591E5B
:102000007B680B40134318462437BD465DF8047BBC
:10201000704700BF80B483B000AF78600B46FB70A0
:102020001346BB70F878FB787A6806339B0013443C
:102030005B6823F00702BB781A437968831D9B0015
:102040000B445A600C37BD465DF8047B704700BFF7
:1020500080B483B000AF78607B681B6C23F00F0303
:1020600043F002027B681A640C37BD465DF8047BBE
:10207000704700BF80B582B000AF0023FB712B48D2
:102080002B49FFF7D3F9294800210322FFF7C2FFAC
:102090002648102104220123FFF71AFB23480021C0
:1020A00004220023FFF73CFB2048FFF7D1FF214823
:1020B0000E21214AFEF778F91C4810210222FFF771
:1020C0007BFB1A4810210122FFF792FB17481021D1
:1020D0000022FFF7ABFB154813210022FFF7A6FBF8
:1020E000FFF712FF034618460A210022FFF760FFA0
:1020F00003465B201946FFF731FF5B20FFF712FF15
:10210000FFF702FF0346184609210022FFF750FFA0
:1021100003465A201946FFF721FF5A20FFF702FF16
:10212000FB7918460837BD4680BD00BF0000024855
:1021300068630008008202487463000880B500AF3D
:102140000148FFF7A3FD80BD0000002080B500AF6F
:102150000148FFF721FE80BD0000002080B483B05D
:1021600000AF78600B46FB707B68DA68FB78012172
:1021700001FA03F31A437B68DA600C37BD465DF859
:10218000047B704780B483B000AF78607B689B6845
:1021900003F00103002B14BF01230023DBB2184618
:1021A0000C37BD465DF8047B704700BF80B483B038
:1021B00000AF78607B680122DA600C37BD465DF8BD
:1021C000047B704780B483B000AF78607B680122E5
:1021D0001A610C37BD465DF8047B704780B483B04C
:1021E00000AF78607B6802221A610C37BD465DF84B
:1021F000047B704780B483B000AF78600B467B806F
:102200007A887B685A630C37BD465DF8047B70475B
:1022100080B483B000AF78600B467B807A887B689F
:10222000DA630C37BD465DF8047B704780B483B039
:1022300000AF786039607B683A681A610C37BD4638
:102240005DF8047B704700BF80B483B000AF786056
:102250000B46FB707B68D3F8A420FB78012101FAC0
:1022600003F31A437B68C3F8A4200C37BD465DF81E
:10227000047B704780B584B000AF78600023FB73A7
:102280007B6893F8263083F00103DBB2002B09D082
:102290007B6893F82130002B04D1786800F0F8F8BF
:1022A0000346FB73FB7B18461037BD4680BD00BF5D
:1022B00080B584B000AF78607B6893F82630002B3F
:1022C0000CD07B6893F82130002B04D17B685B69CC
:1022D0001846FFF76BFF0023FB7301E00123FB733C
:1022E000FB7B18461037BD4680BD00BF80B584B06B
:1022F00000AF7860786800F01DF80346002B11D01D
:102300007B6893F82630002B0CD07B6893F8213043
:10231000002B04D17B685B691846FFF753FF00234D
:10232000FB7301E00123FB73FB7B18461037BD46AE
:1023300080BD00BF80B584B000AF78600023FB7320
:102340007B6893F82130002B06D17B685B691846C7
:10235000FFF718FF0346FB73FB7B18461037BD469B
:1023600080BD00BF00000000F0B587B000AF78600E
:1023700039600123FB757868FFF7DCFF034683F0C3
:102380000103DBB2002B79D07B689A683B689A42E4
:1023900074D87B685A683B689A426FD300233B61CC
:1023A00002E03B6901333B617B685B683A69C2F1DB
:1023B0000F0223FA02F23B689A42F2D37B6893F849
:1023C0002130002B5AD17B681B691B68FB607B683E
:1023D000DA693B69DBB203F00F03D9B2137961F319
:1023E000030313713B6818464FF00001FB681A465F
:1023F0004FF0000302FB01FE00FB03F67644A0FB56
:102400000223F1180B467968C9690979C1F3030100
:10241000C9B2C1F12006A1F1200022FA01F403FAA9
:1024200006F6344323FA00F0044323FA01F520466C
:10243000294615A3D3E9002303F09EFC02460B4670
:1024400092B27B685A847B685B8C012B05D97B68D0
:102450005B8C013B9AB27B685A847B685A697B68C3
:10246000DB691B79C3F30303DBB210461946FEF7A1
:1024700027FF786800F058F80023FB75FB7D1846AD
:102480001C37BD46F0BD00BF00E1F50500000000AF
:1024900080B584B000AF78607B681B69184600F097
:1024A00033FC0346FB737B681B699A687B681B7E61
:1024B00010461946FFF752FE7B685A697B68DB6954
:1024C00010461946FEF7A6FC786800F02DF87B68E8
:1024D00093F82530002B0FD07B685A697B6893F8FE
:1024E0002030104600211A46FEF708FF7B685B6922
:1024F00018460021FFF7A8FE7B685B691846FFF7C6
:102500006DFE7B68012283F826207B6893F82430D7
:10251000002B04D07B685B691846FFF747FEFB7B06
:1025200018461037BD4680BD80B582B000AF7860D8
:102530007B685A697B685B8C10461946FFF75AFE28
:102540007B685B6918460021FFF762FE7B681B69A8
:102550009A687B68DB6810461946FFF767FE083704
:10256000BD4680BD80B483B000AF78600B46FB7081
:102570007B68DA68FB78012101FA03F31A437B6870
:10258000DA600C37BD465DF8047B704780B483B0D9
:1025900000AF78607B685B6943F400327B685A6106
:1025A0000C37BD465DF8047B704700BF80B483B034
:1025B00000AF78607B680122DA600C37BD465DF8B9
:1025C000047B704780B483B000AF78600B467B809B
:1025D0007A887B685A630C37BD465DF8047B704788
:1025E00080B483B000AF78607B681B6B9BB21846E9
:1025F0000C37BD465DF8047B704700BF80B483B0E4
:1026000000AF78600B467B807A887B68DA630C3792
:10261000BD465DF8047B704780B483B000AF78603E
:1026200039607B683A681A610C37BD465DF8047BF7
:10263000704700BF80B483B000AF78600B46FB707A
:102640007B68D3F8A420FB78012101FA03F31A4335
:102650007B68C3F8A4200C37BD465DF8047B704747
:1026600080B586B000AF78600123FB750123BB7590
:102670007B681B7F002B40F08C807B681B68DB6CC9
:10268000184600F041FB0346BB75BB7D002B7CD197
:102690007B689A687B681B689B6B10461946FEF73F
:1026A000B9FB7B689A687B681B685B881046194693
:1026B000FFF788FF7B689A687B681B689B881046D9
:1026C0001946FFF79BFF7B681B689B6BDB7803F069
:1026D0000203DBB2002B08D07B685A687B681B685A
:1026E0005B6B10461946FEF779FB7B685A687B687E
:1026F0001B6910461946FFF78FFF7B685A687B6895
:102700005B6910461946FFF787FF786800F0E2F82A
:10271000786800F045F87B681B6893F83C30002B24
:102720000ED07B681B68196C7B681B6893F844208B
:102730007B681B689B6C084611461A46FDF734FE01
:102740007B681B68DB6C1B683B617B681B689B6B51
:102750001B79C3F30303DBB2FB60FB683A6922FA1F
:1027600003F33B617B683A691A627B6801221A773E
:102770000023FB757B681B681B78002B0BD07868E7
:1027800000F08CF90346FB7505E07B6800221A77A0
:1027900001E00223FB75FB7D18461837BD4680BD5E
:1027A00080B582B000AF78607B681B689B79002B96
:1027B0000FD07B689A687B681B685B7B10460021A2
:1027C0001A46FEF79BFD7B689B6818460021FFF7C1
:1027D00031FF7B681B68DB79002B0FD07B689A6820
:1027E0007B681B689B7B104602211A46FEF786FD1C
:1027F0007B689B6818460221FFF71CFF7B681B68FB
:102800001B7A002B0FD07B689A687B681B68DB7B88
:10281000104603211A46FEF771FD7B689B68184637
:102820000321FFF707FF7B681B685B7A002B0FD043
:102830007B689A687B681B681B7C104601211A46DE
:10284000FEF75CFD7B689B6818460121FFF7F2FEEE
:102850007B681B689B7A002B0FD07B689A687B682B
:102860001B685B7C104608211A46FEF747FD7B6813
:102870009B6818460821FFF7DDFE7B681B68DB7A42
:10288000002B0FD07B689A687B681B689B7C104686
:1028900009211A46FEF732FD7B689B68184609211C
:1028A000FFF7C8FE7B681B681B7B002B0FD07B6883
:1028B0009A687B681B68DB7C10460A211A46FEF783
:1028C0001DFD7B689B6818460A21FFF7B3FE083799
:1028D000BD4680BD80B582B000AF78607B689A68E5
:1028E0007B681B685B69104601211A46FEF77EFC77
:1028F0007B689A687B681B689B69104602211A46B0
:10290000FEF774FC7B689A687B681B68DB6910467D
:1029100003211A46FEF76AFC7B681B6893F8203097
:10292000002B0ED07B6899687B681B6893F8202089
:102930007B681B6893F82130084611461A46FEF75B
:102940009FFA7B681B6893F82230002B0ED07B68BF
:1029500099687B681B6893F822207B681B6893F852
:102960002330084611461A46FEF7B8FA7B681B6802
:1029700093F82430002B09D07B689A687B681B6829
:1029800093F8243010461946FEF762FB7B681B68FB
:1029900093F82530002B09D07B689A687B681B6808
:1029A00093F8253010461946FEF738FB7B681B6804
:1029B00093F82630002B09D07B689A687B681B68E7
:1029C00093F8263010461946FEF70EFB7B681B680D
:1029D00093F82730002B09D07B689A687B681B68C6
:1029E00093F8273010461946FEF7A4FA7B681B6857
:1029F00093F82830002B0FD07B6898687B681B68A1
:102A000093F828107B681B6893F829207B681B6863
:102A100093F82A30FEF7A8FA7B681B6893F82E30EB
:102A2000032B19D17B6899687B681B6893F8302069
:102A30007B681B6893F82F30084611461A46FEF74C
:102A400039FB7B681B6893F82D30002B04D07B6822
:102A50009B681846FFF79AFD7B681B6893F82B303C
:102A6000022B17D17B681B6893F82C30032B11D1F4
:102A70007B6899687B681B689A697B681B68DB695F
:102A8000084611461A46FEF74FFB7B689B681846BE
:102A9000FEF7F8FA0837BD4680BD00BF80B584B0A8
:102AA00000AF78600123FB737B681B7F012B03D091
:102AB0007B681B7F032B17D17B685A687B685B7B25
:102AC00010461946FFF74EFD7B681B6893F82030CF
:102AD000002B04D17B689B681846FFF767FD7B6875
:102AE00002221A770023FB73FB7B18461037BD4682
:102AF00080BD00BF80B586B000AF7860396001232B
:102B0000FB757B681B7F002B2DD03B6842F2107257
:102B1000934228D87B689B681846FFF761FD0346FF
:102B200001333B613B68C3F51C5310333A6902FB28
:102B300003F30F4AA2FB03235B0BFB607B689A68DD
:102B4000FB689BB210461946FFF758FD7B685A6830
:102B50007B681B6910461946FFF75EFD7B683A6883
:102B60005A620023FB75FB7D18461837BD4680BDB1
:102B70005917B7D180B400AF044BDB6803F4E063AE
:102B80001B0A1846BD465DF8047B704700ED00E067
:102B900080B483B000AF0346FB7197F90730002B78
:102BA0000BDB084997F907305B09FA7902F01F023D
:102BB000012000FA02F241F823200C37BD465DF8EF
:102BC000047B704700E100E080B483B000AF0346AF
:102BD0003960FB7197F90730002B0ADB0D4997F933
:102BE00007303A68D2B29200D2B20B4483F8002385
:102BF0000AE00949FB7903F00F03043B3A68D2B2BB
:102C00009200D2B20B441A760C37BD465DF8047BB5
:102C1000704700BF00E100E000ED00E080B489B043
:102C200000AFF860B9607A60FB6803F00703FB61EE
:102C3000FB69C3F10703062B28BF0623BB61FB69B1
:102C40000633062B02D9FB69013B00E000237B61C0
:102C5000BB69012202FA03F35A1EBB681A407B6962
:102C60009A407B69012101FA03F3591E7B680B40EE
:102C7000134318462437BD465DF8047B704700BFF8
:102C800080B582B000AF78607B681B785BB2184675
:102C9000FFF77EFF0837BD4680BD00BF90B583B00B
:102CA00000AF78607B681C78FFF764FF01467B68A3
:102CB0005B781A467B689B78084611461A46FFF7F0
:102CC000ADFF024663B218461146FFF77DFF7B68F1
:102CD000DB78002B02D07868FFF7D2FF002318467C
:102CE0000C37BD4690BD00BF80B483B000AF7860A4
:102CF0007B68DB6843F480727B68DA600C37BD4622
:102D00005DF8047B704700BF80B582B000AF78608B
:102D10007B685B7B83F00103DBB2002B0FD07B6809
:102D20009A687B681B7B10461946FEF739F87B686A
:102D30009B681846FFF7D8FF7B6801225A7300236F
:102D400018460837BD4680BD80B582B000AF7860B8
:102D50007B6819687B681A7C7B68043308461146D7
:102D60001A46FDF721FB7B6819687B681A7C7B6833
:102D70005B7C084611461A46FEF718FB00231846EE
:102D80000837BD4680BD00BF80B485B000AF786015
:102D90007B6803F00703FB600C4BDB68BB60BA6821
:102DA0004FF6FF031340BB60FB681A02BB68134376
:102DB00043F0BF6343F40033BB60044ABB68D36095
:102DC0001437BD465DF8047B704700BF00ED00E09E
:102DD00080B582B000AF0120FFF7D6FF72B6214B5D
:102DE000214A9A60BFF34F8F62B61E4A1D4BD3F83B
:102DF000883043F47003C2F888301C4B03F58053CD
:102E000014331B687B607B6823F00F037B607B6857
:102E100043F003037B60154B03F5805314337A684A
:102E20001A60104A0F4B5B6923F0100353610D4A7F
:102E30000C4B5B6923F0080353610A4A094B5B6A38
:102E400023F480335362074A064B5B6A23F4003352
:102E50005362044A034B5B6A23F4802353620837AE
:102E6000BD4680BD00ED00E00000000800100058E5
:102E700080B485B000AF78600023FB737B680122CB
:102E80001A70FB7B18461437BD465DF8047B70470B
:102E900080B400AF024B1846BD465DF8047B704716
:102EA000001BB700B0B586B000AF124B3C1D1D46ED
:102EB0000FCD0FC42B6823603B1D1846FDF74EFB5A
:102EC0000020FDF749FC0020FDF7FEFB0420FDF784
:102ED000CFFC01202021FDF717FD0020FDF708FCA5
:102EE0000120FDF7EDFC0120FDF7D6FC1837BD46AB
:102EF000B0BD00BF4464000880B582B000AF0023BD
:102F0000FB711948FFF7B4FF0346FB71FB79002BF7
:102F100004D11648FEF7BEFD0346FB71FB79002B7A
:102F200004D11348FFF710FF0346FB71FB79002B18
:102F300004D11048FFF79EF90346FB71FB79002B83
:102F400004D10D48FFF7AAFE0346FB71FB79002B65
:102F500004D10A48FFF784FB0346FB71FB7918464E
:102F60000837BD4680BD00BF2401002000000020BE
:102F7000306400080C0000202C640008340000209D
:102F800080B483B000AF78600B46FB70FB784FF0E5
:102F900001129A407B685A600C37BD465DF8047B8D
:102FA000704700BF80B483B000AF78607B689B68D7
:102FB0001B7EDBB218460C37BD465DF8047B7047BC
:102FC00080B582B000AF78607B681A687B681B7C34
:102FD00010461946FFF7D4FF0837BD4680BD00BF35
:102FE00080B582B000AF78607B68642202FB03F397
:102FF0007B600A4B01221A7009487968FFF7B4F91F
:103000000748FFF755F900BF044B1B78002BFBD195
:103010000348FFF76BF90837BD4680BD98000020D4
:103020000C00002080B485B000AF0023FB734BE0A0
:10303000FB7B784A2C2101FB03F3134400229A8086
:10304000FB7B744A2C2101FB03F313440833002259
:103050001A60FB7B6F4A2C2101FB03F313440833F6
:103060004FF000025A60FB7B6A4A2C2101FB03F3FC
:10307000134410334FF000021A60FB7B654A2C2189
:1030800001FB03F3134400225A70FB7B614A2C219D
:1030900001FB03F3134400221A70FB7B5D4A2C21D1
:1030A00001FB03F31344183340F61C425A80FB7BA8
:1030B000584A2C2101FB03F31344183342F604123F
:1030C0009A80FB7B0133FB73FB7B032BB0D94FF062
:1030D00000037B604FF00003BB600023BB730DE077
:1030E000BB7BBA7B1032D0B24A4A2C2101FB03F3DE
:1030F000134402469A70BB7B0133BB73BB7B072B27
:10310000EED900237B7300233B7378E03B7B424A7C
:10311000582101FB03F313447A7B1A707B7B013344
:103120007B733B7B3C4A582101FB03F313447A7BBE
:103130005A707B7B01337B733B7B374A582101FB01
:1031400003F31344183304333A1D92E8030083E871
:1031500003003B7B304A582101FB03F31344403307
:103160004FF000025A603B7B2B4A582101FB03F3CE
:10317000134440334FF000021A603B7B264A58212B
:1031800001FB03F3134438334FF000021A603B7B1A
:10319000214A582101FB03F3134438334FF0000256
:1031A0005A603B7B1C4A582101FB03F3134408334C
:1031B00004333A1D92E8030083E803003B7B164A80
:1031C000582101FB03F31344144A9A603B7B124AD3
:1031D000582101FB03F313444FF000025A603B7B7C
:1031E0000D4A582101FB03F31344103304333A1DF5
:1031F00092E8030083E803003B7B01333B733B7B96
:10320000032B83D9064BCC221A701437BD465DF8C8
:10321000047B704748010020A802002000001643EC
:103220003C01002080B400AF034B00221A70BD4661
:103230005DF8047B704700BF9800002080B584B023
:1032400000AF0346FB71FB790A2B1CD10023FB73F3
:1032500015E0FB7B1033DAB2174B5A70164BA122E4
:103260009A70154BDD22DA70042000F00BFA134B34
:103270001B881846FFF7B4FEFB7B0133FB73FB7B17
:10328000072BE6D904E0FB791033DAB20A4B5A7007
:10329000094BA1229A70084BDD22DA70042000F05D
:1032A000F1F9064B1B881846FFF79AFE00231846D3
:1032B0001037BD4680BD00BF3C01002096000020B5
:1032C00080B500AF1A4B1B78CC2B07D1184B1A785E
:1032D000184B1A70184B01221A7023E0144B1B78FC
:1032E000DD2B0ED1144B1B780133124ADD21D15452
:1032F000114B1B780133DAB20F4B1A7000F026F82D
:1033000010E00D4B1B78082B0CD80B4B1B781A4682
:10331000074B1978074B9954074B1B780133DAB2E6
:10332000054B1A70054802490122FEF7E1FB80BDFA
:103330002C010020300100202D0100200000002081
:1033400080B400AFBD465DF8047B704780B483B0A5
:1033500000AF314B1B78CC2B58D12F4B5A782F4BC9
:103360001B789A4252D12C4B9B78103BFB712A4B15
:10337000DB78A12B0AD1FB79274A1079284A2C2126
:1033800001FB03F3134402465A703FE0224BDB7803
:10339000A32B14D1FB79204A1079214A2C2101FB5F
:1033A00003F3134402465A70FB791B4A50791C4AB6
:1033B0002C2101FB03F3134402461A7026E0FB792B
:1033C000154AD278120291B2134A127992B20A4384
:1033D00090B2134A2C2101FB03F3134402469A8056
:1033E000FB790D4A527911060B4A92791204114366
:1033F000094AD27912020A430749097A0A4308495D
:103400002C2000FB03F30B4408331A600C37BD4635
:103410005DF8047B704700BF30010020940000205D
:103420004801002080B582B000AF78607B681B78CF
:1034300018467B681B7819468D4A2C2303FB01F341
:1034400013442833D3ED007A9FED8A7A27EE877AEA
:10345000894BD3ED007AC7EE277AFCEEE77AC7ED09
:10346000007A3B8899B2824A2C2303FB00F3134471
:1034700018330A461A807B685B7818467B685B784D
:1034800019467B4A2C2303FB01F313442833D3ED65
:10349000007A9FED787A27EE877A774BD3ED007A22
:1034A000C7EE277AFCEEE77AC7ED007A3B8899B23F
:1034B0006F4A2C2303FB00F3134418330A461A8087
:1034C0007B681B7819466A4A2C2303FB01F31344DB
:1034D0009A786A4B5A707B681B781946644A2C2389
:1034E00003FB01F3134418331B881B0A9BB2DAB2A7
:1034F000624B9A707B681B7819465D4A2C2303FB4C
:1035000001F3134418331B88DAB25C4BDA707B6822
:103510001B781946564A2C2303FB01F31344183336
:103520005B881B0A9BB2DAB2544B1A717B681B781A
:1035300019464F4A2C2303FB01F3134418335B88CD
:10354000DAB24E4B5A717B681B781946484A2C23D5
:1035500003FB01F3134418339B881B0A9BB2DAB2B6
:10356000464B9A717B681B781946414A2C2303FB12
:1035700001F3134418339B88DAB2404BDA713F4BA6
:10358000DD221A72092000F07DF83D4B1B88184699
:10359000FFF726FD7B685B781946354A2C2303FB31
:1035A00001F313449A78354B5A707B685B7819465F
:1035B0002F4A2C2303FB01F3134418331B881B0AE7
:1035C0009BB2DAB22D4B9A707B685B781946284A19
:1035D0002C2303FB01F3134418331B88DAB2274B67
:1035E000DA707B685B781946214A2C2303FB01F3D0
:1035F000134418335B881B0A9BB2DAB21F4B1A7153
:103600007B685B7819461A4A2C2303FB01F31344A9
:1036100018335B88DAB2194B5A717B685B781946AC
:10362000134A2C2303FB01F3134418339B881B0A12
:103630009BB2DAB2114B9A717B685B7819460C4ADF
:103640002C2303FB01F3134418339B88DAB20B4B92
:10365000DA710A4BDD221A72092000F013F8084BC8
:103660001B881846FFF7BCFC0837BD4680BD00BF6D
:103670004801002000FEFF466C0000203C010020B5
:103680009600002080B582B000AF0346FB71FB7945
:1036900009480A491A46FEF70FFA00BF0648FFF725
:1036A00081FC0346002BF9D1034805490122FEF7AE
:1036B0001FFA0837BD4680BD000000203C010020F5
:1036C0002C01002080B58AB000AF78607B685B6811
:1036D0007B627B689B683B62764BD3ED007AB0EEF1
:1036E000007A87EE877AD7ED097A37EE677A714BE1
:1036F000D3ED007AF0EE006AC7EEA66AD7ED097A3C
:1037000076EEE77A27EE277AD7ED086AD7ED087AC2
:1037100066EEA77A77EE277A17EE900A00F0F2FDB0
:10372000F861644BD3ED007AB0EE007A87EE877AC9
:10373000D7ED097A37EE277A5E4BD3ED007AF0EEBB
:10374000006AC7EEA66AD7ED097A76EEA77A27EE69
:10375000277AD7ED086AD7ED087A66EEA77A77EE72
:10376000277A17EE900A00F0CDFDB861524B93ED29
:10377000007A514BD3ED007A27EE277AD7ED076A0E
:10378000D7ED077A66EEA77A37EE277A4B4BD3ED63
:10379000006A4A4BD3ED007A66EEA77A37EE677A75
:1037A000454BD3ED007A77EEA76AD7ED077A66EE40
:1037B000A77AC7EE277AC7ED057A786900F0FEFC94
:1037C00078613D4B93ED007A3B4BD3ED007A27EEC9
:1037D000277AD7ED066AD7ED067A66EEA77A37EE36
:1037E000277A364BD3ED006A344BD3ED007A66EE80
:1037F000A77A37EE677A304BD3ED007A77EEA76A77
:10380000D7ED067A66EEA77AC7EE277AC7ED047A77
:10381000386900F0D3FC3861264BD3ED007AB0EE66
:10382000007A87EE877AD7ED097A37EE677AD7ED97
:10383000077AC7EE277A17EE900A00F011FDF860BC
:103840001C4BD3ED007AB0EE007A87EE877AD7ED85
:10385000097A37EE277AD7ED067AC7EE277A17EE80
:10386000900A00F0FDFCB8607B681B78194697ED64
:10387000057AD7ED037A77EE677A114A2C2303FB9A
:1038800001F313442833C3ED007A7B685B78194653
:1038900097ED047AD7ED027A77EE677A084A2C23FF
:1038A00003FB01F313442833C3ED007A2837BD46E8
:1038B00080BD00BF78000020700000207400002050
:1038C0004801002080B52DED028B86B000AFC54BBE
:1038D00093ED007AC44BD3ED007A67EE277AB0EE11
:1038E000087AC7EE877AC7ED037AC04BD3ED007A2A
:1038F00097ED037AC7EE277AC7ED027ABA4BD3ED7C
:10390000007AB1EE087AC7EE877AB94BC3ED017A37
:10391000B84B1B68B64A9360B34BD3ED007AF1EE17
:10392000677AB0EE007AC7EE877AB14BC3ED177AAB
:10393000B04B1B68AE4A1366AB4BD3ED007AB1EEC9
:10394000087AC7EE877AAA4BC3ED2D7AA94B1B687C
:10395000A74AC2F8B830A44BD3ED007AF1EE677AEB
:10396000B0EE007AC7EE877AA14BC3ED437AA14B44
:103970001B689F4AC2F8103141F288337B609E4B2E
:10398000D3ED007AB1EE007AC7EE877AC7ED007A00
:103990009A4B1B78012B40F0B180954B93ED017A47
:1039A000D7ED037A77EE677A914BC3ED017A914BAD
:1039B0001B688F4A9360924B93ED007A914BD3ED45
:1039C000007AF0EE006AC7EEA67A77EE677A17EE15
:1039D000900A00F0A5FB07EE100A834BD3ED007AA6
:1039E00067EE277A824BC3ED177A854B93ED007A09
:1039F000844BD3ED007AF0EE006AC7EEA67A77EE3C
:103A0000677A17EE900A00F045FB07EE100A7A4B32
:103A1000D3ED007A27EE277A764BD3ED007A77EE56
:103A2000277A734BC3ED187A714B93ED2D7AD7ED4E
:103A3000037A77EE277A6E4BC3ED2D7A6D4B93EDBB
:103A4000007AD7ED007A77EE677A694BC3ED2E7A6C
:103A5000674B93ED437AD7ED037A77EE277A644B81
:103A6000C3ED437A634B1B68614AC2F810310023EF
:103A7000FB750BE0FB7D582202FB03F35C4A134409
:103A80001846FFF71FFEFB7D0133FB75FB7D032B03
:103A9000F0D90023BB750BE0BB7D582202FB03F37A
:103AA000534A13441846FFF7BDFCBB7D0133BB7579
:103AB000BB7D032BF0D9524B93ED007A494BD3EDEC
:103AC000007A77EE277A4E4BC3ED007A7868FFF7DD
:103AD00087FA4B4B93ED007A4A4BD3ED007AB4EE64
:103AE000E77AF1EE10FA09DB444B1B780133DAB2C6
:103AF000424B1A70424B4FF000021A603F4B1B784A
:103B0000022B40F0C5803A4B93ED017AD7ED037A52
:103B100077EE677A364BC3ED017A364B1B68344A31
:103B20009360334B93ED177AD7ED037A77EE677A8C
:103B30002F4BC3ED177A2F4B93ED007AD7ED007A18
:103B400077EE677A2A4BC3ED187A274BD3ED007ACC
:103B5000B1EE678A2A4B93ED007A2A4BD3ED007AB7
:103B6000F0EE006AC7EEA67A77EE677A17EE900A53
:103B700000F0D6FA07EE900A68EE277A1C4BC3EDE8
:103B80002D7A1F4B93ED007A1E4BD3ED007AF0EEA9
:103B9000006AC7EEA67A77EE677A17EE900A00F011
:103BA00079FA07EE100A144BD3ED007A27EE277A44
:103BB000104BD3ED007A77EE277A0D4BC3ED2E7ABA
:103BC0000B4B93ED437AD7ED037A77EE277A084BC8
:103BD000C3ED437A074B1B68054AC2F81031002336
:103BE0007B751DE07C0000208000002090000020FC
:103BF000A802002088000020840000208C00002003
:103C0000280100206C0000207B7D582202FB03F37A
:103C1000BD4A13441846FFF755FD7B7D01337B7584
:103C20007B7D032BF0D900233B750BE03B7D5822B5
:103C300002FB03F3B44A13441846FFF7F3FB3B7D42
:103C400001333B753B7D032BF0D9B04B93ED007AEC
:103C5000AF4BD3ED007A77EE277AAC4BC3ED007A09
:103C60007868FFF7BDF9A94B93ED007AA94BD3ED26
:103C7000007AB4EEE77AF1EE10FA09DBA64B1B7876
:103C80000133DAB2A44B1A70A04B4FF000021A6055
:103C9000A14B1B78032B40F0B1809C4B93ED007A35
:103CA0009C4BD3ED007AF0EE006AC7EEA67A77EE71
:103CB000677A17EE900A00F033FA07EE100A974B76
:103CC000D3ED007A67EE277A8F4BC3ED017A8F4BE5
:103CD00093ED007A8F4BD3ED007AF0EE006AC7EED9
:103CE000A67A77EE677A17EE900A00F0D3F907EE1E
:103CF000100A8B4BD3ED007A27EE277A894BD3ED50
:103D0000007A77EE277A804BC3ED027A7E4B93EDF3
:103D1000177AD7ED037A77EE677A7B4BC3ED177A84
:103D2000804B1B68784A1366774B93ED2D7AD7ED5D
:103D3000037A77EE277A744BC3ED2D7A794B1B68A3
:103D4000714AC2F8B830704B93ED437AD7ED037ADD
:103D500077EE277A6C4BC3ED437A724B93ED007A82
:103D6000D7ED007A77EE677A674BC3ED447A00238C
:103D7000FB740BE0FB7C582202FB03F3624A134402
:103D80001846FFF79FFCFB7C0133FB74FB7C032B85
:103D9000F0D90023BB740BE0BB7C582202FB03F379
:103DA000594A13441846FFF73DFBBB7C0133BB74F3
:103DB000BB7C032BF0D9554B93ED007A544BD3EDDC
:103DC000007A77EE277A514BC3ED007A7868FFF7D7
:103DD00007F94E4B93ED007A4E4BD3ED007AB4EEDB
:103DE000E77AF1EE10FA09DB4B4B1B780133DAB2BC
:103DF000494B1A70454B4FF000021A60464B1B7836
:103E0000042B40F0C080404B93ED017AD7ED037A4C
:103E100077EE677A3C4BC3ED017A424B93ED007A23
:103E2000D7ED007A77EE677A374BC3ED027A364BDF
:103E300093ED177AD7ED037A77EE677A324BC3EDBD
:103E4000177A384B1B68304A13662F4B93ED2D7A47
:103E5000D7ED037A77EE277A2B4BC3ED2D7A314BD2
:103E60001B68294AC2F8B8302C4BD3ED007AB1EE6A
:103E7000678A264B93ED007A264BD3ED007AF0EE5D
:103E8000006AC7EEA67A77EE677A17EE900A00F01E
:103E900047F907EE900A68EE277A1B4BC3ED437A89
:103EA0001A4B93ED007A1B4BD3ED007AF0EE006ACB
:103EB000C7EEA67A77EE677A17EE900A00F0EAF876
:103EC00007EE100A164BD3ED007A27EE277A154B32
:103ED000D3ED007A77EE277A0B4BC3ED447A0023BB
:103EE0007B740BE07B7C582202FB03F3064A1344ED
:103EF0001846FFF7E7FB7B7C01337B747B7C032B4D
:103F0000F0D900233B741BE0A80200202801002008
:103F10007C0000206C0000208C000020800000202D
:103F200084000020880000203B7C582202FB03F321
:103F3000154A13441846FFF775FA3B7C01333B746E
:103F40003B7C032BF0D9114B93ED007A104BD3ED52
:103F5000007A77EE277A0D4BC3ED007A7868FFF789
:103F60003FF80A4B93ED007A0A4BD3ED007AB4EE9A
:103F7000E77AF1EE10FA06DB074B01221A70034BC9
:103F80004FF000021A6003E5A8020020280100207B
:103F90007C0000206C0000208C00002080B582B0E6
:103FA00000AFFEF7A9FF03467B7106E04CF25030EC
:103FB000FFF716F82F48FFF703F87B79012BF5D0B0
:103FC0002D48FEF74DFB2C48FEF768FD2A4840F2CD
:103FD000DC51FEF78FFD2948FFF702F8FFF722F8C2
:103FE00005E02748FEF7FCFF2248FEF7E9FF254BD6
:103FF0001B78002BF5D00A20FFF720F91D48FEF7AB
:10400000DFFF0123FB7118E0FB791F4A508B1E4A2A
:104010002C2101FB03F31344183302465A80FB7929
:10402000194A908B184A2C2101FB03F313441833CF
:1040300002469A80FB790133FB71FB79072BE3D9A8
:10404000FFF740FC0023BB7102E0BB790133BB7179
:10405000BB79032BF9D90D4B93ED007A0C4BD3EDC3
:10406000007A77EE277A094BC3ED007A0148FEF714
:10407000A7FFC3E7306400083400002090D003009D
:1040800020A107002E010020480100202801002067
:104090007C00002000B585B0204A0190019B23F0F0
:1040A000004393421DDDB3F1FF4F08DBDDED017AE4
:1040B00077EEE77A17EE900A05B05DF804FB02A9E7
:1040C00000F0ACFB00F00302012A0298039919D01A
:1040D000022A10D0EAB1012201F0E0F807EE900ABE
:1040E000E8E7002100F03CFD07EE900A17EE900A89
:1040F00005B05DF804FB00F033FD07EE900AF1EE29
:10410000677AD7E701F0CAF807EE900AF1EE677A0E
:10411000D0E700F025FD07EE900ACBE7D80F493F26
:1041200000B585B0244A0190019B23F000439342DF
:104130001EDDB3F1FF4F08DBDDED017A77EEE77AA4
:1041400017EE900A05B05DF804FB02A900F066FBCB
:1041500000F00300012820D0022814D020B30298D8
:10416000039900F0FDFC07EE900AF1EE677AE7E7AD
:104170000021002201F092F807EE900A17EE900A53
:1041800005B05DF804FB02980399012201F086F85E
:1041900007EE900AF1EE677AD2E70298039900F0F1
:1041A000DFFC07EE900ACBE702980399012201F0A9
:1041B00075F807EE900AC3E7D80F493F70B5254D53
:1041C0008AB0064600F0F6F895F90030013304464F
:1041D00003D0304601F016F910B920460AB070BD80
:1041E000304601F0B1F807EE100AF7EE007AB4EEAF
:1041F000E77AF1EE10FAF0DD0123174A009330461A
:1042000000230192089301F001FB02460B4613487C
:10421000CDE90423CDE9022301F090F895F90030AF
:10422000022BCDE906010BD0684601F085F838B1C4
:10423000089B53B9DDE9060101F04EFD0AB070BDDF
:1042400002F066F821230360F2E702F061F8089BB0
:104250000360EFE7990000205864000860640008DC
:1042600070B5254D8AB0064600F0CEF995F90030BC
:104270000133044603D0304601F0C4F810B920469B
:104280000AB070BD304601F05FF807EE100AF7EE95
:10429000007AB4EEE77AF1EE10FAF0DD0123174A66
:1042A0000093304600230192089301F0AFFA0246D2
:1042B0000B461348CDE90423CDE9022301F03EF873
:1042C00095F90030022BCDE906010BD0684601F0CC
:1042D00033F838B1089B53B9DDE9060101F0FCFC65
:1042E0000AB070BD02F014F821230360F2E702F077
:1042F0000FF8089B0360EFE7990000206464000852
:104300006064000830B52DED028B284D8BB008EEAF
:10431000100A00F0CFFB95F900300133044609D0B4
:1043200018EE100A01F06EF820B1B5EEC08AF1EE79
:1043300010FA04D420460BB0BDEC028B30BD012333
:104340001B4A009318EE100A00230192089301F013
:104350005DFA2C78CDE90401CDE902018CB9002287
:104360000023CDE90623684600F0E6FF98B1089BDC
:10437000B3B9DDE9060101F0AFFC0BB0BDEC028B77
:1043800030BD0020002102460B4601F0BDFB022C8F
:10439000CDE90601E7D101F0BBFF21230360E6E789
:1043A00001F0B6FF089B0360E3E700BF990000201F
:1043B0006C64000808B520F00043B3F17E5F2DED7A
:1043C000028B07EE900A16D00CDCB3F17C5F1FDA8B
:1043D000B3F10C5F70DCBDEC028BDFED7A7A17EE87
:1043E000900A08BD77EEE77AC7EEA77ABDEC028B9C
:1043F00017EE900A08BDBDEC028BDFED737A9FEDDE
:10440000737A0028D8BFF0EE477A17EE900A08BDFD
:104410000028C0F28E80F7EE008A78EEE77AB6EEDA
:10442000008A27EE888A18EE100A00F043FB9FED01
:10443000687A9FED683A9FED684ADFED682ADFED04
:10444000683A9FED685ADFED684ADFED686ADFED94
:10445000685ADFED687AA8EE073A20F47F6323F00C
:104460000F03E8EE223AA3EE084AE3EE884AA4EEF0
:10447000085AE4EE885AE5EE086A07EE103AE6EECE
:10448000887AF0EE486A06EE100AE5EE888AE7EED2
:10449000476A67EE887A76EE075A87EEA88AC6EEF4
:1044A000A57AE8EE067ABDEC028B77EE277A77EEF6
:1044B000A77A17EE900A08BD27EEA77A9FED441A57
:1044C000DFED442ADFED443ADFED441A9FED443A34
:1044D000DFED445A9FED444ADFED444A9FED445AD4
:1044E000DFED446A9FED446A9FED442AE7EE012A1E
:1044F000BDEC028BE2EE873AA7EE213AE3EE875A53
:10450000A3EE074AE5EE874AA4EE075AE4EE876A6F
:10451000F7EE005AE5EE075A26EE877A87EE257AFF
:10452000A7EEC76A77EEC67A72EE677A17EE900A40
:1045300008BDB7EE008A77EE887AB6EE007A67EEAD
:10454000877ADFED232ADFED233A9FED243ADFED72
:10455000224A9FED234ADFED235A9FED235ADFEDD8
:10456000236A9FED236A9FED237AE7EEA23AA7EE36
:10457000834AE3EEA74AA4EE275AE4EEA75AA5EE33
:10458000276AE5EEA76AA6EE278AA6EEA77AF0EEDE
:10459000488A27EE278A17EE900A00F08BFA88EEF9
:1045A000288A06EE900A9FED167ADFED167AA8EEBD
:1045B000267A06EE100A37EE067AF0EE006AE7EE8B
:1045C000667A13E7DB0FC93F00000000DB0F4940AC
:1045D00008EF1138047F4F3A461124BD2EC69D3D89
:1045E000613330BFA80A4E3E2D57014090B0A6BEA1
:1045F00039D119C0ABAA2A3E6821A233DA0FC93FCC
:104600006821A2B3DA0F494038B520F00044B4F174
:104610007E5F2DED048B07EE900A054600F0998031
:104620007FDCB4F17C5F0EDAB4F1485F80F2A080E9
:104630009FED6A7A37EE877AF7EE006AB4EEE67A93
:10464000F1EE10FA71DC17EE900A00F07DFE07EE35
:10465000900AF7EE008A38EEE78AF6EE007A28EE46
:10466000278A9FED5F3A9FED5F4ADFED5F3A9FED4E
:104670005F5ADFED5F4A9FED5F6ADFED5F5ADFED66
:104680005F6A9FED5F7ADFED5F7AA8EE034AE8EE9E
:10469000234AA4EE085AE4EE885AA5EE086AA5EE6D
:1046A000887AE6EE086AE7EE088AE6EE887A18EE7F
:1046B000100AB0EE689A67EE888A00F0FBF9524B58
:1046C0009C4206EE900A35DC20F47F6323F00F0352
:1046D00007EE903AF1EE675AA5EEA78A76EEA77A32
:1046E000C8EE898A88EE278ADFED487A9FED487AFE
:1046F000B0EE006AE8EE467A76EEA66AB0EE475A69
:10470000A5EE865AD6EEA87A77EEC57A77EE677A66
:10471000BDEC048B002DD8BFF1EE677A17EE900A3E
:1047200038BD77EEE77AC7EEA77ABDEC048B17EEBB
:10473000900A38BDC8EE898ADFED367A9FED367A69
:10474000E6EEA86AB0EE006AE6EE867A77EE677A61
:10475000DEE79FED2E7ADFED306A27EE877ABDEC3B
:10476000048BA7EEA67AF0EE477A17EE900A38BDD2
:1047700027EEA77A9FED1A2A9FED1A3A9FED1B4A62
:10478000DFED192ADFED1A3A9FED1A6ADFED1A4ABA
:104790009FED1A5ADFED1A5ADFED1A6AA7EE023AB8
:1047A000BDEC048BA3EE074AE7EE223AA4EE076ABB
:1047B000E3EE874AA6EE075AE4EE875AE5EE076A6B
:1047C000B7EE006AA5EE876A26EE877A87EE067A4C
:1047D000E7EE877A17EE900A38BD00BFCAF249713A
:1047E00008EF1138047F4F3A2EC69D3D461124BD77
:1047F000613330BFA80A4E3E2D57014090B0A6BE8F
:1048000039D119C0ABAA2A3E9999793F2EBD3BB345
:10481000DB0F493F2EBD3B33DB0FC93F70B5974AD5
:1048200020F00044944286B006460D4668DD944A66
:1048300094421CDC0028DFED937A934A24F00F04A5
:1048400007EE100A40F3E280944277EE677A67D071
:104850009FED8E7A77EEC76A012077EEE67AC1ED9A
:10486000006A77EEC77AC1ED017A06B070BD884A5A
:10487000944267DDB4F1FF4F48DAE215863AA4EBC3
:10488000C25307EE103AFDEEC76ADFED827AF8EE0A
:10489000E66A37EE667ACDED036A27EE277AFDEEFB
:1048A000C76AF8EEE66A37EE667ACDED046A67EE1F
:1048B000277AF5EE407AF1EE10FACDED057A40F068
:1048C000B880F5EE406AF1EE10FA14BF022301231E
:1048D000714902208DE8030003A8294600F0CAF9B7
:1048E000002E11DA95ED007AD5ED017AB1EE477A16
:1048F000F1EE677A404285ED007AC5ED017A03E07A
:10490000002228604A60002006B070BD07EE900AC1
:1049100077EEE77A0020C1ED017AC1ED007AF3E786
:10492000DFED5E6A9FED5E7A77EEE67A012077EE44
:10493000C76A77EEE67AC1ED006A77EEC77AC1ED15
:10494000017AE1E700F000FD9FED566A9FED4D5AB8
:10495000DFED4E6A07EE100AF6EE007AE7EE067A11
:10496000FDEEE77AB8EEE76A17EE900AF1EE465AE6
:10497000F0EE477A1F28E5EE857A26EE267A1DDCD2
:10498000494A411E24F0FF0352F82120934215D0DA
:1049900077EEC76AC5ED006A77EEE67A002E77EE0D
:1049A000C77AC5ED017AAFDAF1EE666AF1EE677AA1
:1049B000C5ED006AC5ED017A4042A5E777EEC76A0A
:1049C000E41516EE903AC3F3C753E31A082BE1DD62
:1049D0009FED327ADFED326AB0EE675AA5EE875A64
:1049E00077EEC57AE5EE877AD6EE267A75EE676AB7
:1049F000B0EE677A16EE903AC3F3C753E41A192C57
:104A00002CDCC5ED006AF0EE457AC5E7944277EEFE
:104A1000277A10D09FED1D7A77EE876A4FF0FF302E
:104A200077EEE67AC1ED006A77EE877AC1ED017A1A
:104A30006AE703234CE7DFED196A9FED197A77EEF9
:104A4000A67A4FF0FF3077EE876A77EEE67AC1ED0F
:104A5000006A77EE877AC1ED017A55E7DFED136AD8
:104A6000DFED134AF0EE457AE5EEA67A35EE677A89
:104A7000A5EEA67A96EE247A8AE700BFD80F493FC2
:104A8000E3CB1640800FC93FD00FC93F43443537B1
:104A9000800F494300008043F46400080044353728
:104AA00008A3852E84F9223F7464000800A3852E94
:104AB00032318D2420F00042B2F1FF4F70B407EE86
:104AC000900A034632D26AB3002841DBB2F5000FE8
:104AD0004FEAE05130D3A1F17F02C3F31603D107AF
:104AE00043F4000348BF5B00002456105B002546DA
:104AF00019214FF08072A818984202DC1B1A851801
:104B0000144401394FEA43034FEA5202F3D113B17F
:104B100004F001031C44641004F17C5404EBC653FC
:104B200007EE903A17EE900A70BC7047E7EEA77A4E
:104B300070BC17EE900A704710F400020DD15B00B4
:104B4000180202F10102FAD5C2F101021144C2E7D2
:104B500077EEE77AC7EEA77AE4E701221144BAE7D5
:104B600020F00043B3F1485F06EE100A06EE901AFB
:104B70002EDAFDEEC67A17EE903A002B64D026EEC0
:104B8000067ADFED343A9FED344ADFED344A9FED8B
:104B9000345ADFED347ADFED345AA7EE234AE4EEDF
:104BA000074AA4EE875AE5EE077AE7EE875A65EEE4
:104BB000875A66EEC66AB6EE006AE7EE256AF7EE39
:104BC000007AD7EE066A77EEE67A17EE900A70471B
:104BD00026EE067ADFED1F3A9FED1F4ADFED1F4AF2
:104BE0009FED1F5ADFED1F7ADFED1F5A1F4AA7EE18
:104BF000234A9342E4EE074AA4EE875AE5EE077A89
:104C0000E7EE875A65EE875AD3DD194A934216DCE0
:104C100003F17F4307EE903AB7EE005A35EE675A3C
:104C200066EEC66AB6EE006AE7EE256AD7EE067A49
:104C300077EEE67A75EE677A17EE900A7047B6EE71
:104C4000075AF5EE027AEBE7F7EE007A17EE900AD4
:104C5000704700BF4ED747ADF6740F317CF293B466
:104C6000010DD037610BB6BAABAA2A3D9999993E8E
:104C70000000483F2DE9F04F2DED048BD7B05E1EAC
:104C8000A54C649D0293D31E48BF131D54F82550B4
:104C90000191DB1023EAE3736FEA030A71190393AE
:104CA000814602EBCA0AA3EB060314D419446598A3
:104CB00001311AAA002BAABF50F82340DFED977AE2
:104CC00007EE904A03F10103A8BFF8EEE77A8B42A2
:104CD000E2EC017AEED1002D1ADB029B1AA96C1CC2
:104CE00001EB840442A89F00002EC0F2CE81DFEDCC
:104CF0008B7A4A46CB1933ED017AF2EC016A99427C
:104D0000E6EE877AF7D10431A142E0EC017AEBD1EB
:104D1000029ADFED848A9FED828A05F18043013B90
:104D20009B00C2EB827806AA1F1D1344174404930C
:104D30004FEA88082C464FEA840B56AB5B44002CA4
:104D400053ED146A19DD42A901EB0B0305AA66EEC7
:104D5000A87AB0EE667AFDEEE77A33ED016AF8EEF6
:104D6000E77A8B42A7EEC87A77EE866ABDEEC77AFD
:104D700017EE100A42F8040FE9D116EE900A5146D8
:104D800000F05AFB09EE100AF4EE007A69EE277A79
:104D900017EE900A00F0DCFA07EE100AF2EE007A45
:104DA000A7EE679ABAF1000FFDEEC99AF8EEE97A1C
:104DB00039EE679A40F34D81611E06AACAF10803D5
:104DC00052F8210040FA03F202FA03F30DF1180E33
:104DD000C31A4EF8213019EE901A1144CAF1070097
:104DE00009EE901A43FA00FCBCF1000F37DD19EE12
:104DF000903A002C03F1010309EE903A40F3DE8172
:104E00000022104605A908E0C3F5807E13B1C1F861
:104E100000E00120013294420BDD51F8043F0028EC
:104E2000F2D00132C3F1FF0394420B604FF0010056
:104E3000F3DCBAF1000F0FDDBAF1010F00F01181C0
:104E4000BAF1020F08D1621E06AB06A953F8223050
:104E500003F03F0341F82230BCF1020F64D0B5EEFD
:104E6000409AF1EE10FA77D1631E9D420BDC06AA40
:104E7000934400225BF8041DBB4542EA0102F9D1CC
:104E8000002A40F085816B1E06AA52F82330002BC1
:104E900040F09181049B4FF0010C53F8042D0CF16C
:104EA000010C002AF9D0A444631C634531DC039A49
:104EB00003EB020E029A0EF1804EA0180CEB020BCF
:104EC000659A0EF1FF3E02EB8E0E1AAA02EB8000ED
:104ED00002EB8B0B42AA02EB83045EF8043F07EE61
:104EE000903AF8EEE77A002EE0EC017ADFED0B7AEB
:104EF0000BDB4A4600EB0801034633ED017AF2EC86
:104F0000016A8B42E6EE877AF7D15845E4EC017AE4
:104F1000E3D164460FE700BF0C6800080000000002
:104F2000000080430000803BF7EE007A37EEC99A1C
:104F3000002894D017EE900A5146CDF814C000F026
:104F40007BFA07EE900A39EE679ADDF814C0B5EEE9
:104F5000409AF1EE10FA87D019EE100ACAF100015A
:104F6000CDF808C000F068FA5FED136ADDF808C0FC
:104F700007EE100AB4EEE67AF1EE10FAC0F2818183
:104F80005FED187A67EE277A06A9FDEEE77A631CD3
:104F9000F8EEE77A0AF1080AA7EEE67AFDEEE77A7C
:104FA000BDEEC77A17EE102A41F8242017EE902A9A
:104FB00041F8232051464FF07E500393CDF808C0AE
:104FC00000F03AFA039BDDF808C0002B07EE100A48
:104FD000C0F2C2805F1CBA0042A806A95FED2F6A2A
:104FE0001144861871ED017AF8EEE77A67EE877A58
:104FF00027EE267A66ED017A8642F3D1043A16440A
:105000000024002DC0F2A580002CC0F2A280A1488F
:10501000DFEDA17A3146002201E0A24208DCF0EC8B
:10502000016AB1EC017A01329542E6EE877AF4DA50
:1050300056AA02EB84020134BC42A6F1040642EDFA
:10504000287ADED1649A032A65D8DFE802F06D3A47
:105050003AB910D1631E06AA52F823304FEA232C26
:10506000C2E6621E06AB06A953F8223003F07F03A6
:1050700041F82230F0E6F6EE007AB4EEE79AF1EE6F
:1050800010FA0BDA4FF0000CE9E6DFED837A043119
:10509000A142E0EC017A7FF427AE39E619EE903AAE
:1050A000002C03F1010309EE903AC8BF4FF0020C47
:1050B0003FF7A6AEF7EE007A37EEC99A4FF0020C32
:1050C000CDE62EAADFED747A02EB870737ED017A81
:1050D000974277EE877AF9D1BCF1000F48D0DDED29
:1050E0002E6A019AB1EE677A002B76EEE77A82EDAE
:1050F000007A0BDD2FA90122B1EC017A0132934233
:1051000077EE877AF8DABCF1000F01D0F1EE677A1A
:10511000019BC3ED017A19EE903A03F0070057B0F6
:10512000BDEC048BBDE8F08F2EAADFED5B7A02EBBD
:10513000870737ED017A013B5A1C77EE877AF8D161
:10514000BCF1000F01D0F1EE677A019BC3ED007A4C
:10515000E1E7DFED517A6BE7649A032ADBD8DFE8F9
:1051600002F014020283DFED4C7ABCF1000FB6D1DD
:105170009DED2E7A019A002BC2ED007A77EE677AC8
:10518000B8DC019BC3ED017AC5E7DFED437AD7E7D1
:1051900006AAAAF1080A52F82320002A7FF40AAFCF
:1051A00006AA02EB830252F8041D013BAAF1080A89
:1051B0000029F8D0FEE64FF0010C74E6002038E636
:1051C000002B51DD9A0056A911442EAC101D11ED93
:1051D000287A2044A11871ED017A77EE276AA1425E
:1051E00077EEE67A77EE277AB0EE667A60ED017AAE
:1051F000C1ED006AEFD1012B36DD131D56A8104416
:105200000B4410ED287A0A442FA8194672ED017A52
:1052100077EE876A824277EEE67A77EE877AB0EEAB
:10522000667A61ED017AC2ED006AEFD1DFED1A7A9C
:1052300030AA33ED017A934277EE877AF9D1BCF147
:10524000000F16D0DDED2E6A9DED2F7A019AF1EE5A
:10525000677AF1EE666AB1EE477AC2ED027AC2ED84
:10526000006A82ED017A56E7DFED0B7ABCF1000FA0
:10527000E8D101982E9A2F9BC0ED027A026043601C
:1052800049E7BDEEC77A06A917EE102A234641F872
:1052900024208FE6186800080000000020F000437A
:1052A000B3F1485F07EE900A06EE101A04DABDEE7D
:1052B000E77A17EE103A23B327EEA77A9FED174A45
:1052C000DFED174A9FED175ADFED175ADFED176A2A
:1052D000E7EE044A27EE274AA4EE875AE5EE075A7E
:1052E000E5EE876A82B166EEC46AF6EE005AE6EE33
:1052F000256ADFED0F5A96EE876AA4EE256A77EEEF
:10530000C67A17EE900A70479FED0A6AA7EE266AE2
:10531000E6EE047A17EE900A704700BFD3C92E2F2D
:10532000342FD7B21BEF3836010D50B98988083CAD
:10533000ABAA2A3EABAA2ABE002070470020014932
:10534000704700BF0000F87F20F00040704700BFAA
:1053500010B483B00190019A22F00041CB0D7F3B45
:10536000162B19DC002B144628DB24481841104268
:1053700015D0DFED237A9DED017A77EE277AF5EEF1
:10538000C07AF1EE10FA28DD002A29DB24EA0000B9
:1053900003B05DF8044B7047B1F1FF4F04D20198A0
:1053A00003B05DF8044B7047DDED017A77EEA77A24
:1053B00017EE900A03B05DF8044B7047DFED107AEA
:1053C00007EE100A77EE277AF5EEC07AF1EE10FAC2
:1053D000E5DD002A0ADB0020E2E717EE100ADFE72E
:1053E0004FF4000242FA03F31C44CFE70029FFEE1A
:1053F000007A18BF17EE900AD2E700BFFFFF7F00C8
:10540000CAF2497130F0004001D102207047A0F586
:105410000003B3F1FE4F01D204207047054B421E3A
:105420009A4201D803207047A0F1FF40B0FA80F003
:1054300040097047FEFF7F0000B52DED028B83B061
:105440000190019B33F0004223D0B2F1FF4F15D2FF
:10545000B2F5000F26D3D20D0A44FE2A3CDC002A06
:1054600030DD23F0FF4343EAC25307EE903A17EED4
:10547000900A03B0BDEC028B5DF804FB07EE900AC6
:1054800077EEA77A17EE900A03B0BDEC028B5DF8B9
:1054900004FBDDED017A17EE900A03B0BDEC028B40
:1054A0005DF804FB9DED017ADFED1E7A1E4B67EE81
:1054B000277A9942CDED017A20DB019BC3F3C752D5
:1054C000193AC9E712F1160F1FDA4CF2503399421C
:1054D00002DC9FED168A01E09FED158A019918EE16
:1054E000100A00F029F807EE900A67EE887A17EEA6
:1054F000900A03B0BDEC028B5DF804FBDFED0B7A84
:105500009DED017A67EE277ABCE7193223F0FF435D
:1055100043EAC2539FED077A07EE903A67EE877A27
:10552000B0E700BF0000004CB03CFFFF6042A20D9E
:10553000CAF249710000003301F0004120F0004040
:105540000843704781F0004102E000BF83F0004350
:1055500030B54FEA41044FEA430594EA050F08BF0E
:1055600090EA020F1FBF54EA000C55EA020C7FEAD2
:10557000645C7FEA655C00F0E2804FEA5454D4EB4F
:105580005555B8BF6D420CDD2C4480EA020281EA19
:10559000030382EA000083EA010180EA020281EA51
:1055A0000303362D88BF30BD11F0004F4FEA0131A3
:1055B0004FF4801C4CEA113102D0404261EB4101B2
:1055C00013F0004F4FEA03334CEA133302D0524238
:1055D00063EB430394EA050F00F0A780A4F10104F4
:1055E000D5F1200E0DDB02FA0EFC22FA05F280182E
:1055F00041F1000103FA0EF2801843FA05F3594114
:105600000EE0A5F120050EF1200E012A03FA0EFC92
:1056100028BF4CF0020C43FA05F3C01851EBE371BC
:1056200001F0004507D54FF0000EDCF1000C7EEBD9
:1056300000006EEB0101B1F5801F1BD3B1F5001F17
:105640000CD349085FEA30004FEA3C0C04F1010436
:105650004FEA445212F5800F80F09A80BCF1004F5F
:1056600008BF5FEA500C50F1000041EB045141EAE1
:10567000050130BD5FEA4C0C404141EB010111F4E2
:10568000801FA4F10104E9D191F0000F04BF01468D
:105690000020B1FA81F308BF2033A3F10B03B3F16B
:1056A00020020CDA0C3208DD02F1140CC2F10C02FB
:1056B00001FA0CF021FA02F10CE002F11402D8BF59
:1056C000C2F1200C01FA02F120FA0CFCDCBF41EA25
:1056D0000C019040E41AA2BF01EB0451294330BDF4
:1056E0006FEA04041F3C1CDA0C340EDC04F11404D1
:1056F000C4F1200220FA04F001FA02F340EA0300A8
:1057000021FA04F345EA030130BDC4F10C04C4F1ED
:10571000200220FA02F001FA04F340EA03002946CD
:1057200030BD21FA04F0294630BD94F0000F83F417
:10573000801306BF81F480110134013D4EE77FEAFA
:10574000645C18BF7FEA655C29D094EA050F08BF46
:1057500090EA020F05D054EA000C04BF1946104627
:1057600030BD91EA030F1EBF0021002030BD5FEA6B
:10577000545C05D14000494128BF41F0004130BD93
:1057800014F580043CBF01F5801130BD01F00045E7
:1057900045F0FE4141F470014FF0000030BD7FEA5A
:1057A000645C1ABF194610467FEA655C1CBF0B4655
:1057B000024650EA013406BF52EA033591EA030F6C
:1057C00041F4002130BD00BF90F0000F04BF002164
:1057D000704730B54FF4806404F132044FF0000597
:1057E0004FF0000150E700BF90F0000F04BF002110
:1057F000704730B54FF4806404F1320410F0004576
:1058000048BF40424FF000013EE700BF42004FEA70
:10581000E2014FEA31014FEA02701FBF12F07F43ED
:1058200093F07F4F81F06051704792F0000F14BFEA
:1058300093F07F4F704730B54FF4607401F000452E
:1058400021F0004120E700BF50EA010208BF704785
:1058500030B54FF000050AE050EA010208BF70477A
:1058600030B511F0004502D5404261EB41014FF4E3
:10587000806404F132045FEA915C3FF4DCAE4FF0E7
:1058800003025FEADC0C18BF03325FEADC0C18BFCE
:10589000033202EBDC02C2F1200300FA03FC20FA1F
:1058A00002F001FA03FE40EA0E0021FA02F114446C
:1058B000C1E600BF70B54FF0FF0C4CF4E06C1CEA81
:1058C00011541DBF1CEA135594EA0C0F95EA0C0FF6
:1058D00000F0DEF82C4481EA030621EA4C5123EA69
:1058E0004C5350EA013518BF52EA033541F4801198
:1058F00043F4801338D0A0FB02CE4FF00005E1FB4B
:1059000002E506F00042E0FB03E54FF00006E1FB94
:1059100003569CF0000F18BF4EF0010EA4F1FF04D7
:10592000B6F5007F64F5407404D25FEA4E0E6D4117
:1059300046EB060642EAC62141EA55514FEAC52028
:1059400040EA5E504FEACE2EB4F1FD0C88BFBCF5A4
:10595000E06F1ED8BEF1004F08BF5FEA500E50F155
:10596000000041EB045170BD06F0004646EA01011B
:1059700040EA020081EA0301B4EB5C04C2BFD4EB4D
:105980000C0541EA045170BD41F480114FF0000E46
:10599000013C00F3AB8014F1360FDEBF002001F0B4
:1059A000004170BDC4F10004203C35DA0C341BDC2E
:1059B00004F11404C4F1200500FA05F320FA04F000
:1059C00001FA05F240EA020001F0004221F0004134
:1059D00010EBD37021FA04F642EB06015EEA430EA7
:1059E00008BF20EAD37070BDC4F10C04C4F12005D7
:1059F00000FA04F320FA05F001FA04F240EA02008A
:105A000001F0004110EBD37041F100015EEA430E5A
:105A100008BF20EAD37070BDC4F1200500FA05F27A
:105A20004EEA020E20FA04F301FA05F243EA0203F9
:105A300021FA04F001F0004121FA04F220EA020008
:105A400000EBD3705EEA430E08BF20EAD37070BD4E
:105A500094F0000F0FD101F00046400041EB01012E
:105A600011F4801F08BF013CF7D041EA060195F010
:105A7000000F18BF704703F00046520043EB0303CA
:105A800013F4801F08BF013DF7D043EA06037047B7
:105A900094EA0C0F0CEA135518BF95EA0C0F0CD0C2
:105AA00050EA410618BF52EA4306D1D181EA030108
:105AB00001F000414FF0000070BD50EA410606BF02
:105AC0001046194652EA430619D094EA0C0F02D147
:105AD00050EA013613D195EA0C0F05D152EA03368C
