:020000040C00EE
:100000000008001001020008B1020008B102000857
:10001000B1020008B1020008B102000800000000AF
:10002000000000000000000000000000B102000815
:10003000B102000800000000B1020008B10200088F
:10004000B1020008B1020008B1020008B1020008C4
:10005000B1020008B1020008B1020008B1020008B4
:10006000B1020008000000000000000000000000D5
:10007000B102000800000000B1020008B10200084F
:10008000B1020008B1020008B1020008B102000884
:10009000B1020008B1020008B1020008B102000874
:1000A000B1020008B1020008B1020008B102000864
:1000B000B1020008B1020008B1020008B102000854
:1000C000B1020008B1020008B1020008B102000844
:1000D000B1020008B1020008B1020008B102000834
:1000E000B1020008B1020008B1020008B102000824
:1000F000B1020008B1020008B1020008B102000814
:10010000B1020008B1020008B1020008B102000803
:10011000B1020008B1020008B1020008B1020008F3
:10012000B1020008C9260008B1020008B1020008A7
:10013000B1020008B1020008B1020008B1020008D3
:10014000B1020008B1020008B1020008B1020008C3
:10015000B1020008B1020008B1020008B1020008B3
:10016000000000000000000000000000000000008F
:10017000B1020008B1020008B1020008B102000893
:10018000B1020008B1020008B1020008B102000883
:10019000B1020008B1020008B1020008B102000873
:1001A000B1020008B1020008D51C0008C51C0008F7
:1001B000B1020008B1020008B1020008B102000853
:1001C000B1020008B1020008B1020008B102000843
:1001D000B1020008B1020008B102000800000000EE
:1001E000B1020008B1020008B1020008B102000823
:1001F000B102000800000000B10200080000000089
:10020000DFF88CD023488047234C244DAC4209DAD8
:1002100021686268A368043BA2BFC858D050FAE7BF
:100220000C34F3E71E4B1F4CA34208DA19685A68D6
:100230000020043AA4BF8850FBE70833F4E71A48CB
:1002400080471A48804700007843000C00000020D7
:10025000C00000003844000C000000300000000026
:100260007843000C00080010000000007843000CE8
:100270000008001000000000C0000020A4000000E2
:100280000000003000000000000800100000000026
:1002900000080010B50200084802000878020008B3
:1002A000780200089002000885420008C52C00086A
:1002B000FEE7000098B500AF054A4FF00053144622
:1002C0000FCB84E80F0002F03FF802F0A7F898BDCA
:1002D000C4FF002080B584B000AF2F4BDB6803F46F
:1002E0008033002B3ED02D4BDB6803F00103002B45
:1002F00002D02B4BFB6002E002F086F8F860274B3F
:100300001B6803F00403002B20D0244B9B6803F0F0
:1003100070631B0E0133BB60204B9B6803F4FE43EC
:100320001B0A01337B601D4B9B6803F4FE031B0C0F
:1003300001333B60BB683A6802FB03F3FA68B2FB27
:10034000F3F37A6802FB03F3FB600DE0134B9B6849
:1003500003F07F0301333B60FA683B68B2FBF3F3C1
:10036000FB6001E00E4BFB600B4BDB68DBB2013343
:10037000FA68B2FBF3F3FB60074B1B6903F0010360
:100380000133FA68B2FBF3F3FB60064AFB681360C3
:100390001037BD4680BD00BF0046005010470050DA
:1003A00000366E01C0FF002080B485B000AFF86059
:1003B0000B467A60FB72FB7A9B08DBB21846FB7A2D
:1003C0009B08DBB21A46FB68043253F82220FB7A02
:1003D00003F00303DB001946F8238B40DB4302EAFA
:1003E0000301FB68021D43F82210FB685A6FFB7A79
:1003F0005B00194603238B40DB431A40FB685A67B6
:10040000FB68374A934203D0FB68364A93420AD1CD
:10041000FB681A6EFB7A012101FA03F3DB431A40F1
:10042000FB681A663CE07B685A68FB7A9A40FB6876
:100430005A60FB7ADB08DBB21846FB7ADB08DBB2DA
:100440001A46FB68103253F82220FB7A03F00703A8
:100450009B00194607238B40DB4302EA0301FB683C
:1004600000F1100243F82210FB7ADB08DBB21846D9
:10047000FB7ADB08DBB21A46FB68103253F8222005
:100480007B681B7A1946FB7A03F007039B0001FA8D
:1004900003F342EA0301FB6800F1100243F8221063
:1004A000FB7A9B08DBB21846FB7A9B08DBB21A4644
:1004B000FB68043253F822207B681B781946FB7ACC
:1004C00003F00303DB0001FA03F342EA0301FB68D4
:1004D000021D43F822101437BD465DF8047B7047B7
:1004E000008E0248008F024880B400AF034B1B68A7
:1004F0001846BD465DF8047B704700BFC0FF002072
:1005000080B400AF034BD3F8C4301846BD465DF845
:10051000047B70470040005080B584B000AF786025
:10052000FFF7D8FE0B4B1B680B4AA2FB03239A0C68
:100530007B6802FB03F37B600023FB6003E000BFEA
:10054000FB680133FB60FA687B689A42F7D3103787
:10055000BD4680BDC0FF002083DE1B43B0B584B024
:1005600002AF7860002000F09BF800F02DFA7B6865
:10057000DB79002B0AD000F065FA00BF00F050FADA
:10058000034683F00103DBB2002BF7D17B685B7A73
:10059000184600F0FFF800BFFFF7B2FF0346002B3C
:1005A000FAD17B681B7A184600F0E8F97B681B7C5F
:1005B000184600F00DF97B685B7C184600F030F9B6
:1005C0007B689B7C184600F017F97B68DB7C18463B
:1005D00000F03AF97B689B79002B0AD000F066FAAC
:1005E00000BF00F08BFA034683F00103DBB2002B5F
:1005F000F7D17B68DB78002B02D100F0A3FA14E07E
:1006000000F090FA7B6899887B68DA787B685B7881
:100610001D467B681B781C467B689B7800930846C8
:1006200011462A46234600F09DFA7B68DB68B3F545
:10063000803F03D14FF4803000F032F8FFF74AFEDC
:100640000837BD46B0BD00BF80B485B000AF78604C
:100650007B681B0FFB607B6823F07043BB60FA680C
:1006600013465B0013449B001A46044B1344BA68BC
:100670001A601437BD465DF8047B7047144400507F
:1006800080B500AFFFF730FF0246044B5B6903F013
:10069000010322FA03F3184680BD00BF0046005054
:1006A00080B483B000AF78600649064BDB6823F462
:1006B00080327B681343CB600C37BD465DF8047B0A
:1006C000704700BF0046005080B483B000AF786030
:1006D0000649064B9B6923F480327B6813438B6188
:1006E0000C37BD465DF8047B704700BF00460050E4
:1006F00080B483B000AF78600649064B5B6A23F490
:1007000040327B6813434B620C37BD465DF8047B77
:10071000704700BF0046005080B483B000AF03466E
:10072000FB80FB88002B08D10A4A0A4BDB6823F4C4
:10073000807323F00103D36007E0064A054BDB68B2
:1007400043F4807343F00103D3600C37BD465DF87A
:10075000047B70471047005080B483B000AF03465D
:10076000FB7100BF094BD3F8C43003F00803002B22
:10077000F8D10749064BDB6823F04002FB791343AD
:10078000CB600C37BD465DF8047B704700400050DD
:100790000043005080B483B000AF0346FB7100BF3C
:1007A000094BD3F8C43003F00803002BF8D10749F4
:1007B000064BDB6823F08002FB791343CB600C37D8
:1007C000BD465DF8047B7047004000500043005078
:1007D00080B483B000AF78600649064BDB6823F035
:1007E000FF027B68013B1343CB600C37BD465DF8CD
:1007F000047B70470046005080B483B000AF78603F
:100800000649064B1B6A23F001027B68013B134338
:100810000B620C37BD465DF8047B70470046005004
:1008200080B483B000AF78600649064B1B6923F0A3
:1008300001027B68013B13430B610C37BD465DF839
:10084000047B70470046005080B483B000AF7860EE
:100850000649064B5B6923F001027B68013B1343A9
:100860004B610C37BD465DF8047B70470046005075
:1008700080B483B000AF78600649064B9B6923F0D3
:1008800007027B68013B13438B610C37BD465DF863
:10089000047B70470046005080B483B000AF78609E
:1008A0000649064BDB6923F03F027B68013B13439B
:1008B000CB610C37BD465DF8047B704700460050A5
:1008C00080B483B000AF78600649064B5B6A23F0C2
:1008D000FF027B68013B13434B620C37BD465DF85A
:1008E000047B70470046005080B483B000AF0346DD
:1008F000FB71044AFB7953600C37BD465DF8047BFD
:10090000704700BF0046005080B483B000AF7860ED
:100910003960194A184B5B6943F001035361164A69
:10092000154B5B6943F01003536113493B68013B6E
:100930001A027B68013B1B0613434B610E4A0E4BA8
:100940005B6943F0400353610B4A0B4B5B6923F037
:1009500010035361084A084B5B6943F480235361D9
:1009600000BF054B1B6903F00403002BF9D00C37C3
:10097000BD465DF8047B70471047005080B582B0DB
:1009800000AF0346FB710F4A0E4B5B6843F48013C4
:100990005360FB79012B0ED10A4A0A4B5B6823F4A2
:1009A000801353606420FFF7B7FD064A054B5B6870
:1009B00043F4002353606420FFF7AEFD0837BD46C3
:1009C00080BD00BF1047005080B400AF124B1B68C1
:1009D00003F00103002B09D10F4B01225A6000BF25
:1009E0000D4B1B6803F00103002BF9D00B4B1B6868
:1009F00003F40073002B0AD0084B4FF400729A6086
:100A000000BF064B1B6803F40073002BF9D1BD46F1
:100A10005DF8047B704700BF004200500044005066
:100A200080B400AF064B1B6803F00803002B0CBF1B
:100A300001230023DBB21846BD465DF8047B7047F6
:100A40000043005080B500AF00BF164BD3F8C43050
:100A500003F08003002BF8D1134A134BDB6923F01A
:100A60003003D36100BF0F4BD3F8C43003F0080349
:100A7000002BF8D10C4A0C4BDB6843F00803D36021
:100A800000BF084BD3F8C43003F00403002BF8D1A7
:100A9000054B08229A6000BFFFF732FD0346002B8A
:100AA000FAD180BD0040005000430050B0B500AF07
:100AB0000F4A0F4B5B6823F4803353600D4D0D4B91
:100AC0005B6823F4702424F0300401F09DFC02469E
:100AD000094BA3FB02231B0D013B1B0423436B604B
:100AE000034A034B5B6823F400335360B0BD00BF7F
:100AF00010470050004700506BCA5F6B80B400AFD6
:100B0000074B1B6803F46073B3F5607F0CBF0123D0
:100B10000023DBB21846BD465DF8047B704700BF7A
:100B20001047005080B400AF054A054B5B6823F4C2
:100B3000803323F002035360BD465DF8047B7047A9
:100B40001047005080B400AF054A054B5B6843F482
:100B5000803343F002035360BD465DF8047B704769
:100B60001047005080B586B000AFBA607B60034686
:100B7000FB810B467B73FB891846FFF7CDFD7B7B22
:100B8000012B40F08480FB89002B09D101F03CFC53
:100B900002464B4BA3FB02239B0C9B057B6102E0AF
:100BA0004FF0C0637B617B697A6802FB03F2BB682C
:100BB000B2FBF3F37B617B69424AA2FB03231B096F
:100BC0009B0D3B61404A404B5B6843F0010353601F
:100BD0003D4A3D4B5B6843F0100353603A493A4B42
:100BE0009A683A4B13407A68013A12021A433B69F9
:100BF000013B1B041A43BB68013B1B0613438B607C
:100C0000314A314B5B6843F0400353602E4A2E4B10
:100C10005B6823F0100353602B4A2B4B5B6843F453
:100C20008023536000BF284B1B6803F00403002B94
:100C3000F9D0254A244B5B6823F00103536000BFC1
:100C4000214B1B6803F00103002BF9D17B69204A7B
:100C5000A2FB03235B099B0D3B613A6A3B699A4205
:100C600002D2386900F038F87B695B08194AA2FBA8
:100C700003235B099B0D3B613A6A3B699A4202D2AE
:100C8000386900F029F8386A00F026F815E00E49B6
:100C90000D4B9B6823F07F023B6A013B13438B6043
:100CA000094A094B5B6843F00103536000BF064BE0
:100CB0001B6803F00103002BF9D01837BD4680BD37
:100CC00083DE1B43ABAAAAAA10470050FF8080F026
:100CD00089888888B7600BB680B582B000AF78602D
:100CE0000749074B9B6823F4FE027B68013B1B040A
:100CF00013438B603220FFF70FFC0837BD4680BDE1
:100D00001047005080B483B000AF78607B68DB6828
:100D100043F480727B68DA600C37BD465DF8047B73
:100D2000704700BF80B582B000AF78607B68104A22
:100D3000934203D10420FFF787FC16E07B680D4A3D
:100D4000934203D10820FFF77FFC0EE07B680A4A3C
:100D5000934203D11020FFF777FC06E07B68074A37
:100D6000934202D10648FFF76FFC0837BD4680BDAD
:100D700000C0004000000140004001400040004829
:100D80000100001080B582B000AF78601020FFF73E
:100D9000ABFD7868FFF7C6FF0837BD4680BD00BFD2
:100DA00080B584B000AF78600B46FB707868FFF7C1
:100DB000E9FF7868FFF7A6FF7B681B68FB60FB68AC
:100DC00023F44043FB60FB789B03FA681343FB600A
:100DD0007B68FA681A601037BD4680BD80B483B066
:100DE00000AF786039603B681A687B685A613B687D
:100DF0005B79C3F34013DBB21A057B685A603B682A
:100E00001B79C3F30303DBB21A467B685A623B6863
:100E10005B79C3F30303DBB21A467B681A623B6853
:100E20005B79C3F30013DBB21A467B689A613B68B7
:100E30001B79C3F30313DBB21A467B68DA620C3703
:100E4000BD465DF8047B704780B485B000AF786024
:100E50000B46FB707B689B6AFB60FB6823F4706346
:100E6000FB60FB781B02FA681343FB607B68FA683F
:100E70009A62FA787B685A621437BD465DF8047B43
:100E8000704700BF80B487B000AF78600B46FB703E
:100E90001346BB707B68D3F8A830FB60FB78092B46
:100EA0002CD801A252F823F0D10E0008D10E000870
:100EB000DB0E0008DB0E0008FD0E0008FD0E00082A
:100EC000FD0E0008FD0E0008E50E0008F10E0008FA
:100ED00003233B6100237B6116E00C233B6102236B
:100EE0007B6111E04FF440733B6108237B610BE0B1
:100EF0004FF440633B610A237B6105E04FF44053AC
:100F00003B610C237B6100BF3B69DB43FA68134004
:100F1000FB60BA787B6902FA03F3FA681343FB605B
:100F20007B68FA68C3F8A8201C37BD465DF8047BCF
:100F3000704700BF80B483B000AF78600B46FB7091
:100F40001346BB707B685A6FFB785B00194603231E
:100F50008B40DB431A407B685A677B685A6FBB78CB
:100F6000F97849008B401A437B685A670C37BD46B5
:100F70005DF8047B704700BF80B483B000AF786039
:100F80007B689B6BDBB223F07F03DBB218460C3728
:100F9000BD465DF8047B704780B483B000AF7860D5
:100FA00039607B683A68DA640C37BD465DF8047BCB
:100FB000704700BF80B584B000AF786039601023FF
:100FC000FB60786800F08CF83B68DB79002B02D07E
:100FD0003B68DB79FB603B681B6878681946FA68F8
:100FE00000F0CAF83B689B79013B5A00FB685B083C
:100FF00001331B02134343F4403343F001037A6887
:10100000D3633B681B79013B1B0643F481727B6809
:101010005A633B685B79002B09D07B685A6B3B684D
:101020005B79013B1B041A437B685A6308E07B68C9
:101030005A6B3B681B79013B1B041A437B685A635C
:101040007B684FF4A0629A637B684FF0FF32DA64EA
:101050003B681B891A467B681A641037BD4680BD01
:1010600080B582B000AF78600B467B807B68D3F898
:10107000083103F0E063002B10D100BF7868FFF760
:101080007BFF0346802BF9D078684FF40051FFF7BF
:1010900083FF7A887B68C3F8802003E07A887B68C6
:1010A000C3F880210837BD4680BD00BF80B485B03D
:1010B00000AF78607B68D3F80C3103F0E063002B5D
:1010C00003D17B685B6DFB8103E07B68D3F81C3147
:1010D000FB81FB8918461437BD465DF8047B7047D9
:1010E00080B582B000AF78607B681A4A934203D023
:1010F0007B68194A934203D1184800F079F916E049
:101100007B68174A934203D07B68164A934203D107
:10111000154800F06DF90AE07B68144A934203D049
:101120007B68134A934202D1124800F061F97B6850
:101130000322DA6000BF7B68DB6803F00103002B49
:10114000F9D07B681B6C23F00F027B681A640837A8
:10115000BD4680BD0000034000020340080003407C
:10116000000002480002024808000248004002480D
:10117000004202480840024880B58EB000AFF860D7
:10118000B9607A60BB68632B58D97B68002B55D057
:10119000FFF776FA02462E4BA3FB02235B093B6264
:1011A000BB682B4AA2FB03235B09BB600123FB62E4
:1011B0000123BB6240F2FF337B6240F2FF333B63AB
:1011C00022E03B6A3A6B02FB03F2BB68796801FBE1
:1011D00003F3B2FBF3F3FB61FB699B0ABB61FB69A1
:1011E000C3F309037B61BB69B3F5806F09D27A69E8
:1011F0007B6A9A4205D27B697B62BB69BB623B6BAF
:10120000FB623B6B013B3B633B6B002BD9D1FB6A21
:1012100043F40042FB681A61FB685A690D4B1340A6
:101220007A68013A92021A43BB6A013B1B041A43D3
:10123000FB685A61002387F8373002E0012387F802
:10124000373097F8373018463837BD4680BD00BF75
:101250001F85EB51EF8000FC80B485B000AFF860D3
:10126000B9603B601346FB71FB68D3F8083123F08B
:10127000E062FB68C3F80821FB68D3F80821094B3A
:1012800013403A681102BA681143FA7912060A4308
:101290001A43FB68C3F808211437BD465DF8047B88
:1012A000704700BFC0C0FFF880B485B000AFF860E1
:1012B000B9603B601346FB71FB68D3F80C3123F037
:1012C000E062FB68C3F80C21FB68D3F80C210A4BE1
:1012D00013403A681102BA681143FA7912060A43B8
:1012E000134343F08052FB68C3F80C211437BD460A
:1012F0005DF8047B704700BFC0C0FFEF80B485B0CD
:1013000000AFF8600B467A60FB72FB68D3F80C31D3
:1013100023F0E062FB68C3F80C21FB68D3F80C31C2
:1013200023F47C527B681B021A43FB7A1B061A4388
:10133000FB68C3F80C211437BD465DF8047B704789
:1013400080B485B000AFF8600B467A60FB72FB6832
:101350009A69FB7A072101FA03F3DB431A40FB7A0F
:10136000796801FA03F31A43FB689A611437BD46A2
:101370005DF8047B704700BF80B485B000AFF860B3
:101380000B467A60FB72FB68D3F80821FB7A0721D1
:1013900001FA03F3DB431A40FB7A796801FA03F39D
:1013A0001A43FB68C3F808211437BD465DF8047B77
:1013B000704700BF80B485B000AFF8600B467A601C
:1013C000FB72FB68D3F80C21FB7A072101FA03F3C7
:1013D000DB431A40FB7A796801FA03F31A43FB688E
:1013E000C3F80C211437BD465DF8047B704700BF7D
:1013F00080B582B000AF78607B680D4A934204D11B
:101400004FF40060FFF720F90EE07B68094A934231
:1014100003D10948FFF718F906E07B68074A9342B1
:1014200002D10748FFF710F90837BD4680BD00BF5D
:1014300008000340080002488000001008400248ED
:101440000001001080B400AFBD465DF8047B70471A
:1014500080B483B000AF786039607B681A6C3B68F9
:101460001A437B681A640C37BD465DF8047B7047ED
:1014700080B483B000AF786039607B681A6C3B68D9
:10148000DB431A407B681A640C37BD465DF8047B69
:10149000704700BF80B483B000AF78607B689B6BFF
:1014A000DBB223F07F03DBB218460C37BD465DF894
:1014B000047B704780B483B000AF786039603B68CC
:1014C0004FF480329A407B689A660C37BD465DF8CF
:1014D000047B704780B483B000AF786039607B686C
:1014E000D3F808213B681A437B68C3F808210C37FE
:1014F000BD465DF8047B704780B483B000AF786070
:1015000039607B68D3F808213B68DB431A407B686D
:10151000C3F808210C37BD465DF8047B704700BF57
:1015200080B483B000AF78607B684FF40042C3F8AA
:1015300018210C37BD465DF8047B704780B483B03A
:1015400000AF78607B68D3F8143103F48053002B2C
:1015500014BF01230023DBB218460C37BD465DF8EB
:10156000047B704780B483B000AF78607B68D3F8A9
:10157000143103F40063002B14BF01230023DBB2FA
:1015800018460C37BD465DF8047B704780B483B0C5
:1015900000AF786039607B68D3F80C213B681A4350
:1015A0007B68C3F80C210C37BD465DF8047B70479F
:1015B00080B483B000AF786039607B68D3F80C21C9
:1015C0003B68DB431A407B68C3F80C210C37BD46EF
:1015D0005DF8047B704700BF80B483B000AF7860D3
:1015E0007B684FF48042C3F818210C37BD465DF884
:1015F000047B704780B483B000AF78607B68D3F819
:10160000143103F00803002B14BF01230023DBB2C5
:1016100018460C37BD465DF8047B704780B584B032
:1016200000AF78600023FB737B685B685B6898475A
:101630000346FB73FB7B18461037BD4680BD00BFD9
:1016400080B586B000AFF860B9607A600423FB759E
:10165000FB685B6893F82930002B00D007E0F8683E
:10166000B9687A6800F024F80346FB7500BFFB7D7B
:1016700018461837BD4680BD80B586B000AFF8600B
:10168000B9607A600423FB75FB685B6893F82A30C5
:10169000002B00D007E0F868B9687A6800F064F8B9
:1016A0000346FB7500BFFB7D18461837BD4680BD5D
:1016B00080B586B000AFF860B9607A600423FB752E
:1016C000FB689B683B61FB685B6893F82930002BE3
:1016D00044D10223FB753B691B7EDBB283F001031F
:1016E000DBB2002B3AD0BB68002B35D07B68002BD7
:1016F00032D03B69BA681A603B697A689A603B6984
:101700000022DA603B6901221A76FB685B6893F875
:101710002B30002B0CD0FB681B681846FFF700FF2E
:10172000FB681B6818464FF08041FFF7D3FE06E0C8
:10173000FB681B6818464FF40051FFF789FE002331
:10174000FB75FB681A68FB685B6893F82D301046E0
:101750001946FFF7AFFE01E00323FB75FB7D18463A
:101760001837BD4680BD00BF80B586B000AFF860B9
:10177000B9607A600423FB75FB689B683B61FB687A
:101780005B6893F82A30002B3ED10223FB753B693E
:101790005B7EDBB283F00103DBB2002B34D0BB688D
:1017A000002B2FD07B68002B2CD03B69BA685A6085
:1017B0003B697A681A613B6901225A763B690022CB
:1017C0005A61FB685B6893F82C30002B10D0FB68E3
:1017D0001B681846FFF700FFF868796800F030F9D9
:1017E000FB681B6818464FF0C041FFF7CFFE06E0CC
:1017F000FB681B6818464FF44041FFF729FE0023A1
:10180000FB7501E00323FB75FB7D18461837BD46C9
:1018100080BD00BF80B584B000AF78607B689B68F6
:10182000FB60FB68DA68FB689B689A4240D27B6881
:101830005B6893F82B30002B27D01AE0FB68DA683E
:10184000FB689B689A4212D27B681968FB681A6829
:10185000FB68DB6813441B789BB208461946FFF708
:10186000FFFBFB68DB685A1CFB68DA6001E000BF25
:1018700053E07B681B681846FFF760FE034683F061
:101880000103DBB2002BD9D147E07B681968FB6804
:101890001A68FB68DB6813441B789BB2084619463C
:1018A000FFF7DEFBFB68DB685A1CFB68DA6034E09C
:1018B0007B681B681846FFF755FE0346002B2CD0AB
:1018C0007B685B6893F82B30002B07D07B681B6824
:1018D00018464FF08041FFF70FFE06E07B681B685B
:1018E00018464FF40051FFF7C3FD00BF7B681B682B
:1018F0001846FFF7CFFD0346802BF7D0FB68002288
:101900001A76FB6800221A607B685B689B68002B74
:1019100003D07B685B689B6898471037BD4680BDE5
:1019200090B585B000AF78607B689B68FB607B6892
:101930005B6893F82C30002B4ED032E0FB685A697C
:10194000FB681B699A4211D2FB685A68FB685B69A5
:10195000D4187B681B681846FFF7A8FB0346DBB268
:101960002370FB685B695A1CFB685A61FB685A6903
:10197000FB681B699A4214D1FB6800225A767B6887
:101980001B6818464FF0C041FFF712FE7B685B688A
:10199000DB68002B04D07B685B68DB6898470BE052
:1019A0000AE07B681B681846FFF724FE034683F0B5
:1019B0000103DBB2002BC1D1FB685A69FB681B69CC
:1019C0009A423AD2FB681A69FB685B69D31A786855
:1019D000194600F035F830E0FB685A69FB681B696E
:1019E0009A4211D2FB685A68FB685B69D4187B681D
:1019F0001B681846FFF75AFB0346DBB22370FB68EF
:101A00005B695A1CFB685A61FB685A69FB681B6971
:101A10009A4212D1FB6800225A767B681B681846EE
:101A20004FF44041FFF724FD7B685B68DB68002BC7
:101A300003D07B685B68DB6898471437BD4690BD70
:101A400080B584B000AF786039600023FB607B68AC
:101A50005B6893F82C301A4601239340BB603A68C8
:101A6000BB689A4203D23B68013BFB6002E0BB6863
:101A7000013BFB607B681A687B685B6893F82C30DD
:101A800010461946FA68FFF739FC1037BD4680BD8D
:101A900080B400AF044BDB6803F4E0631B0A184614
:101AA000BD465DF8047B704700ED00E080B483B074
:101AB00000AF0346FB7197F90730002B0BDB084999
:101AC00097F907305B09FA7902F01F02012000FA4A
:101AD00002F241F823200C37BD465DF8047B7047C5
:101AE00000E100E080B483B000AF03463960FB71D1
:101AF00097F90730002B0ADB0D4997F907303A6850
:101B0000D2B29200D2B20B4483F800230AE0094912
:101B1000FB7903F00F03043B3A68D2B29200D2B2D1
:101B20000B441A760C37BD465DF8047B704700BF46
:101B300000E100E000ED00E080B489B000AFF860A3
:101B4000B9607A60FB6803F00703FB61FB69C3F1CE
:101B50000703062B28BF0623BB61FB690633062B50
:101B600002D9FB69013B00E000237B61BB690122D4
:101B700002FA03F35A1EBB681A407B699A407B69DC
:101B8000012101FA03F3591E7B680B4013431846E9
:101B90002437BD465DF8047B704700BF80B483B036
:101BA00000AF78600B46FB701346BB70F878FB788B
:101BB0007A6806339B0013445B6823F00702BB7806
:101BC0001A437968831D9B000B445A600C37BD464D
:101BD0005DF8047B704700BF80B483B000AF7860CD
:101BE0007B681B6C23F00F0343F002027B681A64CE
:101BF0000C37BD465DF8047B704700BF80B582B0EE
:101C000000AF0023FB712B482B49FFF7D3F929487C
:101C100000210322FFF7C2FF2648102104220123DE
:101C2000FFF71AFB2348002104220023FFF73CFBA7
:101C30002048FFF7D1FF21480E21214AFEF7B4FBCF
:101C40001C4810210222FFF77BFB1A4810210122B9
:101C5000FFF792FB174810210022FFF7ABFB154856
:101C600013210022FFF7A6FBFFF712FF03461846D9
:101C70000A210022FFF760FF03465B201946FFF7A9
:101C800031FF5B20FFF712FFFFF702FF0346184604
:101C900009210022FFF750FF03465A201946FFF79B
:101CA00021FF5A20FFF702FFFB7918460837BD468F
:101CB00080BD00BF00000248D042000800820248F8
:101CC000DC42000880B500AF0148FFF7A3FD80BDEE
:101CD0000000002080B500AF0148FFF721FE80BD65
:101CE0000000002080B483B000AF78600B46FB702A
:101CF0007B68DA68FB78012101FA03F31A437B68F9
:101D0000DA600C37BD465DF8047B704780B483B061
:101D100000AF78607B689B6803F00103002B14BF61
:101D200001230023DBB218460C37BD465DF8047B67
:101D3000704700BF80B483B000AF78607B68012239
:101D4000DA600C37BD465DF8047B704780B483B021
:101D500000AF78607B6801221A610C37BD465DF8E0
:101D6000047B704780B483B000AF78607B68022248
:101D70001A610C37BD465DF8047B704780B483B0B0
:101D800000AF78600B467B807A887B685A630C379B
:101D9000BD465DF8047B704780B483B000AF7860C7
:101DA0000B467B807A887B68DA630C37BD465DF82A
:101DB000047B704780B483B000AF786039607B6883
:101DC0003A681A610C37BD465DF8047B704700BF66
:101DD00080B483B000AF78600B46FB707B68D3F8AB
:101DE000A420FB78012101FA03F31A437B68C3F8AE
:101DF000A4200C37BD465DF8047B704780B584B0E5
:101E000000AF78600023FB737B6893F8263083F083
:101E10000103DBB2002B09D07B6893F82130002B43
:101E200004D1786800F0F8F80346FB73FB7B184692
:101E30001037BD4680BD00BF80B584B000AF78606C
:101E40007B6893F82630002B0CD07B6893F8213008
:101E5000002B04D17B685B691846FFF76BFF0023FA
:101E6000FB7301E00123FB73FB7B18461037BD4673
:101E700080BD00BF80B584B000AF7860786800F0A6
:101E80001DF80346002B11D07B6893F82630002BF9
:101E90000CD07B6893F82130002B04D17B685B6900
:101EA0001846FFF753FF0023FB7301E00123FB7388
:101EB000FB7B18461037BD4680BD00BF80B584B09F
:101EC00000AF78600023FB737B6893F82130002B10
:101ED00006D17B685B691846FFF718FF0346FB7362
:101EE000FB7B18461037BD4680BD00BF00000000D8
:101EF000F0B587B000AF786039600123FB75786872
:101F0000FFF7DCFF034683F00103DBB2002B79D03F
:101F10007B689A683B689A4274D87B685A683B68C9
:101F20009A426FD300233B6102E03B6901333B617E
:101F30007B685B683A69C2F10F0223FA02F23B68E0
:101F40009A42F2D37B6893F82130002B5AD17B68F8
:101F50001B691B68FB607B68DA693B69DBB203F0D5
:101F60000F03D9B2137961F3030313713B68184669
:101F70004FF00001FB681A464FF0000302FB01FE20
:101F800000FB03F67644A0FB0223F1180B467968A8
:101F9000C9690979C1F30301C9B2C1F12006A1F1F0
:101FA000200022FA01F403FA06F6344323FA00F083
:101FB000044323FA01F52046294615A3D3E900235B
:101FC00001F08EFE02460B4692B27B685A847B6813
:101FD0005B8C012B05D97B685B8C013B9AB27B68DB
:101FE0005A847B685A697B68DB691B79C3F30303F6
:101FF000DBB210461946FEF727FF786800F058F864
:102000000023FB75FB7D18461C37BD46F0BD00BFA5
:1020100000E1F5050000000080B584B000AF7860F5
:102020007B681B69184600F02BF90346FB737B683D
:102030001B699A687B681B7E10461946FFF752FEA3
:102040007B685A697B68DB6910461946FEF7C6FE55
:10205000786800F02DF87B6893F82530002B0FD0BE
:102060007B685A697B6893F82030104600211A4635
:10207000FEF708FF7B685B6918460021FFF7A8FEA2
:102080007B685B691846FFF76DFE7B68012283F869
:1020900026207B6893F82430002B04D07B685B6992
:1020A0001846FFF747FEFB7B18461037BD4680BD3C
:1020B00080B582B000AF78607B685A697B685B8CC2
:1020C00010461946FFF75AFE7B685B6918460021E7
:1020D000FFF762FE7B681B699A687B68DB681046C5
:1020E0001946FFF767FE0837BD4680BD80B400AFD4
:1020F000044BDB6803F4E0631B0A1846BD465DF839
:10210000047B704700ED00E080B483B000AF03466D
:10211000FB7197F90730002B0BDB084997F9073063
:102120005B09FA7902F01F02012000FA02F241F87D
:1021300023200C37BD465DF8047B704700E100E0CA
:1021400080B483B000AF03463960FB7197F9073064
:10215000002B0ADB0D4997F907303A68D2B292009A
:10216000D2B20B4483F800230AE00949FB7903F05B
:102170000F03043B3A68D2B29200D2B20B441A76F3
:102180000C37BD465DF8047B704700BF00E100E0FE
:1021900000ED00E080B489B000AFF860B9607A600B
:1021A000FB6803F00703FB61FB69C3F10703062B20
:1021B00028BF0623BB61FB690633062B02D9FB69E6
:1021C000013B00E000237B61BB69012202FA03F3BB
:1021D0005A1EBB681A407B699A407B69012101FA4B
:1021E00003F3591E7B680B40134318462437BD4642
:1021F0005DF8047B704700BF80B582B000AF7860A7
:102200007B681B785BB21846FFF77EFF0837BD4638
:1022100080BD00BF90B583B000AF78607B681C784C
:10222000FFF764FF01467B685B781A467B689B7802
:10223000084611461A46FFF7ADFF024663B218463C
:102240001146FFF77DFF7B68DB78002B02D07868B2
:10225000FFF7D2FF002318460C37BD4690BD00BFE4
:1022600080B483B000AF78607B68DB6843F4807231
:102270007B68DA600C37BD465DF8047B704700BFB1
:1022800080B582B000AF78607B685B7B83F0010330
:10229000DBB2002B0FD07B689A687B681B7B1046F3
:1022A0001946FEF77DFD7B689B681846FFF7D8FF4F
:1022B0007B6801225A73002318460837BD4680BD4B
:1022C00080B582B000AF78607B6819687B681A7C43
:1022D0007B680433084611461A46FEF765F87B68AA
:1022E00019687B681A7C7B685B7C084611461A4635
:1022F000FEF720FE002318460837BD4680BD00BF0C
:1023000080B485B000AF78607B6803F00703FB60A2
:102310000C4BDB68BB60BA684FF6FF031340BB6031
:10232000FB681A02BB68134343F0BF6343F40033F6
:10233000BB60044ABB68D3601437BD465DF8047BBC
:10234000704700BF00ED00E080B582B000AF012013
:10235000FFF7D6FF72B6214B214A9A60BFF34F8F29
:1023600062B61E4A1D4BD3F8883043F47003C2F89E
:1023700088301C4B03F5805314331B687B607B68EB
:1023800023F00F037B607B6843F003037B60154BF6
:1023900003F5805314337A681A60104A0F4B5B6957
:1023A00023F0100353610D4A0C4B5B6923F00803C3
:1023B00053610A4A094B5B6A23F480335362074A2C
:1023C000064B5B6A23F400335362044A034B5B6A97
:1023D00023F4802353620837BD4680BD00ED00E042
:1023E000000000080010005880B485B000AF78608D
:1023F0000023FB737B6801221A70FB7B184614379D
:10240000BD465DF8047B704780B400AF024B1846B0
:10241000BD465DF8047B7047001BB700B0B586B0C1
:1024200000AF124B3C1D1D460FCD0FC42B6823601F
:102430003B1D1846FEF792F80020FEF78DF90020AC
:10244000FEF742F90420FEF713FA01202021FEF7DF
:102450005BFA0020FEF74CF90120FEF731FA01206B
:10246000FEF71AFA1837BD46B0BD00BF3C4300085E
:1024700080B582B000AF0023FB711548FFF7B4FFB1
:102480000346FB71FB79002B04D11248FFF7C6F815
:102490000346FB71FB79002B04D10F48FFF710FFB7
:1024A0000346FB71FB79002B04D10C48FFF7A6FC17
:1024B0000346FB71FB79002B04D10948FFF7AAFE04
:1024C0000346FB71FB7918460837BD4680BD00BF47
:1024D000E400002000000020284300080C00002039
:1024E0002443000880B483B000AF78600B46FB70D3
:1024F000FB7801229A407B685A600C37BD465DF834
:10250000047B704780B483B000AF78600B46FB70EB
:10251000FB784FF480329A407B685A600C37BD4696
:102520005DF8047B704700BF80B483B000AF786073
:102530000B46FB70FB784FF001129A407B685A60A3
:102540000C37BD465DF8047B704700BF80B483B094
:1025500000AF78607B689B681B7EDBB218460C3747
:10256000BD465DF8047B704780B582B000AF7860EF
:102570007B681A687B681B7C10461946FFF7B2FF20
:102580000837BD4680BD00BF80B582B000AF78601F
:102590007B681A687B681B7C10461946FFF7B2FF00
:1025A0000837BD4680BD00BF80B582B000AF7860FF
:1025B0007B681A687B681B7C10461946FFF7B4FFDE
:1025C0000837BD4680BD00BF80B582B000AF7860DF
:1025D0007B68642202FB03F37B600A4B01221A70C2
:1025E00009487968FFF784FC0748FFF725FC00BF1E
:1025F000044B1B78002BFBD10348FFF73BFC08374B
:10260000BD4680BD590000200C00002080B483B07E
:1026100000AF2A4BCC221A70294B10221A71284B7A
:1026200011225A710023FB712FE0FB79244A5B00D1
:1026300013440022DA80FB79214A02339B001344C1
:1026400000225A60FB791E4A04339B0013444FF06A
:1026500000025A60FB791A4A06339B0013444FF07C
:1026600000025A60FB79164A134400229A70FB79E3
:10267000134A0021D154FB79114A14335B001344EF
:1026800000225A80FB790133FB71FB79012BCCD9F5
:102690000B4B41F2BA329A84094B0822DA84084B78
:1026A00064221A85064B4FF00002DA63044B054A98
:1026B0001A640C37BD465DF8047B70475801002052
:1026C000F00000200000484380B400AF034B00221C
:1026D0001A70BD465DF8047B704700BF59000020AA
:1026E00080B58AB000AF78607B68DB6B7B627B680B
:1026F0001B6C3B626E4BD3ED007AB0EE007A87EE36
:10270000877AD7ED097A37EE677A694BD3ED007A8D
:10271000F0EE006AC7EEA66AD7ED097A76EEE77AA0
:1027200027EE277AD7ED086AD7ED087A66EEA77A02
:1027300077EE277A17EE900A00F0B0FBF8615C4B59
:10274000D3ED007AB0EE007A87EE877AD7ED097A7A
:1027500037EE277A564BD3ED007AF0EE006AC7EEDB
:10276000A66AD7ED097A76EEA77A27EE277AD7ED13
:10277000086AD7ED087A66EEA77A77EE277A17EE21
:10278000900A00F08BFBB8614A4B93ED007A494BFD
:10279000D3ED007A27EE277AD7ED076AD7ED077ACF
:1027A00066EEA77A37EE277A434BD3ED006A424BA9
:1027B000D3ED007A66EEA77A37EE677A3D4BD3ED1C
:1027C000007A77EEA76AD7ED077A66EEA77AC7EEAA
:1027D000277AC7ED057A786900F0BCFA7861354B45
:1027E00093ED007A334BD3ED007A27EE277AD7EDBD
:1027F000066AD7ED067A66EEA77A37EE277A2E4B71
:10280000D3ED006A2C4BD3ED007A66EEA77A37EE53
:10281000677A284BD3ED007A77EEA76AD7ED067A70
:1028200066EEA77AC7EE277AC7ED047A386900F01A
:1028300091FA38611E4BD3ED007AB0EE007A87EE44
:10284000877AD7ED097A37EE677AD7ED077AC7EE40
:10285000277A17EE900A00F0CFFAF860144BD3ED08
:10286000007AB0EE007A87EE877AD7ED097A37EEF4
:10287000277AD7ED067AC7EE277A17EE900A00F08E
:10288000BBFAB86097ED057AD7ED037A77EE677AF1
:102890007B68C3ED117A97ED047AD7ED027A77EE73
:1028A000677A7B68C3ED127A2837BD4680BD00BFCA
:1028B00050000020480000204C00002080B582B06D
:1028C00000AF78607B685A6D7B685A617B689A6D4F
:1028D0007B689A617B68DB6807EE903AB8EEE77A2E
:1028E0002E4BD3ED007A67EE277A9FED2D7AC7EE57
:1028F000877A7B68C3ED157A7B681B6907EE903A8F
:10290000B8EEE77A254BD3ED007A67EE277A9FED94
:10291000247AC7EE877A7B68C3ED167A7B68D3ED9D
:10292000077A9FED207A27EE877A7B68D3ED156AC8
:102930007B68D3ED057A76EEE76A1B4BD3ED007A20
:10294000C6EEA77ADFED196A67EEA67A77EE277AE8
:102950007B68C3ED077A7B68D3ED077A9FED117A28
:1029600027EE877A7B68D3ED166A7B68D3ED067A0B
:1029700076EEE76A0C4BD3ED007AC6EEA77ADFED70
:102980000B6A67EEA67A77EE277A7B68C3ED087A42
:102990007868FFF7A5FE0837BD4680BD44000020DB
:1029A00000FEFF46CDCCCC3E540000209A99193F42
:1029B00080B483B000AF78607B68D3ED117A9FED6F
:1029C000157A27EE877A144BD3ED007AC7EE277A73
:1029D000FDEEE77AC7ED007A3B889AB27B681A87EA
:1029E0007B68D3ED127A9FED0B7A27EE877A0A4B3C
:1029F000D3ED007AC7EE277AFDEEE77AC7ED007ACD
:102A00003B889AB27B685A870C37BD465DF8047BD9
:102A1000704700BF00FEFF464400002080B582B032
:102A200000AF114B01221A700023FB7114E0FB79F7
:102A30001033DAB20D4B5A700C4BA1229A700B4B2B
:102A4000DD22DA70042000F01DF94FF49670FFF7D4
:102A5000BBFDFB790133FB71FB79072BE7D9002321
:102A600018460837BD4680BDEE0000205801002002
:102A700080B582B000AF0023FB711AE01048FFF769
:102A800073FDFB791033DAB20E4B5A700D4BA32253
:102A90009A700C4BDD22DA70042000F0F3F84FF44A
:102AA0009670FFF791FD0648FFF76EFDFB79013345
:102AB000FB71FB79072BE1D90837BD4680BD00BF0C
:102AC000284300085801002080B500AF1A4B1B783E
:102AD000CC2B07D1184B1A78184B1A70184B0122BF
:102AE0001A7023E0144B1B78DD2B0ED1144B1B788E
:102AF0000133124ADD21D154114B1B780133DAB274
:102B00000F4B1A7000F026F810E00D4B1B78082BC5
:102B10000CD80B4B1B781A46074B1978074B995466
:102B2000074B1B780133DAB2054B1A70054802498E
:102B30000122FEF7A1FD80BDEC0000204C01002029
:102B4000ED0000200000002080B400AFBD465DF81D
:102B5000047B704780B483B000AF294B1B78CC2B2B
:102B600049D1274B5A78274B1B789A4243D1244BA3
:102B70009B78103BFB71224BDB78A12B07D1FB79B3
:102B80001F4A1179204A13440A469A7033E01C4BBD
:102B9000DB78A32B0CD1FB79194A11791A4A13441B
:102BA0000A469A70FB79164A5179174AD15422E0A5
:102BB000FB79134AD278120291B2114A127992B279
:102BC0000A4391B2104A5B0013440A46DA80FB794B
:102BD0000B4A527911060A4A927912041143084AA3
:102BE000D27912020A430649097A0A430649023396
:102BF0009B000B445A600C37BD465DF8047B704760
:102C00004C01002058000020F000002080B582B068
:102C100000AF78607B681A79194B5A707B681B8FFC
:102C20001BB21B129BB2DAB2154B9A707B681B8FDA
:102C3000DAB2134BDA70124BDD221A71052000F064
:102C400021F84FF4FA70FFF7BFFC7B685A790C4B00
:102C50005A707B685B8F1BB21B129BB2DAB2084BB7
:102C60009A707B685B8FDAB2054BDA70052000F052
:102C700009F84FF4FA70FFF7A7FC0837BD4680BD8E
:102C80005801002080B582B000AF0346FB71FB798C
:102C900009480A491A46FEF7D3FC00BF0648FFF769
:102CA00055FC0346002BF9D1034805490122FEF7E4
:102CB000E3FC0837BD4680BD00000020580100201D
:102CC000EC00002080B582B000AFFFF7D1FB0346D7
:102CD000FB7105E01948FFF777FC1948FFF764FC22
:102CE000FB79012BF6D000BF164B1B78002BFBD0D5
:102CF000FFF78CFC40F6C410FFF766FCFFF7B8FE48
:102D0000FFF78CFEFFF7B4FE0F48FFF7D7FD0E4824
:102D1000FFF74EFE0C48FFF779FF0C4B93ED007A5E
:102D20000B4BD3ED007A77EE277A084BC3ED007A90
:102D30004FF4FA60FFF748FCE6E700BFA086010009
:102D400028430008EE000020F0000020E8000020EA
:102D50005400002070B5254D8AB0064600F0F6F804
:102D600095F900300133044603D0304600F084FB6F
:102D700010B920460AB070BD304600F079FB07EE6E
:102D8000100AF7EE007AB4EEE77AF1EE10FAF0DD11
:102D90000123174A0093304600230192089300F064
:102DA000E9FC02460B461348CDE90423CDE9022392
:102DB00000F058FB95F90030022BCDE906010BD04D
:102DC000684600F04DFB38B1089B53B9DDE90601B8
:102DD00000F036FF0AB070BD01F04EFA2123036007
:102DE000F2E701F049FA089B0360EFE75A00002080
:102DF000504300085843000870B5254D8AB0064678
:102E000000F0CEF995F900300133044603D0304686
:102E100000F032FB10B920460AB070BD304600F019
:102E200027FB07EE100AF7EE007AB4EEE77AF1EE30
:102E300010FAF0DD0123174A009330460023019277
:102E4000089300F097FC02460B461348CDE9042393
:102E5000CDE9022300F006FB95F90030022BCDE905
:102E600006010BD0684600F0FBFA38B1089B53B955
:102E7000DDE9060100F0E4FE0AB070BD01F0FCF9E6
:102E800021230360F2E701F0F7F9089B0360EFE705
:102E90005A0000205C4300085843000830B52DED6F
:102EA000028B284D8BB008EE100A00F083FA95F9DA
:102EB00000300133044609D018EE100A00F0DCFAA5
:102EC00020B1B5EEC08AF1EE10FA04D420460BB062
:102ED000BDEC028B30BD01231B4A009318EE100A93
:102EE00000230192089300F045FC2C78CDE9040101
:102EF000CDE902018CB900220023CDE90623684602
:102F000000F0AEFA98B1089BB3B9DDE9060100F014
:102F100097FE0BB0BDEC028B30BD002000210246B5
:102F20000B4600F0A5FD022CCDE90601E7D101F02A
:102F3000A3F921230360E6E701F09EF9089B0360F3
:102F4000E3E700BF5A0000206443000808B520F002
:102F50000043B3F17E5F2DED028B07EE900A16D091
:102F60000CDCB3F17C5F1FDAB3F10C5F70DCBDECFD
:102F7000028BDFED7A7A17EE900A08BD77EEE77ADA
:102F8000C7EEA77ABDEC028B17EE900A08BDBDEC28
:102F9000028BDFED737A9FED737A0028D8BFF0EED5
:102FA000477A17EE900A08BD0028C0F28E80F7EE2F
:102FB000008A78EEE77AB6EE008A27EE888A18EE65
:102FC000100A00F0F7F99FED687A9FED683A9FEDDF
:102FD000684ADFED682ADFED683A9FED685ADFED59
:102FE000684ADFED686ADFED685ADFED687AA8EEBF
:102FF000073A20F47F6323F00F03E8EE223AA3EEB2
:10300000084AE3EE884AA4EE085AE4EE885AE5EE50
:10301000086A07EE103AE6EE887AF0EE486A06EEA5
:10302000100AE5EE888AE7EE476A67EE887A76EE60
:10303000075A87EEA88AC6EEA57AE8EE067ABDECB6
:10304000028B77EE277A77EEA77A17EE900A08BD03
:1030500027EEA77A9FED441ADFED442ADFED443ACC
:10306000DFED441A9FED443ADFED445A9FED444AA8
:10307000DFED444A9FED445ADFED446A9FED446A18
:103080009FED442AE7EE012ABDEC028BE2EE873A7F
:10309000A7EE213AE3EE875AA3EE074AE5EE874A08
:1030A000A4EE075AE4EE876AF7EE005AE5EE075AF7
:1030B00026EE877A87EE257AA7EEC76A77EEC67A7C
:1030C00072EE677A17EE900A08BDB7EE008A77EEC7
:1030D000887AB6EE007A67EE877ADFED232ADFED95
:1030E000233A9FED243ADFED224A9FED234ADFED9C
:1030F000235A9FED235ADFED236A9FED236A9FED4C
:10310000237AE7EEA23AA7EE834AE3EEA74AA4EEBB
:10311000275AE4EEA75AA5EE276AE5EEA76AA6EEBF
:10312000278AA6EEA77AF0EE488A27EE278A17EEBE
:10313000900A00F03FF988EE288A06EE900A9FED8B
:10314000167ADFED167AA8EE267A06EE100A37EE2A
:10315000067AF0EE006AE7EE667A13E7DB0FC93F06
:1031600000000000DB0F494008EF1138047F4F3AA0
:10317000461124BD2EC69D3D613330BFA80A4E3E88
:103180002D57014090B0A6BE39D119C0ABAA2A3E36
:103190006821A233DA0FC93F6821A2B3DA0F494090
:1031A00038B520F00044B4F17E5F2DED048B07EEBE
:1031B000900A054600F099807FDCB4F17C5F0EDA5E
:1031C000B4F1485F80F2A0809FED6A7A37EE877A8B
:1031D000F7EE006AB4EEE67AF1EE10FA71DC17EE63
:1031E000900A00F045F907EE900AF7EE008A38EEF3
:1031F000E78AF6EE007A28EE278A9FED5F3A9FED88
:103200005F4ADFED5F3A9FED5F5ADFED5F4A9FED6A
:103210005F6ADFED5F5ADFED5F6A9FED5F7ADFED9A
:103220005F7AA8EE034AE8EE234AA4EE085AE4EED9
:10323000885AA5EE086AA5EE887AE6EE086AE7EEF7
:10324000088AE6EE887A18EE100AB0EE689A67EE01
:10325000888A00F0AFF8524B9C4206EE900A35DCAB
:1032600020F47F6323F00F0307EE903AF1EE675AE4
:10327000A5EEA78A76EEA77AC8EE898A88EE278A15
:10328000DFED487A9FED487AB0EE006AE8EE467AC4
:1032900076EEA66AB0EE475AA5EE865AD6EEA87A22
:1032A00077EEC57A77EE677ABDEC048B002DD8BF38
:1032B000F1EE677A17EE900A38BD77EEE77AC7EE3F
:1032C000A77ABDEC048B17EE900A38BDC8EE898A48
:1032D000DFED367A9FED367AE6EEA86AB0EE006A48
:1032E000E6EE867A77EE677ADEE79FED2E7ADFEDFF
:1032F000306A27EE877ABDEC048BA7EEA67AF0EE53
:10330000477A17EE900A38BD27EEA77A9FED1A2A62
:103310009FED1A3A9FED1B4ADFED192ADFED1A3AAD
:103320009FED1A6ADFED1A4A9FED1A5ADFED1A5A1D
:10333000DFED1A6AA7EE023ABDEC048BA3EE074A52
:10334000E7EE223AA4EE076AE3EE874AA6EE075AB2
:10335000E4EE875AE5EE076AB7EE006AA5EE876AE3
:1033600026EE877A87EE067AE7EE877A17EE900ADE
:1033700038BD00BFCAF2497108EF1138047F4F3AD7
:103380002EC69D3D461124BD613330BFA80A4E3E76
:103390002D57014090B0A6BE39D119C0ABAA2A3E24
:1033A0009999793F2EBD3BB3DB0F493F2EBD3B338F
:1033B000DB0FC93F20F00042B2F1FF4F70B407EEBF
:1033C000900A034632D26AB3002841DBB2F5000FFF
:1033D0004FEAE05130D3A1F17F02C3F31603D107C6
:1033E00043F4000348BF5B00002456105B002546F1
:1033F00019214FF08072A818984202DC1B1A851818
:10340000144401394FEA43034FEA5202F3D113B196
:1034100004F001031C44641004F17C5404EBC65313
:1034200007EE903A17EE900A70BC7047E7EEA77A65
:1034300070BC17EE900A704710F400020DD15B00CB
:10344000180202F10102FAD5C2F101021144C2E7E9
:1034500077EEE77AC7EEA77AE4E701221144BAE7EC
:103460000020704700200149704700BF0000F87F2E
:1034700020F00040704700BF30F0004001D1022032
:103480007047A0F50003B3F1FE4F01D2042070474E
:10349000054B421E9A4201D803207047A0F1FF401D
:1034A000B0FA80F040097047FEFF7F0081F00041D4
:1034B00002E000BF83F0004330B54FEA41044FEA19
:1034C000430594EA050F08BF90EA020F1FBF54EAB4
:1034D000000C55EA020C7FEA645C7FEA655C00F050
:1034E000E2804FEA5454D4EB5555B8BF6D420CDD21
:1034F0002C4480EA020281EA030382EA000083EAA4
:10350000010180EA020281EA0303362D88BF30BD43
:1035100011F0004F4FEA01314FF4801C4CEA113199
:1035200002D0404261EB410113F0004F4FEA0333F8
:103530004CEA133302D0524263EB430394EA050F83
:1035400000F0A780A4F10104D5F1200E0DDB02FAF2
:103550000EFC22FA05F2801841F1000103FA0EF286
:10356000801843FA05F359410EE0A5F120050EF14C
:10357000200E012A03FA0EFC28BF4CF0020C43FA7D
:1035800005F3C01851EBE37101F0004507D54FF08A
:10359000000EDCF1000C7EEB00006EEB0101B1F5DA
:1035A000801F1BD3B1F5001F0CD349085FEA300020
:1035B0004FEA3C0C04F101044FEA445212F5800F2B
:1035C00080F09A80BCF1004F08BF5FEA500C50F1C8
:1035D000000041EB045141EA050130BD5FEA4C0CAB
:1035E000404141EB010111F4801FA4F10104E9D134
:1035F00091F0000F04BF01460020B1FA81F308BF2B
:103600002033A3F10B03B3F120020CDA0C3208DDF6
:1036100002F1140CC2F10C0201FA0CF021FA02F1D1
:103620000CE002F11402D8BFC2F1200C01FA02F141
:1036300020FA0CFCDCBF41EA0C019040E41AA2BF66
:1036400001EB0451294330BD6FEA04041F3C1CDA2E
:103650000C340EDC04F11404C4F1200220FA04F04E
:1036600001FA02F340EA030021FA04F345EA0301F8
:1036700030BDC4F10C04C4F1200220FA02F001FABA
:1036800004F340EA0300294630BD21FA04F029463C
:1036900030BD94F0000F83F4801306BF81F48011D5
:1036A0000134013D4EE77FEA645C18BF7FEA655C48
:1036B00029D094EA050F08BF90EA020F05D054EA1A
:1036C000000C04BF1946104630BD91EA030F1EBF1F
:1036D0000021002030BD5FEA545C05D14000494123
:1036E00028BF41F0004130BD14F580043CBF01F516
:1036F000801130BD01F0004545F0FE4141F47001FC
:103700004FF0000030BD7FEA645C1ABF19461046D6
:103710007FEA655C1CBF0B46024650EA013406BFD7
:1037200052EA033591EA030F41F4002130BD00BF96
:1037300090F0000F04BF0021704730B54FF4806453
:1037400004F132044FF000054FF0000150E700BFD4
:1037500090F0000F04BF0021704730B54FF4806433
:1037600004F1320410F0004548BF40424FF0000120
:103770003EE700BF42004FEAE2014FEA31014FEA63
:1037800002701FBF12F07F4393F07F4F81F06051B2
:10379000704792F0000F14BF93F07F4F704730B521
:1037A0004FF4607401F0004521F0004120E700BFB4
:1037B00050EA010208BF704730B54FF000050AE03B
:1037C00050EA010208BF704730B511F0004502D53C
:1037D000404261EB41014FF4806404F132045FEA3E
:1037E000915C3FF4DCAE4FF003025FEADC0C18BFE3
:1037F00003325FEADC0C18BF033202EBDC02C2F1D9
:10380000200300FA03FC20FA02F001FA03FE40EA6A
:103810000E0021FA02F11444C1E600BF70B54FF06A
:10382000FF0C4CF4E06C1CEA11541DBF1CEA13554C
:1038300094EA0C0F95EA0C0F00F0DEF82C4481EAB4
:10384000030621EA4C5123EA4C5350EA013518BFD4
:1038500052EA033541F4801143F4801338D0A0FBC1
:1038600002CE4FF00005E1FB02E506F00042E0FB6E
:1038700003E54FF00006E1FB03569CF0000F18BF74
:103880004EF0010EA4F1FF04B6F5007F64F540741C
:1038900004D25FEA4E0E6D4146EB060642EAC621AF
:1038A00041EA55514FEAC52040EA5E504FEACE2E1C
:1038B000B4F1FD0C88BFBCF5E06F1ED8BEF1004F1F
:1038C00008BF5FEA500E50F1000041EB045170BD9B
:1038D00006F0004646EA010140EA020081EA0301DF
:1038E000B4EB5C04C2BFD4EB0C0541EA045170BDDB
:1038F00041F480114FF0000E013C00F3AB8014F155
:10390000360FDEBF002001F0004170BDC4F100049D
:10391000203C35DA0C341BDC04F11404C4F120051E
:1039200000FA05F320FA04F001FA05F240EA020079
:1039300001F0004221F0004110EBD37021FA04F6AF
:1039400042EB06015EEA430E08BF20EAD37070BD69
:10395000C4F10C04C4F1200500FA04F320FA05F0C8
:1039600001FA04F240EA020001F0004110EBD370CA
:1039700041F100015EEA430E08BF20EAD37070BD3A
:10398000C4F1200500FA05F24EEA020E20FA04F313
:1039900001FA05F243EA020321FA04F001F00041C2
:1039A00021FA04F220EA020000EBD3705EEA430E33
:1039B00008BF20EAD37070BD94F0000F0FD101F062
:1039C0000046400041EB010111F4801F08BF013C9B
:1039D000F7D041EA060195F0000F18BF704703F0D9
:1039E0000046520043EB030313F4801F08BF013D60
:1039F000F7D043EA0603704794EA0C0F0CEA13551C
:103A000018BF95EA0C0F0CD050EA410618BF52EAD5
:103A10004306D1D181EA030101F000414FF00000DB
:103A200070BD50EA410606BF1046194652EA4306E9
:103A300019D094EA0C0F02D150EA013613D195EA5D
:103A40000C0F05D152EA03361CBF104619460AD1A5
:103A500081EA030101F0004141F0FE4141F47001AF
:103A60004FF0000070BD41F0FE4141F4780170BD9F
:103A700070B54FF0FF0C4CF4E06C1CEA11541DBF04
:103A80001CEA135594EA0C0F95EA0C0F00F0A7F806
:103A9000A4EB050481EA030E52EA03354FEA013133
:103AA00000F088804FEA03334FF0805545EA131346
:103AB00043EA12634FEA022245EA111545EA10650E
:103AC0004FEA00260EF000419D4208BF964244F1A5
:103AD000FD0404F5407402D25B084FEA3202B61AC4
:103AE00065EB03055B084FEA32024FF480104FF498
:103AF000002CB6EB020E75EB030E22BFB61A75460C
:103B000040EA0C005B084FEA3202B6EB020E75EB9E
:103B1000030E22BFB61A754640EA5C005B084FEA06
:103B20003202B6EB020E75EB030E22BFB61A7546D3
:103B300040EA9C005B084FEA3202B6EB020E75EBDE
:103B4000030E22BFB61A754640EADC0055EA060E9F
:103B500018D04FEA051545EA16754FEA06164FEAE2
:103B6000C30343EA52734FEAC2025FEA1C1CC0D18E
:103B700011F4801F0BD141EA00014FF000004FF01B
:103B8000004CB6E711F4801F04BF01430020B4F1DC
:103B9000FD0C88BFBCF5E06F3FF6AFAEB5EB030C94
:103BA00004BFB6EB020C5FEA500C50F1000041EB91
:103BB000045170BD0EF0004E4EEA113114EB5C045E
:103BC000C2BFD4EB0C0541EA045170BD41F4801131
:103BD0004FF0000E013C90E645EA060E8DE60CEA39
:103BE000135594EA0C0F08BF95EA0C0F3FF43BAF56
:103BF00094EA0C0F0AD150EA01347FF434AF95EA0D
:103C00000C0F7FF425AF104619462CE795EA0C0FF0
:103C100006D152EA03353FF4FDAE1046194622E7BD
:103C200050EA410618BF52EA43067FF4C5AE50EA97
:103C300041047FF40DAF52EA43057FF4EBAE12E787
:103C40004FEA4102B2F1E04324BFB3F5001CDCF1BE
:103C5000FE5C0DD901F0004C4FEAC0024CEA5070F6
:103C6000B2F1004F40EB830008BF20F00100704725
:103C700011F0804F21D113F13872BCBF01F0004028
:103C8000704741F480114FEA5252C2F11802C2F15A
:103C9000200C10FA0CF320FA02F018BF40F00100DB
:103CA0004FEAC1234FEAD32303FA0CFC40EA0C008D
:103CB00023FA02F34FEA4303CCE77FEA625307D1CA
:103CC00050EA01331EBF4FF0FE4040F44000704701
:103CD00001F0004040F0FE4040F40000704700BF9B
:103CE0004BB942B9002908BF002802D04FF0FF317C
:103CF000084600F03BB882B0EC462DE9005000F0D9
:103D00001DF8DDF804E002B00CBC70472DE9F0416D
:103D1000069C154606460F46984600F029F805FB16
:103D200001F300FB0838A5FB0023B21A434467EBFC
:103D30000303C4E90023BDE8F08100BF2DE9F04191
:103D4000069C904606460F461D4600F05FF900FBB4
:103D500005F5A0FB082308FB0155B21A2B4467EBBD
:103D60000303C4E90023BDE8F08100BF704700BF32
:103D700000292DE9F043C0F2A6800026002BC0F2F6
:103D80009C80884694469E46154604460F46002B66
:103D90003DD18A4259D9B2FA82F33BB1C3F1200234
:103DA0009F4020FA02F29D4017439C40290C220CB0
:103DB000B7FBF1FEA8B201FB1E7742EA074700FB02
:103DC0000EF3BB420AD97F190EF1FF3280F0058154
:103DD000BB4240F20281AEF1020E2F44FF1AA4B2A0
:103DE000B7FBF1F301FB137744EA074700FB03F04D
:103DF000B84208D97F1903F1FF3280F0F080B84251
:103E000040F2ED80023B43EA0E43002203E08B4286
:103E10000FD900221346341C18BF012460424FF012
:103E2000000565EB45015840514000196941BDE866
:103E3000F083B3FA83F2002A40F086808B4202D3EB
:103E4000844500F2DB800123E5E712B90123B3FBCF
:103E5000F2F5B5FA85F000283BD1781B4FEA154EF4
:103E60001FFA85FC0122B0FBFEF8210C0EFB18079F
:103E700041EA07470CFB08F3BB4207D97F1908F159
:103E8000FF3102D2BB4200F2BD808846FF1AA4B2C5
:103E9000B7FBFEF30EFB137744EA07470CFB03FC6A
:103EA000BC4507D97F1903F1FF3102D2BC4500F2AE
:103EB000A7800B4643EA0843ADE752426FEA060685
:103EC00063EB43035DE7404261EB41014FF0FF3696
:103ED00054E7C0F1200224FA02F107FA00F385400A
:103EE0004FEA154ED7401943B7FBFEF20B0C0EFB01
:103EF00012771FFA85FC43EA07430CFB02F79F4247
:103F000004FA00F407D95B1902F1FF3074D29F4222
:103F100072D9023A2B44DF1B89B2B7FBFEF80EFBC5
:103F2000187341EA03430CFB08F79F4208D95B1959
:103F300008F1FF315CD29F425AD9A8F102082B4404
:103F4000D81B48EA02428EE7C2F120032CFA03F1A3
:103F50000EFA02FE20FA03F741EA0E0E08FA02F00A
:103F600028FA03F14FEA1E453843B1FBF5F8030C7C
:103F700005FB18111FFA8EF743EA014107FB08F30E
:103F80008B420CFA02FC09D911EB0E0108F1FF3942
:103F900030D28B422ED9A8F102087144C91A80B2DE
:103FA000B1FBF5F305FB131140EA014107FB03F7F1
:103FB0008F4208D911EB0E0103F1FF3016D28F4268
:103FC00014D9023B714443EA0843C91BA3FB0C8983
:103FD000494509D305D000221DE79646FEE6134663
:103FE00011E794404445F6D2013BF4E70346EAE783
:103FF0008846A5E7C846D1E702468CE713460AE79C
:10400000023B57E7A8F102082F443FE72DE9F041B2
:10401000002B44D18A42154604464FD9B2FA82F7A2
:104020000E464FB1C7F12003B94020FA03F602FA59
:1040300007F50E4300FA07F44FEA154E230CB6FBC2
:10404000FEF0AFB20EFB106143EA014307FB00F143
:10405000994209D95B1900F1FF3280F0EC80994256
:1040600040F2E98002382B445A1AA4B2B2FBFEF3A4
:104070000EFB132244EA024207FB03F7974208D9DA
:10408000521903F1FF3180F0D880974240F2D58079
:10409000023B43EA004000263146BDE8F0818B42F6
:1040A00047D8B3FA83F6002E48D18B4202D382421E
:1040B00000F2CD8001203146BDE8F08112B9012522
:1040C000B5FBF2F5B5FA85F8B8F1000F77D14A1BC8
:1040D0004FEA154EAFB20126B2FBFEF0230C0EFBE9
:1040E000102143EA014107FB00F38B4207D949192C
:1040F00000F1FF3202D28B4200F2BA801046C91A98
:10410000A4B2B1FBFEF30EFB131144EA014407FB1A
:1041100003F7A74208D9641903F1FF3280F08F80BA
:10412000A74240F28C80023B43EA00403146BDE8A2
:10413000F081002630463146BDE8F081C6F120040A
:1041400022FA04F5B3402B4320FA04FC01FA06F7E7
:1041500021FA04F54FEA134E4CEA0707B5FBFEF8C7
:10416000390C0EFB18551FFA83FC41EA05450CFB80
:1041700008F1A94202FA06F204D9ED1808F1FF3459
:1041800067D3A0466D1ABFB2B5FBFEF40EFB145503
:1041900047EA05410CFB04FC8C4504D9C91804F11D
:1041A000FF355CD32C4644EA0844CCEB0101A4FB68
:1041B0000223994248D344D0204600266CE7C8F138
:1041C000200401FA08F305FA08F520FA04F7E140A3
:1041D0004FEA154E1F43B1FBFEF63A0C0EFB1611CB
:1041E0001FFA85FC42EA01430CFB06F29A4200FAF0
:1041F00008F407D95B1906F1FF3137D29A4235D955
:10420000023E2B449B1ABFB2B3FBFEF00EFB1033F1
:1042100047EA03430CFB00F1994207D95B1900F10F
:10422000FF3221D299421FD902382B445A1A40EA50
:104230000646674650E7104616E70B4629E7134641
:1042400072E7B0409042B7D2601E002624E73046A5
:1042500022E7A94295D9A8F102081D4492E78C45AE
:10426000A0D9023C19449EE71046DFE70E46C9E795
:104270000238294443E700BF014B1868704700BF6C
:10428000BC00002070B50E4B0E4CE41AA4100025A3
:104290001E46A54204D056F8253098470135F8E768
:1042A000FDF7D0F8084C094BE41AA41000251E466F
:1042B000A54204D056F8253098470135F8E770BD7F
:1042C000C0000020C0000020C0000020C00000206E
:1042D00040420F000808011000000000D00000005C
:1042E0000100000004000000008202480E000000EF
:1042F000DC420008D0420008FD1B0008492B0008E2
:10430000C92A0008000000000000000000000000B2
:104310000000000000000000E84200080100000466
:1043200004010000390300010085024880000000FC
:10433000000001000000000007000000500204011E
:104340000000010000000000000001000101010167
:1043500061636F7366000000000000006173696EA6
:104360006600000073717274660000004300000074
:0843700000FAFF7F01000000CC
:1043780000000248F4420008C00000206400000069
:104388000040AA6A0A000000005000003400002023
:104398000044004803000000DC0000200100770012
:1043A80000010000000E2707080000000040004838
:1043B80000000000D00F49400000C84200004843F8
:1043C8000000B2420AD7A33CEE0101000000000041
:1043D80000000000000000000000000000000000D5
:1043E8000000000000000000000000006C4300080E
:1043F80000000000000000000000000000000000B5
:1044080000000000000000000000000000000000A4
:104418000000000000000000000000000000000094
:104428000000000000000000000000005C00002008
:0400000508000201EC
:00000001FF
